:020000040800F2
:1000000090080020AD010008A54100086B300008F1
:1000100009410008FF150008F14500080000000034
:10002000000000000000000000000000A9410008DE
:10003000F916000800000000A7410008AB410008C5
:10004000C7010008C7010008C7010008C701000870
:10005000C7010008C7010008C7010008C701000860
:10006000C7010008C7010008C7010008C701000850
:10007000C7010008C7010008C7010008C701000840
:10008000C7010008C7010008C7010008C701000830
:10009000C7010008C7010008C7010008C701000820
:1000A000C7010008C7010008C7010008C701000810
:1000B0000D420008C7010008C70100086D300008A4
:1000C000C7010008C7010008C7010008C7010008F0
:1000D000C7010008CD450008D9450008E5450008DE
:1000E000C7010008C7010008C701000800F002F8B6
:1000F00000F04DF80AA090E8000C82448344AAF175
:100100000107DA4501D100F042F8AFF2090EBAE872
:100110000F0013F0010F18BFFB1A43F0010318473B
:100120000C8B00002C8B0000103A24BF78C878C1DB
:10013000FAD8520724BF30C830C144BF04680C60ED
:10014000704700000023002400250026103A28BF35
:1001500078C1FBD8520728BF30C148BF0B60704739
:10016000662907F0A085642900F09C80732900F0BF
:10017000CA84002070471FB500F0FEFC0400002078
:10018000002106F067FDE0601FBD10B510BD00F056
:100190000FFE1146FFF7EFFF05F046FD00F02DFEC4
:1001A00003B4FFF7F2FF03BC04F0B7FA0948804735
:1001B00009480047FEE7FEE7FEE7FEE7FEE7FEE749
:1001C000FEE7FEE7FEE7FEE704480549054A064B61
:1001D000704700000B420008ED000008900200206C
:1001E000900800209004002090040020704710B573
:1001F0004C1084EA530404D54042C1F1000138BFD9
:10020000491E1B4204D55242C3F1000338BF5B1E96
:1002100000F07FF914F0804F04D04042C1F100019A
:1002200038BF491E14F0004F04D05242C3F10003FE
:1002300038BF5B1E10BD00000FB4044910B503AAFF
:10024000029800F065FC10BC5DF814FB280000204B
:1002500070B50C460546012A05D02878800600D5E1
:10026000EA69002302E0012305E05B1C934202D20D
:10027000E05C0028F9D1A869E618C01AA861286ACC
:10028000184428622846AFF3008004E0D5E9012134
:1002900014F8010B9047B442F8D32846AFF300801E
:1002A00070BD00002DE9F041064600241068752954
:1002B000314616A510D0AFF30080002802DA404284
:1002C00013A507E031688A0701D512A502E04907A6
:1002D00004D511A5012401E0AFF3008000210A221A
:1002E00006F1240709E0B0FBF2FCB0FBF2F302FBDD
:1002F0001C00303078541846491C0028F3D123469E
:100300002A463046BDE8F04100F085B90000000003
:100310002D0000002B000000200000002DE9F05F00
:10032000894604464FF0000ADFF824B1FB44C0F8C8
:1003300020A02046E168884700287DD0252806D0E7
:10034000D4E901219047206A401C2062F1E7002592
:100350005F462046E16888472028064607DB312EA5
:1003600005D2B81910F8200C08B10543F1E7A80729
:1003700001D525F00405C4F81CA00027C4F818A076
:100380002A2E09D0304604F0C1F938B304EB8708AF
:10039000303EC8F8186019E059F8041B204604EBF9
:1003A00087029161E1688847012F064618D1E0690C
:1003B000002820DA25F020051DE0D8F8180000EB11
:1003C000800006EB40003038C8F818002046E1688D
:1003D0008847064604F09AF90028EED1012F0AD08A
:1003E0002E2E08D12046E16888477F1C0646022F42
:1003F00045F02005C4DBA069002803DA404245F03F
:100400000105A061E80701D025F01005A6B1A6F10D
:100410004100192802D8203645F400654A46314685
:10042000204625604D46FFF79BFE60B1012807D0AE
:10043000ED1D25F0070000E007E000F1080978E76E
:1004400005F1040975E730467AE7206ABDE8F09FB8
:100450001687000040EA010310B59B070FD1042A5C
:100460000DD310C808C9121F9C42F8D020BA19BA7F
:10047000884201D9012010BD4FF0FF3010BD1AB1E4
:10048000D30703D0521C07E0002010BD10F8013B39
:1004900011F8014B1B1B07D110F8013B11F8014B60
:1004A0001B1B01D1921EF1D1184610BD02F0FF03B3
:1004B00043EA032242EA024200F03EBB4FF0000250
:1004C00000B5134694469646203922BFA0E80C504A
:1004D000A0E80C50B1F12001BFF4F7AF090728BF25
:1004E000A0E80C5048BF0CC05DF804EB890028BFA1
:1004F00040F8042B08BF704748BF20F8022B11F0CA
:10050000804F18BF00F8012B704770477047704745
:10051000704753EA020C00F069802DE9F04B4FF070
:100520000006002B1FBFB3FA83F503FA05F424FA83
:1005300005F65E4012BF1643B2FA82F502FA05F4E0
:10054000C5F120051EBF22FA05FC44EA0C04203543
:1005500056EA044C4FEA144418BF641C4FF00008DC
:100560004FF00009904271EB030C39D3002919BFF9
:10057000B1FA81F701FA07F6B0FA80F700FA07F648
:10058000C7F120071EBF20FA07FC46EA0C062037F9
:10059000B6FBF4FCA7EB0507103F07F01F0BCBF1F0
:1005A00020060CFA0BFB2CFA06F644BFB3460026D5
:1005B000202FA4BF5E464FF0000B5BEA060C08BF7D
:1005C0004FF0010B19EB0B09ABFB027C48EB060863
:1005D000C01B06FB02CC0BFB03CC71EB0C01C1E78B
:1005E0000B46024641464846BDE8F08B13B54FF036
:1005F00000004FF00001AFF30080BDE81C407047E1
:1006000010B500F0BDFA006810BD10B5044600F04A
:10061000B7FA046010BD2DE9F0470D4699469246A1
:10062000044600F124080168880604D5E06921F039
:100630001001216000E00120A84201DD471B00E01D
:100640000027A1697A1902EB0900081AA061207835
:10065000C00602D42046AFF30080002608E0D4E9AB
:1006600001211AF806009047206A401C761C20627F
:100670004E45F4DB2078C0060AD52046AFF3008053
:1006800006E0D4E9012130209047206A401C206216
:10069000381EA7F10107F4DC07E0D4E9012118F8BE
:1006A00005009047206A401C2062281EA5F1010524
:1006B000F3DC2046AFF300802078000602D502204C
:1006C000BDE8F0870120FBE770472DE9FF4F0C469E
:1006D0001E464FF0FF378BB0D2E90001DDF8608095
:1006E0000A908A46C1F30A5505B93D4600210846DD
:1006F0004FF00000BAF1000F00F4400005DA00EB03
:1007000080004FF4400101EA50004FEA9059B9F1DE
:10071000010F00DDB9460A9850EA4A000ED044F6AF
:100720001050A5F2FF3545432F14B8F1000F1ED02D
:100730007542291E1EDDC9F100021CE0B8F1010F4F
:100740004FF0000001D0302103E0F24305E02154D6
:10075000401CB042FBDB30460022002121540B99A3
:10076000C1F80880C1E900200FB0BDE8F08FBD1BC3
:100770006D1CDEE74A4600DA694206A800F0A2FADC
:1007800006AB93E8070003AB83E8070050460A99DD
:1007900000F07AFB8DE80700A0F500501F380090AC
:1007A0000398002D09DD42F21F014A46084403A9BF
:1007B0000390684600F0D9FD08E0A0F500504A46D5
:1007C0001F3803A90390684600F0E3FD8DE8070099
:1007D0000004000C03D04FF0FF30410800E0104649
:1007E000B8F1000F03D00022009215461EE0751EDE
:1007F00005D400F0C9F9303262556D1EF9D5B34603
:100800000122084302D000227F1C04E02078302817
:1008100001D100227F1E002A099786D01DE0112DEC
:1008200007DA00F0B1F9303262556D1C50EA01026E
:10083000F5D1084302D00098C8B10EE00021681E2F
:1008400005E0235C625C63542254401E491C8142D3
:10085000F7DBAB46A81B401E0990002004F80B00F4
:100860000B98099AC0F80880C0E9002B7CE7112694
:100870004FF0000859E72DE9F04F88460446D21D95
:1008800022F0070191B0D1E90001CDE90A0103F09E
:10089000B0FE02460B98C00F01D02D2007E0206863
:1008A000810701D52B2002E0202101EAC000032AA4
:1008B000099001D0072A05DB03464146204600F097
:1008C000C1F90BE12078800601D5E06900E006203F
:1008D000B8F1650F814606D0B8F1660F18D0B8F1AF
:1008E000670F70D131E00020B9F1110F009001DBEA
:1008F000112301E009F101030AAA01A90CA8FFF7DD
:10090000E4FEDDE90C70002609F10105834647E0AD
:1009100001204B4600904FF000470AAA01A90CA8FD
:10092000FFF7D3FEDDE90DB00C995D46002610B946
:1009300009F101000D18B9EB050003D4C0F1FF3631
:1009400009F10105A5EB09002BE0B9F1010F01DA6E
:100950004FF001090020B9F1110F0090484601DD68
:10096000112300E003460AAA01A90CA8FFF7ADFE77
:10097000DDE90C704D4600268346207800070AD436
:10098000AB4500DA5D4601A8012D04DD411911F8DF
:10099000011C302907D04F4502DA17F1040F04DAA1
:1009A000012082460FE06D1EEEE7002F02DCED1BFA
:1009B0003E4403E0781CA84200DD7D1CB81B00F11A
:1009C000010A4FF000472078000703D4AA4501DB55
:1009D0004FF0FF3A0021B7F1004F0DF143088DF8B9
:1009E000431024D002202B23002F01DA7F422D2335
:1009F0000A21021EA0F1010000DC5FB197FBF1FCAF
:100A000097FBF1F201FB1C7C17460CF1300C08F847
:100A100001CDEEE7A8F1010003702188090501D599
:100A2000452100E06521A0F1010800F8011C0998AA
:100A30000FA9A1EB0807FF1D00B10120411901EB2F
:100A4000EA70A1693844081A401EA0612078C006E7
:100A500002D42046AFF30080099828B1D4E90121DF
:100A60009047206A401C20622078C00622D520468C
:100A7000AFF300801EE0002E04DBB34502DD01A8C9
:100A8000805D00E03020D4E901219047206A401CBD
:100A90002062761CAAF101005FEA000A0AD100F088
:100AA0006BF8C0680168405CD4E901219047206A76
:100AB000401C2062281EA5F10105DCDC07E0D4E91A
:100AC000012118F8010B9047206A401C2062381E53
:100AD000A7F10107F3DC2046AFF30080032011B03B
:100AE00043E610B5436913B1AFF3008001E0FFF7AF
:100AF000AFFB012010BD127800F124010A70002222
:100B00004A700122EDE711684FF0FF32E9E700007B
:100B1000074B70B50D467B4400F081F8044628462B
:100B200000F03EF910B14FF0FF3070BD204670BDAF
:100B3000DB4B00004FF000020429C0F0128010F0DF
:100B4000030C3FF4BDACCCF1040CBCF1020F18BF98
:100B500000F8012BA8BF20F8022BA1EB0C01FFF736
:100B6000AFBC5FEAC17C24BF00F8012B00F8012B69
:100B700048BF00F8012B7047004870474C02002026
:100B8000004870472C02002030B5B0F10A024FEA4D
:100B9000900E71F100034EEA817EB0EB0E0061EB26
:100BA00091014FEA101E4EEA017E10EB0E0041EB60
:100BB00011114FEA102E4EEA016E10EB0E0041EBC0
:100BC00011214FEA104E4EEA014E10EB0E0041EBA0
:100BD0001141401841F100014FEAD00040EA417054
:100BE0004FEAD10110EB80054FEA810444EA90748A
:100BF00044EB01046D1944EB0404521BA3414FF074
:100C0000000348BF0A3200D530BD401C41F100014D
:100C100030BD000001694A1C02610878704700B5C8
:100C20008FB0CDE901310021059105497944CDE925
:100C3000031011466846FFF771FB0FB000BD0000BE
:100C4000E5FFFFFF2DE9F0411F460446032601683A
:100C5000072A01F4006004DB08B116A505E016A51B
:100C600003E008B115A500E015A521F010002060F3
:100C7000A069C01EA0610FB1401EA0612046AFF365
:100C800000804FB1D4E9012138469047206A401CCA
:100C90002062C01C206206E0206AFAE7D4E9012144
:100CA00015F8010B9047761EF8D22046AFF300806E
:100CB000BDE8F0814E414E006E616E00494E460027
:100CC000696E66002DE9F047814616468AB03348C2
:100CD00078440DC88DE80D0030487844801C03AC82
:100CE0000DC884E80D0041F69B300844372190FB85
:100CF000F1F290FBF1F5A5F1800501FB12041B3C1C
:100D000002D56442012000E00020DFF890A0804678
:100D10000027FA44AAF1BE0A0DE0E00709D03246E6
:100D2000684607EB47010AEB810100F032FB8DE8D2
:100D3000070064107F1C002CEFD1184F7F44AC3F9C
:100D400018E0E80714D007EB04100DF1180A90E83A
:100D50000E008AE80E00C068F04201D19819089090
:100D6000324606A903A800F014FB03AB83E8070092
:100D70006D10641C002DE4D132466946B8F1000FB5
:100D800003A802D000F0F1FA01E000F002FBC9E98B
:100D90000001C9F808200AB0BDE8F087F07E000025
:100DA000007B00F080007047004870472C02002054
:100DB0007546FFF7F9FFAE4605006946534620F039
:100DC0000700854618B020B5FFF7FEF9BDE82040C2
:100DD0004FF000064FF000074FF000084FF0000BF7
:100DE00021F00701AC46ACE8C009ACE8C009ACE8AA
:100DF000C009ACE8C0098D4670470446AFF30080D7
:100E00002046FFF7CDF900004FF0013C50F8042BCD
:100E100051F8043B9A4221D1A2EB0C03934313EA0D
:100E2000CC1317D150F8042B51F8043B9A4215D13A
:100E3000A2EB0C03934313EACC130BD150F8042B11
:100E400051F8043B9A4209D1A2EB0C03934313EAF5
:100E5000CC13DBD04FF00000704700BFD01A01BAAE
:100E6000B1FA81F101F0180122FA01F0CB40C1F191
:100E70002001DBB2C0B2C01A2CFA01F3D11A91439F
:100E800011EAC311E6D170475FEA400C08BF91F048
:100E9000000F4FEA8C234FEAC12243EA51514FEA37
:100EA0001C5018BF00F5F0404FEA300018BF41F069
:100EB00000415FEA6C5C00F02980BCF1FF3F08BF95
:100EC00040F080407047130C06BF12044FF0100C26
:100ED0004FF0000C130E04BF12020CF1080C130F9C
:100EE00004BF12010CF1040C930F04BF92000CF12B
:100EF000020CD30F04BF52000CF1010C11464FF04D
:100F00000002A0F11F00A0EB0C00704711F0004F91
:100F100008BF704731F000413FF4D5AF0B0C06BF5E
:100F200009044FF0100C4FF0000C0B0E04BF090227
:100F30000CF1080C0B0F04BF09010CF1040C8B0F12
:100F400004BF89000CF1020CCB0F04BF49000CF167
:100F5000010CCCF12003A0EB0C0022FA03F302FAFF
:100F60000CF241EA030100F10100704720F07F4CD0
:100F700080EA030023F07F47ACEB070303F57C53C3
:100F800000F0004003F1FF032DE980494FEA154BC3
:100F900009B44FEA144325EA0B4E24EA03480FF242
:100FA000042606EB132749083E785FEA320203FB6A
:100FB0000667C7F5000707FB06F64FEA54374FEA06
:100FC000D64606F1020607FB066CCCF1005C4FEA40
:100FD0001C472CEA074C07FB06F40CFB06F504EB58
:100FE00015464FEA961634BF00204FF000404FEAF6
:100FF000D13706FB07FC4FEA1C4C0CFB0BF7D21B4E
:1010000003FB0CF761EB07010CFB0EF7B0EB07409D
:1010100072EB17420CFB08F734BFA2EB0742B2EBAE
:10102000074261EB17414FEA0C444FEA910706FB78
:1010300007FC4FEA1C4C0CFB0BF7B0EBC74072EB04
:10104000573203FB0CF734BFA2EBC742B2EBC742E7
:1010500061EB57310CFB0EF7B0EBC70072EB577228
:101060000CFB08F734BFA2EBC702B2EBC70261EB7F
:101070005771039F4FEA816141EA921104EBCC045E
:101080004FEAD1374FEA826206FB07FC42EA901230
:101090004FEA80604FEA1C4C0CFB0BF7D21B03FBA2
:1010A0000CF761EB07010CFB0EF7B0EB074072EB9E
:1010B00017420CFB08F734BFA2EB0742B2EB074222
:1010C00061EB17414FEA8C554FEA910704EB9C24E2
:1010D00006FB07FC4FEA1C4C0CFB0BF7B0EBC740C0
:1010E00072EB573203FB0CF734BFA2EBC742B2EBF3
:1010F000C74261EB57310CFB0EF7B0EBC70072EB48
:1011000057720CFB08F734BFA2EBC702B2EBC70261
:1011100061EB577115EB4C254FEA816141EA921161
:101120004FEA82624FEAD13742EA901206FB07FC8F
:1011300044F100044FEA80604FEA1C4C0CFB0BF7B3
:10114000D21B03FB0CF761EB07010CFB0EF7B0EBB6
:10115000074072EB17420CFB08F734BFA2EB0742C3
:10116000B2EB074261EB174115EB1C154FEA8131D9
:1011700041EA92414FEA823242EA90424FEA80309D
:101180004FEA0C7644F1000448EA03434EEA0B4868
:101190004FF0000EB2EB080C71EB030724BF624660
:1011A00039464EEB0E0E4FF0000B001852414941EC
:1011B0004BEB0B0BB2EB080C71EB03077BF1000B55
:1011C00024BF624639464EEB0E0E4FF0000B00185E
:1011D000524149414BEB0B0BB2EB080C71EB03078F
:1011E0007BF1000B24BF624639464EEB0E0E51EAEE
:1011F000020718BF46F0010616EB0E7655F1000205
:1012000054F1000103D5BDE88901BDE80088BDE8BF
:101210008901BDE80048B619524141EB0101A3F133
:101220000103704780807F7E7D7C7B7A797877763A
:1012300076757473727171706F6E6E6D6C6C6B6AB3
:101240006A69686867666665646463636261616051
:10125000605F5F5E5E5D5D5C5C5B5B5A5A595958CE
:101260005857575656555555545453535252525138
:10127000515050504F4F4F4E4E4D4D4D4C4C4C4B8E
:101280004B4B4A4A4A4949494848484747474746D5
:101290004646454545444444444343434342424211
:1012A00042414141002B26D4770021D01CB54FEAA2
:1012B000370703B44FF010004FF010014FF000005B
:1012C0000FBCBDE810400BF1010BBBF1010F08BFD3
:1012D0005FEA170722BF12F1010211F101014FF07D
:1012E000004143F1000300F0004043EA0000704772
:1012F000F9D35708DAE746EA064613F1400F4FEAFA
:1013000016461FDD13F1200FDFBF16430A460021EA
:1013100020335B42C8D0C3F1200746EA064602FAF2
:1013200007F74FEA164646EA0706C3F1200722FAF6
:1013300003F201FA07F721FA03F14FF0000342EA42
:101340000702B1E746EA020646EA06464FEA1646B3
:1013500046EA0106BCBF46EA0646360C4FF00003DB
:101360004FF000024FF000019EE72DE9C048934680
:1013700030B491E8380007C831EA400C48BF34EA7D
:10138000430C03D5FFF7F2FDFFF78CFFF0BCBDE87F
:1013900000882DE9C048934630B491E8380007C86A
:1013A00010F0804F08BF13F0804F03D100F005F814
:1013B000FFF778FFF0BCBDE8008820F07F4780EAA7
:1013C000030023F07F4C07EB0C03A3F57C5300F0E4
:1013D0000040A3F1FE0392F0000F00F0B38095F0FF
:1013E000000F00F077802DE901494FEA11404FEAE4
:1013F000144621EA004800FB06FC24EA064708FBE5
:1014000006F607FB08F800FB07F718EB06484CEB5D
:10141000164C4FEA124B18EB07484FEA15464CEBB7
:10142000174022EA0B4E0BFB06FC25EA06470EFB93
:1014300006F607FB0EFE0BFB07F71EEB064E4CEB0A
:10144000164C4FF000061EEB074E4CEB174B18EBFB
:101450000B0840F1000018EB0E0B58EB000840F1B0
:1014600000008F1A4FF000013CBFC943661B14BF38
:10147000B5EB040C00213CBFC943F61B4FEA1744EF
:101480004EEA8E0E27EA04454FEA1C4704FB07622A
:101490002CEA074C05FB07F70CFB05F604FB0CFCDC
:1014A00016EB074642EB174216EB0C4642EB1C428A
:1014B0001BEB060658EB0202414146EA9E0601D5A7
:1014C000BDE80189B619524141EB0101A3F10103C5
:1014D000BDE801894FEA14454FEA114724EA054661
:1014E00021EA074C05FB07F406FB07F70CFB06F1A6
:1014F00005FB0CFC11EB074144EB17444FEA124784
:1015000011EB0C4144EB1C4422EA074C05FB07F2AB
:1015100006FB07F70CFB06F605FB0CFC16EB074673
:1015200042EB174216EB0C4642EB1C456A1854F18D
:10153000000148BF7047B619524141EB0101A3F1C8
:101540000103704795F0000F37D04FEA11424FEA80
:10155000144721EA024624EA074C02FB07F106FB86
:1015600007F70CFB06F402FB0CFC14EB074441EB01
:1015700017414FEA154714EB0C4441EB1C4125EA97
:10158000074C02FB07F506FB07F70CFB06F602FB10
:101590000CFC16EB074645EB174516EB0C4645EBE6
:1015A0001C42121951F1000148BF7047B61952414F
:1015B00041EB0101A3F1010370474FEA14454FEAE3
:1015C000114724EA054621EA074C05FB07F106FB13
:1015D00007F70CFB06F24FF0000605FB0CFC12EBC4
:1015E000074241EB174112EB0C4251EB1C4148BF43
:1015F0007047921841EB0101A3F101037047FEE728
:101600002DE9F04104F062FA2A4C206006F04CF813
:1016100002460B4628A0FEF70FFE2168E06806F0A0
:10162000CDFA606206F040F802460B4628A0FEF7AD
:1016300003FE616A20690D4606F0F4F90746A062D0
:101640002946606906F0EEF9E16906F059F8E061B3
:1016500006462846216A06F0B1FAA16906F0E2F9C9
:101660000546E0623146384606F04AF8294606F05B
:1016700047F8206306F018F802460B4618A0FEF75C
:10168000DBFD606A20621B49206B06F039F806F02A
:1016900061F9606081B2A06080B203F087FB606A8C
:1016A00020F00040B0F17F5F02DA0120BDE8F08158
:1016B0000020FBE78000002063757272656E745F26
:1016C0007961773D2020252E32660D0A000000004A
:1016D0006572726F723D2020252E32660D0A000061
:1016E000636F6E74726F6C3D2020252E32660D0A7A
:1016F000000000000000FA43704772B6FEE710B524
:1017000090F821100022022905D00421816380F87D
:101710002020012010BD01680B6823F00E030B6030
:1017200001680B6823F001030B6090F84030C46B34
:10173000012101FA03F3636080F8211080F8202072
:10174000104610BD10B590F821100024022903D0D6
:101750000421816301243DE001680A6822F00E0241
:101760000A6001680A6822F001020A601A4A0168E8
:10177000914201D1012121E0174A1432914201D155
:1017800010211BE0144A2832914201D1891515E03D
:10179000114A3C32914201D189140FE00E4A503275
:1017A000914202D14FF4803108E00B4A64329142F9
:1017B00002D14FF4801101E04FF08071064A083ADF
:1017C0005160012180F82110002180F82010416B28
:1017D00001B18847204610BD0800024090F8210062
:1017E0007047000070B5044600F004F90546601C1F
:1017F00002D004480078044400F0FCF8401BA042EA
:10180000FAD370BD2C0000202DE9F84FDFF8B89115
:10181000002409F1040A0AF1040B23460F270BF1F7
:10182000040EC9E00125A5402A40AA427DD1674E99
:10183000D1F804C0ACEB0608B44532D014DCBCF1DE
:10184000030F3AD009DCBCF1000F2AD0BCF1010F24
:101850001CD0BCF1020F31D11DE0BCF1110F17D02B
:10186000BCF1120F2AD119E0B8F5881F19D006DC97
:10187000B8F5803F15D0B8F5801F1FD111E0B8F53D
:10188000001F0ED0B8F5041F18D10AE0CB6815E090
:10189000CB681B1D12E0CB6808330FE0CB680C331C
:1018A0000CE08B682BB1012B4FF0080303D045618E
:1018B00004E0042302E0056100E00023FF2A01D8D0
:1018C000064601E000F104064FEA840501D9A5F1BE
:1018D0002005D6F8008007FA05FC28EA0C0803FA70
:1018E00005F548EA0508C6F800804D68ED0062D5A8
:1018F000374DAE6946F00106AE61AD6924F00306CE
:1019000005F001050095334D06EB050CDCF8085099
:10191000A607360F07FA06F825EA0805DFF8B880AB
:10192000404503D14FF0000817E044E0DFF8AC80F9
:10193000404502D14FF001080FE0DFF8A480404598
:1019400002D14FF0020808E0DFF89880404502D14C
:101950004FF0030801E04FF0040808FA06F848EADF
:101960000508CCF808804D68D9F80060ED034D46B5
:1019700001D5164300E096432E604D68DAF800600A
:10198000AD03554601D5164300E096432E604D68E1
:10199000DBF80060ED025D4601D5164300E096439A
:1019A0002E604D68DEF80060AD02754601D5164325
:1019B00000E096432E60641C0D682A46E5407FF4E3
:1019C00031AFBDE8F88F00000004014000001110A5
:1019D000001002400000014000080140000C0140DE
:1019E00000100140001401400AB101617047090470
:1019F000FBE7000001488068704700002C000020D1
:101A0000704770472DE9F047026800215368C66AA5
:101A100090F83E4090F83D50102C12D0402C10D041
:101A2000046C002C7DD05469E443A6077AD4DE43CD
:101A3000B60577D4036C03B19169BDE8F04701F0B6
:101A4000CBBF976951694FF42A0CC9435FEAC1784B
:101A50004FF02A4904D066452AD04E4528D010E0E0
:101A6000DE43B6050DD4C16A614501D1012103E011
:101A7000C16A494501D10821C162BDE8F04701F0C2
:101A800043BE0E0716D4DE43B60513D4416CC9B26B
:101A90001161416B09B1896A29B9816B002907D0AD
:101AA000896A002904D00068416841F400614160FE
:101AB000BDE8F0878E0706D4DE43B60503D4BDE843
:101AC000F04701F075BDFE43526876074FEA0252B7
:101AD0001DD4002AECDB0A0608D4DA43520505D4EB
:101AE000490705D5BDE8F04701F006BD4907DFD439
:101AF000D9438905DCD4212D05D0402CD8D1BDE8AF
:101B0000F04701F047BEBDE8F04701F0B3BC002A42
:101B1000CEDB4A060BD4DA43520508D4490708D570
:101B200001E00DE00EE0BDE8F04701F02FBC4907F1
:101B3000BED4D9438905BBD4BDE8F04701F0BDBB95
:101B4000916970E7E10606D4D943890503D4BDE85D
:101B5000F04701F065BF2821212D27D0292D25D060
:101B6000650655D4DD436D0552D4640752D590F80F
:101B70003D30448D002C9BD01269446A2270426A29
:101B8000521C4262428D521E4285428D002A8FD1E4
:101B90002A2B8DD10268536823F48063536022227C
:101BA000026380F83D1000F007FB81E7250623D48F
:101BB000DD436D0520D4640720D590F83D30448D79
:101BC000002CF2D0446A24781461426A521C4262AA
:101BD000428D521E4285428D002AE6D1292BE4D146
:101BE0000268536823F4806353602122026380F803
:101BF0003D1000F0E2FA5BE76107D6D4D9438905CE
:101C0000D3D4418D0029D0D0416A097811610AE00E
:101C10006107CAD4D9438905C7D4418D0029C4D0EE
:101C20001169426A1170416A491C4162418D491E25
:101C300041853DE77047000070B5040025D094F859
:101C40003D00002520B984F83C50204600F07EFA83
:101C5000242084F83D002068016821F00101016022
:101C60002068016841F4004101602068016821F4A6
:101C70000041016000F0C8FB4D4A6168914201D803
:101C80004C4900E04C49884201D2012070BD4B49CB
:101C90002368B0FBF1F15E6826F03F060E435E60FC
:101CA0006368934206D94FF4967359434FF47A739D
:101CB000B1FBF3F12368491C1E6A26F03F0631434D
:101CC00019626168914210D84900401EB0FBF1F2E0
:101CD000521CC2F30B02042A01D2042022E0B0FB02
:101CE000F1F0401CC0F30B001CE0A268F2B301EB62
:101CF000C10303EB0116431EB3FBF6F35B1C43F475
:101D000080431B0549D092B301EBC10202EB0111E4
:101D1000401EB0FBF1F0401CC0F30B0040F48040CB
:101D200040F400402168CA694CF6FF739A4310439F
:101D3000C861D4E9071001432068026822F0C0029C
:101D400011430160D4E9030101432068826848F22D
:101D5000FF339A4311438160D4E9050108432168A8
:101D6000CA6822F0FF021043C86001E00EE016E0EE
:101D70002068016841F0010101602564202084F899
:101D80003D00256384F83E50002070BD01EB410604
:101D9000431EB3FBF6F35B1CB3E70120C2E701EB84
:101DA0004101401EB0FBF1F0401CC0F30B00B7E74F
:101DB000A086010080841E0000093D0040420F0003
:101DC0007047704770477047704700002DE9FF4F1C
:101DD00083B00025DDE910799A4693460446DDF884
:101DE00048800095FFF706FE064694F83D0020283F
:101DF0007CD11923012285492046009601F0E4FE9A
:101E00000028F5D194F83C0001286FD0012084F817
:101E10003C0020680168C90703D1016841F0010155
:101E200001602068016821F400610160222084F8CB
:101E30003D00402084F83E0025646762A4F82A90A3
:101E4000608D20857248E062CDE9008653465A468F
:101E50002046049901F0EEFC00287DD1208DDFF8AA
:101E6000B491202768B1012814D0022820680168A5
:101E70001ED041F480610160206841698069009052
:101E8000B6E02068416981690091016841F4007100
:101E90000160ADE02068016821F48061016072B6E4
:101EA0002068416981690091016841F400710AE08C
:101EB00041F40061016072B6206841698169009156
:101EC000016821F48061016062B691E0032868D85E
:101ED00001280CD0022843464FF000024946204614
:101EE00000960FD001F070FEB0BB10E08BE03246E0
:101EF0004146204601F0E7FE70BB20680069616A38
:101F000008706CE001F060FE30BB72B634E020680F
:101F1000016821F48061016072B620680069616A1D
:101F20000870606A401C6062208D401E2085608DB4
:101F3000401E6085384846F2A8110068B0FBF1F0F9
:101F4000C0EBC00000EB80000090401E009008D065
:101F500020684069C04300E029E040070CD50098A4
:101F6000F3E744F8305F6773A573206940F0200001
:101F7000206162B625731AE02068016841F400719F
:101F8000016020680069616A0870606A401C6062D4
:101F9000218D491E2185618D491E618562B62168AA
:101FA0001BE032464146204601F08DFE18B101206B
:101FB00007B0BDE8F08F20680069616A0870606A48
:101FC000401C6062218D491E2185618D491E6185FD
:101FD00021684A69D24352070AD409690170606ACC
:101FE000401C6062208D401E2085608D401E6085F3
:101FF000208D00287FF46AAF84F83D7084F83E504D
:1020000084F83C50D4E70220D2E700000200100020
:102010000000FFFF04000100380000202DE9FF4F01
:1020200083B09A46DDE9119793460446DDF8408077
:10203000FFF7E0FC054694F83D0020287FD11923E6
:10204000012240492046009501F0BEFD002876D1CE
:1020500094F83C00012872D0012084F83C002068EC
:102060000168C90703D1016841F0010101602068DE
:10207000016821F400610160212084F83D004020C6
:1020800084F83E0000262664C4F82480A4F82A9030
:10209000608D20852C48E062CDE9007553465A4694
:1020A0002046049901F044FC70B930E02A463946D4
:1020B000204601F03BFE58B1206C042804D1206872
:1020C000016841F400710160012007B0BDE8F08FA4
:1020D000606A216800780861606A401C6062218D36
:1020E000491E89B22185628D521E6285226853691C
:1020F000DB435B070BD469B100781061606A401C58
:102100006062208D401E2085608D401E6085208D80
:102110000028CBD12A463946204601F02FFD002861
:10212000CAD154F83D0B016841F4007101602020D0
:1021300004F81E09E67766770020C6E7FFE702206D
:10214000C3E70000020010000000FFFF10B586B0DA
:102150000021009101910291039100681349884286
:1021600022D1134CA06940F00800A061A069694623
:1021700000F008000490C02000901220019003207D
:1021800003900C48FFF740FBE06940F40010E06169
:10219000E069002200F40010049011461F2000F0B6
:1021A0006BF81F2000F05AF806B010BD0054004034
:1021B00000100240000C01407047704702488168DF
:1021C00002781144816070472C000020074810B548
:1021D000016841F010010160032000F06DF80F204C
:1021E00000F006F800F024F8002010BD00200240A6
:1021F00070B50D4D04464FF47A712878B1FBF0F0BC
:102200000A490968B1FBF0F000F0E4FA48B9102C73
:1022100007D200222146501E00F02EF800206C60EC
:1022200070BD012070BD00002C000020380000208F
:10223000094808B5816941F001018161816901F0B6
:1022400001010091C16941F08051C161C06900F094
:102250008050009008BD000000100240002809DBFB
:1022600000F01F02012191404009800000F1E020B0
:10227000C0F8001170470000F0B40E4B1B680C460C
:10228000C3F30223C3F10705042D00D90425191D4A
:10229000072901D2002300E0DB1E012606FA05F122
:1022A000491E214099409E40761E16403143F0BCA5
:1022B00002F0B3B90CED00E0064900F0070208682F
:1022C0004FF6FF03184040EA0220034A104308601B
:1022D000704700000CED00E00000FA052DE9F04722
:1022E0000F46050061D0434E306800F00700B84249
:1022F00009D2306820F0070038433060306800F0C1
:102300000700B84251D128683B4C810712D54007DD
:1023100003D5606840F4E06060602878000703D56A
:10232000606840F4605060606068A96820F0F00068
:10233000084360602878C00728D06868012810D05A
:102340002168022810D0890700292EDA616821F05F
:10235000030101436160FFF74DFB804641F288397C
:102360000DE021688903EFE78901EDE7FFF742FB04
:10237000A0EB0801494502D90320BDE8F087606859
:10238000696800F00C00B0EB810FEFD1306800F00D
:102390000700B8420BD9306820F00700384330609E
:1023A000306800F00700B84201D00120E5E7287846
:1023B000400705D56068E96820F4E0600843606084
:1023C0002878000706D56068296920F4605040EA43
:1023D000C100606000F038F86168084AC1F3031179
:1023E000515CC8400649086006480068FFF700FFD6
:1023F0000020C2E70020024000100240E67D0008F5
:102400003800002030000020044805490068496871
:10241000044AC1F30221515CC840704738000020D3
:1024200000100240F67D000804480549006849682C
:10243000044AC1F3C221515CC840704738000020F3
:1024400000100240F67D000812A185B00FC98DE88A
:102450000F0014A0144A006804905168134801F05A
:102460000C03042B10D0082B0ED1C1F38343C903F6
:102470001DF803000AD5516804AAC1F34041515C1C
:102480000A4A5043B0FBF1F005B070470849484391
:10249000FAE7000002030405060708090A0B0C0D01
:1024A0000E0F1010010200000010024000127A000E
:1024B00000093D002DE9F84F040070D02078C04D90
:1024C000C00749D06868C0F38100012807D0686858
:1024D000C0F38100022809D16868C00306D52868C6
:1024E000800339D560680028E7D035E06068B0F532
:1024F000803F0BD010B1B0F5A02F11D0286820F488
:1025000080302860286820F4802002E0286840F4A9
:1025100080302860606890B1FFF76CFA06460AE0E8
:10252000286840F480202860F0E700BFFFF762FAD7
:10253000801B642873D828688003F7D50CE0FFF768
:1025400059FA064605E000BFFFF754FA801B6428DD
:10255000F0D828688003F7D420789A4E80074FF08F
:1025600001094FF0000839D5686810F00C0F07D04A
:102570006868C0F38100022809D16868C00306D4E6
:102580002868800714D52069012808D110E0206947
:10259000B0B1C6F80090FFF72DFA074605E00AE152
:1025A000FFF728FAC01B0228C4D828688007F7D58F
:1025B0002868616920F0F80040EAC10028600DE059
:1025C000C6F80080FFF716FA074604E0FFF712FA94
:1025D000C01B022823D828688007F7D4207800077A
:1025E0002CD57948A169D9B1C0F80090FFF702FA5B
:1025F000074604E0FFF7FEF9C01B02280FD8686AFF
:102600008007F7D571484FF4FA510068B0FBF1F03C
:10261000009000BF0098411E0091FAD20EE080E0C9
:10262000C0F80080FFF7E6F9074604E0FFF7E2F99B
:10263000C01B022875D8686A8007F7D42078400745
:1026400060D5E8690027C00008D4E86940F08050F0
:10265000E861E869012700F0805000905C4801685B
:10266000C90513D40168834641F480710160FFF706
:10267000C1F9824606E000BFFFF7BCF9A0EB0A00F3
:1026800064284ED8DBF80000C005F5D5E0680128C5
:102690000AD008B1052813D0286A20F0010028626A
:1026A000286A20F0040002E0286A40F00100286255
:1026B000E06841F2883B98B1FFF79CF982460BE055
:1026C000286A40F004002862EEE700BFFFF792F9A5
:1026D000A0EB0A0159455AD8286A8007F6D50CE0C4
:1026E000FFF788F9824605E0FFF784F9A0EB0A01BD
:1026F00059454CD8286A8007F6D41FB1E86920F004
:102700008050E861E06988B36968C1F381010229FA
:1027100044D00228C6F8608004D0FFF76BF9044665
:1027200038E034E0FFF766F9074604E0FFF762F9A6
:10273000C01B02282BD828688001F7D4206AB0F586
:10274000803F05D16868A16820F4003008436860C4
:10275000D4E908010843696821F4741108436860EA
:10276000C6F86090FFF746F9044606E025E000BF92
:10277000FFF740F9001B022809D828688001F7D527
:102780001BE000BFFFF736F9001B022802D9032027
:10279000BDE8F88F28688001F4D40EE00128F7D056
:1027A0006868226A00F48031914204D1616A00F4C1
:1027B0007010884201D00120EAE70020E8E700001D
:1027C00000100240000042428004424238000020D3
:1027D0000070004010B5401EB0F1807F01D3012091
:1027E00010BD4FF0E02460610F21601701F015FF6C
:1027F0000020A06107202061002010BD70477047B5
:1028000070B590F83C20012A26D0012480F83C4085
:10281000022280F83D2003685A689D6822F0700605
:102820000A6832435A600D4B02689A4208D0B2F1EE
:10283000804F05D00A4B9A4202D00A4B9A4204D1EB
:10284000496825F080031943916080F83D400021DC
:1028500080F83C10084670BD022070BD002C01407D
:10286000000400400008004090F83D10012901D00C
:1028700001207047022180F83D1000680B49884212
:1028800008D0B0F1804F05D00949884202D00949EB
:10289000884204D1816801F00701062903D001684C
:1028A00041F001010160002070470000002C014050
:1028B0000004004000080040704770B504460068FE
:1028C00001694FF00005C943890715D4C168C943A0
:1028D000890711D4E91E01610120207720688069F1
:1028E0008007204602D0FFF7E7FF04E000F0BCF8C5
:1028F000204600F067F9257720680169C943490738
:1029000017D4C168C943490713D46FF004010161AA
:10291000022020772068806910F4407F204602D092
:10292000FFF7CAFF04E000F09FF8204600F04AF9E4
:10293000257720680169C943090716D4C168C943CE
:10294000090712D46FF00801016104202077206884
:10295000C0698007204602D0FFF7AEFF04E000F018
:1029600083F8204600F02EF9257720680169C943D5
:10297000C90617D4C168C943C90613D46FF0100142
:102980000161082020772068C06910F4407F20464C
:1029900002D0FFF791FF04E000F066F8204600F057
:1029A00011F9257720680169C943C90708D1C168B1
:1029B000C943C90704D1891E0161204600F052F9BC
:1029C00020680169C943090609D4C168C9430906D9
:1029D00005D46FF0800101612046FFF70FFF2068EA
:1029E0000169C943490609D4C168C943490605D4E8
:1029F0006FF040010161204600F035F9206801695F
:102A0000C94389060BD4C168C943890607D46FF04E
:102A1000200101612046BDE87040FFF7F0BE70BDA7
:102A200000B585B0002100910191029103910068E9
:102A3000B0F1804F11D10A48816941F004018161F0
:102A40008069694600F00400049003200090022091
:102A5000019003900348FEF7D7FE05B000BD0000CB
:102A60000010024000080140704770B5044690F81D
:102A70003C000D4601280AD0012084F83C0042B1F8
:102A8000042A18D0082A2AD00C2A4DD139E0022075
:102A900070BD206801F004FC2068816941F00801E4
:102AA00081612068816921F0040181612068816968
:102AB0002A69114311E0206801F01AFC206881693D
:102AC00041F4006181612068816921F48061816144
:102AD000206881692A6941EA0221816124E0206835
:102AE00001F032FC2068C16941F00801C161206831
:102AF000C16921F00401C1612068C1692A691143DB
:102B000011E0206801F04CFC2068C16941F40061CB
:102B1000C1612068C16921F48061C1612068C16917
:102B20002A6941EA0221C161002084F83C0070BD9D
:102B300010B5040003D094F83D0010B107E0012067
:102B400010BD002084F83C00204600F01FF8022051
:102B500084F83D00211D206801F05EFB012084F80F
:102B6000460084F83E0084F83F0084F8400084F872
:102B7000410084F8420084F8430084F8440084F85B
:102B8000450084F83D00002010BD000008B5006835
:102B9000B0F1804F12D10A48C16941F00101C16111
:102BA000C069002200F00100009011461C20FFF7D0
:102BB00063FBBDE808401C20FFF750BB08BD0000C8
:102BC000001002407047000010B50446022249B1CF
:102BD00004290ED0082913D094F84100012816D0FA
:102BE000012010BD94F83E000128F9D184F83E2060
:102BF0000FE094F83F000128F2D184F83F2008E06C
:102C000094F840000128EBD184F8402001E084F8DA
:102C100041200122206801F035FB0F4920688842DD
:102C200003D1426C42F4004242642068884208D0DA
:102C3000B0F1804F05D00949884202D00849884246
:102C400004D1816801F00701062903D0016841F031
:102C500001010160002010BD002C01400004004073
:102C6000000800407047704770477047F8B5026829
:102C700004461068D168536910F00F0F4FF000053B
:102C800054D003F0010601F4907737435FD0C207B8
:102C900005D0CA0503D5226C42F001022264420726
:102CA00005D5DA0703D0226C42F0020222648207C3
:102CB00005D5DA0703D0226C42F004022264020731
:102CC00007D501F02002324303D0226C42F0080203
:102CD0002264226C002A35D0800604D5880602D5ED
:102CE000204601F09FFB20684069216CC0F38010F2
:102CF00001F008010143204625D001F07BFB20684C
:102D0000416949061BD5416921F040014161A06B31
:102D1000A8B158494163A06BFEF714FD002811D0FB
:102D2000A06B416B01B0BDE8F040084783060ED5AB
:102D30008B060CD52046BDE8F84001F073BB204659
:102D4000FFF793FFF8BDFFF790FF2564F8BD266BF2
:102D50002023012E52D1C60650D5CE064ED510687E
:102D600050680090506940062AD5A16B08684068F9
:102D70000004000CEAD0A68D8642E7D9E085886978
:102D8000202818D0D06820F48070D0602068416975
:102D900021F0010141612068416921F04001416158
:102DA00084F83E3025632068C16821F01001C160BD
:102DB000A06BFEF7A4FCA08DE18D401A81B219E052
:102DC000A08DE18D401A81B2E08D0028BED000298F
:102DD000BCD0D06820F49070D0602068426922F0A6
:102DE0000102426184F83E3025632068C26822F007
:102DF0001002C2602046FFF737FFF8BD05062BD54D
:102E00000D0629D594F83D002128F6D1A068B0F52B
:102E1000805F01D12069B0B1206A411C2162216824
:102E200000784860E08C401E0004000CE084E4D18F
:102E30002068C16821F08001C1602068C16841F04C
:102E40004001C160F8BD206A0088C0F308005060EE
:102E5000206A801C2062E5E74006F3D54806F1D5DC
:102E6000D168204621F04001D16084F83D3000F067
:102E7000FBF8F8BDE543000870B5040004D094F8F1
:102E80003D00002510B106E0012070BD84F83C50E3
:102E9000204600F023F8242084F83D002068C16813
:102EA00021F40051C160204601F018FB206801693F
:102EB00021F4904101612068416921F02A014161BA
:102EC0002068C16841F40051C1602564202084F865
:102ED0003D0084F83E00002070BD0000F0B585B0D4
:102EE000002400940194029403940368424F02204A
:102EF00042490322424D4602BB4226D18B6943F42C
:102F000080438B618B6903F4804304938B6943F0A6
:102F100004038B618969039201F0040104910102A9
:102F2000CDE9001069462846FEF76EFC01200096A8
:102F3000CDE9014069462846FEF766FC00221146AD
:102F40002520FFF799F9252028E02E4FBB4229D1F3
:102F5000CB6943F40033CB61CB6903F400330493B2
:102F60008B6943F004038B618969039201F00401CA
:102F700004910421CDE9001069462846FEF744FC7F
:102F80000820CDE90004694628460294FEF73CFC7F
:102F9000002211462620FFF76FF92620FFF75EF981
:102FA00005B0F0BD184DAB42FAD1CB6943F4802394
:102FB000CB61CB6903F4802304938B6943F008034E
:102FC0008B618969114D01F00801CDE90321CDE93B
:102FD000006069462846FEF717FCE814CDE90004B6
:102FE000694628460294FEF70FFC0022114627206E
:102FF000FFF742F92720D1E70038014000100240D6
:10300000000801400044004000480040000C01401E
:1030100090F83E30202B0ED159B152B190F83C308F
:10302000012B08D0012380F83C300023036301F01A
:10303000B1BA0120704702207047000010B5006847
:103040000649884208D1012205490648FFF7E0FFFA
:1030500003490120491E087010BD000000380140DE
:1030600001000020500100207047FEE70148FEF7F4
:10307000C9BC0000B400002038B5406A002190F8B7
:103080003D202B4B46F2A8141B68B3FBF4F3C3EBB3
:10309000C30303EB830300933BB15B1E0093036800
:1030A0001B689B0505D5009BF6E7036C43F02003E6
:1030B0000364436B03B19962836B03B19962036844
:1030C0001C6824F480641C604185436B03B1596320
:1030D000836B03B1596303681C6824F001041C600E
:1030E00090F83D402023602C0BD0282434EA0202C3
:1030F0000FD080F83D3080F83E1000BFFEF79AFDFB
:1031000038BD80F83D3080F83E100164FEF778FC51
:1031100038BD0268136843F0010313600268136846
:1031200043F480631360016380F83D40E6E70000EC
:103130003800002070B5044690F83D0094F83E1029
:10314000102901D0402906D1222804D121680A681B
:1031500022F400620A60282131EA00024FF00005E3
:103160004FF0200626D021684968090505D460285B
:1031700003D084F83D6084F83E50256320684168A0
:10318000090537D5416821F400614160606B3D4914
:1031900090F82120012A11D04163606BFEF7D2FA2A
:1031A00038B32068016821F00101016084F83D60B6
:1031B000606B1CE0256384F83D10DFE7A06B416382
:1031C000A06BFEF7BFFAA0B120684169C943490668
:1031D00005D40069616A0870606A401C60622068FA
:1031E000016821F00101016084F83D60A06B416B32
:1031F000884710E094F83D10602910D04169C94318
:10320000490605D40069616A0870606A401C606202
:103210002046FEF70FFD206CC1071CD115E084F895
:103220003D6025644169C943490605D40069616A66
:103230000870606A401C60622068016821F001012A
:1032400001602046FEF7DCFBE5E7810703D4410778
:1032500001D4000704D52068416821F4E061416091
:1032600094F83D00216C49070BD5282809D1064860
:10327000E062256384F83D6084F83E502046FEF706
:103280009FFD70BD793000080000FFFF01684A69AA
:10329000D24352050FD46FF480624A61002140F896
:1032A000301F202242738173026942F004020261DE
:1032B0000173012070470020704710B5C26A438D2A
:1032C0000168042B06D0438D032B08D0438D022BBD
:1032D0001DD012E04A6822F480624A600CE04B681C
:1032E00023F480634B60042A06D0022A04D00168CC
:1032F0000A6822F480620A6001680969426A1170F2
:10330000416A491C4162418D491E418510BD012A17
:1033100030D0102A2ED0042A30D0022A2ED00A68AB
:1033200042F400720A6001680969426A1170416AD8
:10333000491C4162428D521E4285026812690A7020
:10334000416A491C4162418D491E418501684A68B4
:1033500022F440724A60202180F83D1090F83E200F
:103360000021402A80F83E100CD012210163FEF7A4
:1033700028FD10BD0A6822F48062D3E70A6842F48F
:103380008062CFE70163FEF71EFD10BD38B590F8EF
:103390003D10222914D1418D032912D901680969F0
:1033A000426A1170416A491C4162418D491E418542
:1033B000418D032904D10068416821F48061416096
:1033C00038BDC26A022AFBD0012901D00029F7D1F9
:1033D000274946F2A81300220968B1FBF3F101EB7B
:1033E0008101009101682023009C641E009422D07A
:1033F0000C68A405F8D40C6824F480640C6001689F
:103400004C6824F4E0644C6001680969446A2170E6
:10341000416A491C4162418D491E418580F83D3019
:1034200090F83E1080F83E2040291DD01221016303
:10343000FEF7C7FC38BD046C44F0200404644C68FB
:1034400024F4E0644C6001680969446A2170416AAF
:10345000491C4162418D491E418580F83D3080F80C
:103460003E20FEF7E7FB38BD0263FEF7ACFC38BD3B
:103470003800002010B5C26A90F83D1021290BD108
:10348000418D51B1416A026809781161416A491C54
:103490004162418D491E418510BD20230021082A2B
:1034A00013D0202A11D012F5803F0ED00268546844
:1034B00024F4E06454601122026380F83E1080F826
:1034C0003D3000BFFEF77EFC10BD0268546824F456
:1034D000E06454600268146844F40074146001638A
:1034E00080F83D3090F83E2080F83E10402AE9D127
:1034F000FEF76AFC10BD000010B590F83D1090F882
:103500003E30C26A048DB4B1212903D0402B11D1C1
:1035100022290FD1418DE1B390F83E10402942D0CD
:10352000416A026809781161416A491C4162418D12
:10353000491E418510BD2129E8D120230021082AF8
:1035400013D0202A11D012F5803F0ED002685468A3
:1035500024F4E06454601122026380F83E1080F885
:103560003D3000BFFEF72EFC10BD0268546824F405
:10357000E06454600268146844F4007414600163E9
:1035800080F83D3090F83E2080F83E10402AE9D186
:1035900000E002E0FEF718FC10BD0068416821F46D
:1035A0008061416010BDBDE8104000F0F3B800003C
:1035B00078B590F83E50C26A046B90F83D600023E5
:1035C0000168222E73D1066D0EB9402D6FD0056DA6
:1035D0001DB90569B5F5404F1BD0458D95B3468D96
:1035E000484D012E20D0448D022C4DD00C6844F45F
:1035F00080640C6001684C68240579D5AA4273D0B8
:10360000012A71D0082A6FD0102A6DD0202A6BD0E1
:103610006EE04A698A6900920A6842F480720A6020
:10362000016D491C016578BDAA4214D10A6822F4D3
:1036300080620A6001684A68120504D50A6822F4AB
:10364000806217E0FFE74A698A6900920A6842F4DB
:1036500000720A6050E0082A10D0202A0ED0122CE6
:103660000AD0042A03D0022A01D0102AE6D10A681F
:1036700042F480620A603BE0012ADFD00A6822F44B
:1036800080620A600168DEE7042A11D0022A0FD0A6
:10369000102A0DD00C6844F400640C6001684C6979
:1036A0008C6900940C6824F480640C6008E025E0C8
:1036B0000C6844F480640C6001684C69896900916D
:1036C00001684C68240517D5AA4207D0012A05D005
:1036D000082A03D0102A01D0202A0DD14A6842F4CA
:1036E00080524A6008E0FFE74A6842F480524A602C
:1036F00001684A6989690091036578BD48698869EC
:10370000009078BD0000FFFF90F83E10402910D0D7
:103710000169B1F5804F19D0016DA9B3016D01297F
:1037200010D1416C5FF0F10201F4407142EAD11115
:1037300006E0016D0029416C05D0C9B241F00101DC
:1037400000680161704701F0FE01F9E790F83D1053
:103750002129416C09D0C9B241F00101026811610F
:10376000416B29B1896A49B902E001F0FE01F5E730
:10377000816B0029E6D0896A0029E3D0006841689E
:1037800041F4006141607047FFE7416CF02201F4B1
:103790004071CBE710B590F83D10026D22B3026D79
:1037A000012A2FD0026D022A1DD122292FD0428D4D
:1037B0000AB1212933D0428D002A14D1212912D1F6
:1037C00001684A6822F4E0624A6001680A6842F4CB
:1037D00000720A6000210163202280F83D2080F8F9
:1037E0003E10FEF7F1FA10BDC16C0129816C02D0C8
:1037F000C1F3072108E00268C9B21161016D891C9B
:10380000016510BD816CC9B20268116104E00168F4
:103810000A6842F480720A60016D491CF0E7416A4F
:10382000026809781161416A491C4162418D491E53
:10383000418510BD2DE9F84F0446006889460B9D6F
:1038400001689846174641F480610160206801686C
:1038500041F48071016000954FF0011B0022594630
:1038600020460A9B00F0B0F94FF4007A40B120687E
:103870000068C00501D5C4F840A00320BDE8F88F5A
:10388000216809F0FE0008612B46284920460A9A63
:1038900000F0CEF9F0BB20684169806900902A46AB
:1038A00020460A9900F042FA40B1206C04283AD12F
:1038B0002068016841F40071016034E0FEB2B8F1A3
:1038C000010F09D02168380A08612A4620460A9962
:1038D00000F02CFA0028E8D1206806612A4620462C
:1038E0000A9900F023FA0028DFD12068016841F42A
:1038F0008071016000950022594620460A9B00F025
:1039000063F90028B3D1216809F0FF0040F00100FD
:10391000086100E007E02B46044920460A9A00F0BF
:1039200087F90028AAD00120A8E7000002000100C2
:103930002DE9F843044600680D46DDE90897016863
:103940009846164641F4807101604B4600224FF0C4
:1039500001112046009700F037F948B1206800684F
:10396000C00502D54FF4007020640320BDE8F88341
:10397000216805F0FE0008613B464A46154920468D
:1039800000F056F988B920684169806900903A468C
:103990004946204600F0CAF948B1206C042804D1F9
:1039A0002068016841F4007101600120DEE7F5B292
:1039B000B8F1010F09D02168300A08613A4649463A
:1039C000204600F0B3F90028E7D120680561002007
:1039D000CCE700000200010038B50C4690F83D200D
:1039E00000212825954302680B4605D0516991694D
:1039F000009180F83C3038BD556825F480655560ED
:103A0000E243540700D50121120601D5828900E066
:103A1000028B80F83C3092B2FDF7F3FF38BD000016
:103A2000F8B590F83D6004460068416821F4E06113
:103A300041602068002541690091016841F0010161
:103A400001602068016821F480610160206841689C
:103A5000090520D5474F222E48D02A2E46D0616B2B
:103A6000096849686185618D19B1216C41F00401D3
:103A70002164416821F400614160606BFDF7AEFE96
:103A8000012808D0606B4763606BFDF75BFE10B1E7
:103A9000606B416B8847608D08B320684169C943FA
:103AA000490708D40069616A0870606A401C606256
:103AB000608D401E608520684169C943490608D46D
:103AC0000069616A0870606A401C6062608D401E17
:103AD0006085608D18B1206C40F004002064206C7B
:103AE00000B32046BDE8F840FFF724BBA16B09688E
:103AF00049686185618D19B1216C41F0040121642F
:103B0000416821F400614160A06BFDF767FE012868
:103B1000C1D0A06B4763A06BFDF714FE0028BAD09C
:103B2000A06BB6E72A2E06D12563282084F83D0035
:103B30002046FEF741FB94F83D10202028290DD0A7
:103B4000216B222901D0222E07D1256384F83D0064
:103B500084F83E502046FEF72FFBF8BD0649E1628F
:103B6000256384F83D0084F83E502046FEF728F98E
:103B7000F8BD0000793000080000FFFF70B5164660
:103B80000D4604460DE02046FFF780FB08B10120FA
:103B900070BD681C05D0FDF72DFF801BA84207D81B
:103BA00035B120684069C0434007ECD4002070BDA7
:103BB000002044F8300F20216173A073216941F087
:103BC000200121612073E2E72DE9F0471E4690466F
:103BD0000D460446C1F30747DDF8209008E0701C4D
:103BE00006D0FDF707FFA0EB0900B0420FD876B171
:103BF0002068012F18D0806925EA00000004000C1D
:103C000014D000214145EAD00020BDE8F087002013
:103C100044F8300F20216173A073216941F0200125
:103C2000216120730120F0E74069E5E70121E9E720
:103C30002DE9F0479A4691460E46044600254FF07E
:103C40002008C1F3074725E020684069C0434005CC
:103C500014D42068016841F40071016021686FF498
:103C600080604861256384F83D8084F83E50206C74
:103C700040F00400206484F83C501FE0B9F1FF3F9D
:103C800008D0FDF7B7FEA0EB0A0149450CD8B9F101
:103C9000000F09D02068012F13D0806926EA0000A8
:103CA0000004000C0BD0CFE744F8305F84F80D809F
:103CB000A573206940F02000206125730120BDE834
:103CC000F0874069EAE72DE9F041002590460E466D
:103CD0000446202717E04069C043C0060CD454F8BE
:103CE000301B6FF01000486144F810596777A577D2
:103CF000206A2062257717E0FDF77CFEA0EB080024
:103D0000B04208D83EB120684169C9434906E2D4AF
:103D10000020BDE8F08144F8305F6773A573206927
:103D200040F02000206125730120F2E770B51646AF
:103D30000D4604460DE02046FFF7A8FA08B1012021
:103D400070BD681C05D0FDF755FE801BA84207D842
:103D500035B120684069C0430006ECD4002070BD36
:103D6000002044F8300F20216173A073216941F0D5
:103D7000200121612073E2E710B580216B2000F063
:103D800097F86420FDF72EFD00216B2000F090F8DD
:103D9000032000F058F8002000F050F8322000F026
:103DA0006FF80021382000F083F800216A2000F02D
:103DB0007FF80021232000F07BF88021372000F0DD
:103DC00077F8752000F012F8682801D0012010BDA6
:103DD00001216B2000F06CF800216C2000F068F8E5
:103DE000322000F04DF8002010BD00001FB5642304
:103DF000012203A98DE80E0013460246D021054892
:103E0000FDF7E4FF10B1012004B010BD9DF80C00D7
:103E1000FAE70000B40000203EB54000CDE90032D2
:103E20000A4664240146029401230348FDF7CEFFAD
:103E3000002800D001203EBDB4000020C006010EC5
:103E40001C2000F035B8C006010E1B2000F030B871
:103E5000BC2801D3012110E0622801D302210CE02B
:103E60002A2801D3032108E0142801D3042104E007
:103E70000A2801D3052100E006211A2000F018B815
:103E800010B504464FF47A70844201D9044602E02A
:103E9000042C00D20424B0FBF4F0401EC1B219205F
:103EA00000F006F86008BDE81040FFF7D1BF000041
:103EB00003B583B06423012204A98DE80E001346E4
:103EC0000246D0210348FEF7A9F8002800D00120BF
:103ED00005B000BDB40000203EB54000CDE9003281
:103EE0000A4664240146029401230348FEF796F82B
:103EF000002800D001203EBDB40000202DE9F04193
:103F000086B00024244800940194029403948169AB
:103F100041F010018161816901F010010491816912
:103F200041F020018161816901F0200104918169E2
:103F300041F004018161816901F00401049181690A
:103F400041F0080181618069144F00F008004FF4CE
:103F500000550490002229463846FDF745FDDFF85C
:103F600040800022F0214046FDF73EFD00950226EC
:103F700001250396CDE9015469463846FDF744FC16
:103F8000F020CDE90005CDE9024669464046FDF73F
:103F90003BFC06B0BDE8F08100100240001001407B
:103FA000000801400D4810B50B4901600C49416003
:103FB00000214FF480428160C0E9031241618161B8
:103FC000C1610162FDF738FE002803D0BDE8104052
:103FD000FDF793BB10BD000000540040B40000206A
:103FE000A086010010B58AB0002407941C21684601
:103FF0000894FCF763FA19484FF08041C0E90014B7
:1040000040F2E731C0E9024104618461FEF790FDAE
:1040100008B1FDF772FB079407A910480894FEF752
:10402000EFFB08B1FDF769FB6020CDE900040294C5
:104030000022694609480494FEF717FD08B1FDF710
:104040005CFB042269460548FEF70FFD08B1FDF749
:1040500054FB0248FEF7E4FC0AB010BD0801002042
:104060000C4810B50A4901604FF4E131416000216C
:1040700081600C22C160C0E904128161C161FEF758
:10408000FBFE002803D0BDE81040FDF736BB10BD95
:1040900000380140500100200C4810B50A49016069
:1040A0004FF4E1314160002181600C22C160C0E920
:1040B00004128161C161FEF7DFFE002803D0BDE874
:1040C0001040FDF71ABB10BD0044004094010020D1
:1040D0000C4810B50A4901604FF4E13141600021FC
:1040E00081600C22C160C0E904128161C161FEF7E8
:1040F000C3FE002803D0BDE81040FDF7FEBA10BD96
:1041000000480040D8010020FEE700002DE9704083
:10411000FFF732FE0028FBD112A115A0FCF78CF8A6
:104120004FF40055144C0DE0FDF75EFC6420FDF7E4
:1041300059FB012229462046FDF756FC0FA10CA091
:10414000FCF77AF801F0ACFE00284FF00002294697
:104150002046E9D1FDF748FCBDE870400CA104A061
:10416000FCF76AB84D505520496E69742E2E2E000A
:1041700025730D0A00000000001001404D707536D7
:1041800030353020496E69742057726F6E67210098
:104190004D70753630353020496E6974204F4B2193
:1041A00000000000FEE770477047FEF707B830B523
:1041B0008FB028216846FCF781F914210AA8FCF782
:1041C0007DF902250120049000951020059000241F
:1041D0004FF46010CDE9084007956846FEF76AF98C
:1041E00008B172B6FEE70F20CDE90A054FF48060F2
:1041F000CDE90C4002210AA80E94FEF76FF80028C2
:1042000001D072B6FEE70FB030BD70470148FEF72F
:1042100054BB000008010020F0B50268164B174C93
:10422000174D4FF08047984205D0B84203D0A042C6
:1042300001D0A84203D122F070064A683243984266
:1042400005D0B84203D0A04201D0A84203D122F445
:104250004074CA6822434C6922F080022243026003
:104260008A68C2620A688262984201D10969016360
:1042700001214161F0BD0000002C0140000400401C
:104280000008004010B501F01F030121046A9940A5
:104290008C430462016A9A401143016210BD000020
:1042A00030B5026A22F001020262026A4368846940
:1042B00024F073050C682C4322F002058A682A4317
:1042C0000A4DA8420BD122F00805CA6823F44073B6
:1042D0002A434D6922F004021D438B692B4343603E
:1042E000846149684163026230BD0000002C0140D6
:1042F00030B5026A22F010020262026A43688469E1
:104300000D6824F4E64444EA05248D6822F0200276
:1043100042EA05120B4DA8420ED1CD6822F0800270
:1043200042EA05124D6923F4406343EA85038D692F
:1043300022F0400243EA8503436084614968816357
:10434000026230BD002C014030B5026A22F4807256
:104350000262036A4268C46923F4007324F073059F
:104360000C682C438D6843EA05230C4DA8420ED1FE
:10437000CD6823F4006343EA05234D6922F44052DB
:1043800042EA05128D6923F4806342EA0512426015
:10439000C4614968C163036230BD0000002C014064
:1043A00030B5026A22F480520262046A4268C3692C
:1043B0000D6823F4E64343EA05238D6824F4005492
:1043C00044EA0534064DA84204D14D6922F48042E6
:1043D00042EA85124260C36149680164046230BDEB
:1043E000002C014010B5406A0021C185C184FEF750
:1043F0003CFC10BD0168CA6822F49072CA60016872
:104400004A6922F001024A61016B012904D1016865
:10441000CA6822F01002CA60202180F83E100021F4
:104420000163704708B590F83E10222901D00220A0
:1044300008BD82684FF480539A4201D1016921B1CD
:10444000816A9A421BD04AB10AE00268816A5268C6
:10445000C2F308020A80816A891C08E0026972B10D
:104460000268526802F07F020A70816A491C816208
:10447000C18D491E0904090CC18503D019E00268E9
:104480005268F1E70168CA6822F02002CA60016838
:10449000CA6822F48072CA6001684A6922F0010287
:1044A0004A61202180F83E10016B012903D0FEF7FC
:1044B000C5FD002008BD002101630168CA6822F023
:1044C0001002CA6001680A68D20602D50A68496803
:1044D0000091818DFEF7C8FBEBE7000070B5044644
:1044E00000680169E26821F44051114301612169CA
:1044F000A0680843616908432168CA6841F20C63F7
:104500009A430243CA6020684169A26921F440715C
:10451000114341611E492068884202D1FDF784FFA2
:1045200001E0FDF771FF00EBC00101EB00126068D4
:1045300064218000B2FBF0F3B3FBF1F36FF01806D7
:104540007343B2FBF0F5B2FBF0F605EB83053223C3
:1045500003EB0515B5FBF1F5B6FBF1F605F0F0053B
:1045600005EB0615B2FBF0F6B2FBF0F0B0FBF1F094
:104570006FF01802504306EB800003EB0010B0FB15
:10458000F1F0216800F00F002844886070BD000041
:104590000038014081628285C285002101642222A7
:1045A00080F83E2080F83C100168CA6842F48072AE
:1045B000CA6001684A6942F001024A610068C16844
:1045C00041F02001C1600020704700000148FEF763
:1045D0004DBB0000500100200148FEF747BB000022
:1045E000940100200148FEF741BB0000D8010020E3
:1045F000FEE7490050EAC12018BF04204A0D18BF49
:1046000040F0010040F2FF72B2EB515F08BF40F092
:104610000200012808BF052070470907090E00287D
:1046200004DB00F1E02080F80014704700F00F0078
:1046300000F1E02080F8141D70472DE9F0414F1E75
:1046400000EBC7010446D1E9000115461E4637F0CC
:1046500006020DD02A46334602F04CFD7F1E04EBC5
:10466000C703D3E9002302F03DFB37F00602F1D186
:10467000022F25D0042F13D0062F18BFBDE8F081DC
:104680002A46334602F036FDD4E90A2302F02AFB1B
:104690002A46334602F02EFDD4E9082302F022FB1D
:1046A0002A46334602F026FDD4E9062302F01AFB1F
:1046B0002A46334602F01EFDD4E9042302F012FB21
:1046C0002A46334602F016FDD4E9022302F00AFB23
:1046D0002A46334602F00EFDD4E90023BDE8F0413E
:1046E00002F000BB012203F012BB02F0FBBA002271
:1046F00013461046114602F0A5BB0000024A0020F6
:10470000110703F004BB000001FDFFFF30380A2849
:1047100001D2012070470020704770472DE9FE4FFD
:1047200007460E460025684600F0F0FF00246FF0B3
:104730000F0AE8464FF0010957F8240056F82410F4
:10474000401A00D5404203F041F9514603F00DFBF9
:1047500058F8241011F0FF4F0BD003F039F84FF048
:104760007E5103F02BFA0A4920F00040884205DC14
:1047700007E0084908440849884202D309FA04F0CE
:104780000543641C032CD7DB2846BDE8FE8F0000E0
:10479000295C0F3E666666C19A99D9002DE9F04DF5
:1047A0008D4F21F0004A86B005460C46BA452ADBFB
:1047B000AAEB070028430AD08848824501DC1AD1B9
:1047C000CDB106B02846BDE8F04DFFF78BBF844A57
:1047D000844B284602F08EFC07460E46824A834BE5
:1047E0002846214602F086FC06B03A463346BDE82C
:1047F000F04D02F077BA0120FBF707FF06B0BDE8E5
:10480000F04DFFF774BF7A48824542DABAF1795F1A
:104810000BDA2846FFF7EDFE042808BFFFF76EFF0E
:10482000284606B02146BDE8F08D2A460B461046C4
:1048300002F060FC834602466E480E460B46062197
:104840007844FFF7FAFE5A46334602F053FC80469E
:1048500069488A465A46334604217844FFF7EDFEFC
:104860005A46334602F046FC00223B4602F03AFA32
:1048700002460B464046514602F0E4FA2A462346D9
:1048800002F038FC06B02A462346BDE8F04D02F09F
:1048900029BA284624F0004100223D463B4602F05A
:1048A00027FD4FF0FF3203F032FA06460246534826
:1048B0000F460B4606217844FFF7BFFE32463B46C3
:1048C00002F018FCCDE900014D4832463B46042178
:1048D0007844FFF7B2FE32463B4602F00BFC002262
:1048E0002B4602F0FFF9834602913046394602F02A
:1048F0008BF9804643480D46504517DCDDE9000141
:104900005A46029B02F09EFA42462B4602F0F2FB08
:1049100042462B4602F0E6F9012203F0F8F9304A4C
:10492000304B02F0D7FD304A304B4CE04FF0000ADC
:1049300052460B46404602F0D5F9CDE903105246E7
:104940002B461046194602F0D5FB32463B4602F094
:10495000CFFCDDE9033202F075FA06460F46DDE9C9
:1049600000015A46029B02F06DFA83460091012233
:104970003046394603F0CBF9194A1A4B02F0B8FC1D
:1049800006460F4601224046294603F0C0F95A4622
:10499000009B02F0AFFB32463B4602F09BFD064611
:1049A0000F4601225046294603F0B1F90E4DDFF8BB
:1049B00058802A46434602F09BFC32463B4602F0B2
:1049C00097FC2A46434602F093FC002CD8BF81F0A6
:1049D000004106B0BDE8F08D0000F03F0000F07F20
:1049E000075C143326A6913C182D4454FB21F93F53
:1049F0000000E03F144200002A4200009E410000F7
:104A0000B44100003333EF3FFB21E93F2DE9F84F7C
:104A100004460D4621F0004000917349814211DCAB
:104A20007249884201DC06D12CB120462946BDE8F6
:104A3000F84FFFF757BE6E48002DCCBF6D496E4949
:104A4000BDE8F88F6D49814211DD6D498142D8BFC3
:104A50004FF0FF366DDD20462946FFF7CAFD0428DA
:104A600008BFFFF74BFE20462946BDE8F88F654991
:104A7000654F25F00045814233DD6449814219DDEF
:104A8000002632464FF080432046294602F02AF99C
:104A900080468A4601222046294603F038F9002242
:104AA0003B4602F017FD4246534602F0CBF904465E
:104AB0000D463EE001260022BA463B4620462946E6
:104AC00002F010F980460F46002253462046294640
:104AD00002F000FD42463B4602F0B4F904460D46A2
:104AE00027E04B4981421BDDDFF828A10226002286
:104AF00053462046294602F0FDFA00223B4602F0CA
:104B0000F1F880460F46002253462046294602F01F
:104B1000E1FC42463B4602F095F904460D4608E0AA
:104B2000032622462B4600203B4902F08BF904461F
:104B30000D4622462B461046194602F0DBFA8B46FC
:104B4000824602460B4602F0D5FA07460246334833
:104B500088460B4606217844FFF76FFD52465B46B8
:104B600002F0C8FA82462E488B463A464346052153
:104B70007844FFF762FD3A46434602F0BBFA02462C
:104B80000B46002E504659460CDA02F0ABF822468E
:104B90002B4602F0AFFA01B022462B46BDE8F04F9B
:104BA00002F0A6BB02F09EF822462B4602F0A2FAC3
:104BB0001C4A7A4402EBC603D3E9002302F08AFCC4
:104BC00022462B4602F086FC174A7A4402EBC603C3
:104BD000D3E9002302F08CFB009A002AB8BF81F0D1
:104BE0000041BDE8F88F0000000010440000F07F95
:104BF000182D4454FB21F93FFB21F9BF0000DC3F95
:104C00000000203E0000F33F0000F03F0000E63FC0
:104C1000008003400000F83F0000F0BFB63F0000F6
:104C2000743F0000123F0000DA3E00002DE9F04D15
:104C30009446CCF1000423F000464CEA0404524FA1
:104C400046EAD4749A46884621F00042BC4206D80F
:104C5000454240EA050442EAD474BC4204D9BDE8A6
:104C6000F04D6246FFF741BDAAF14055A5F17F65C1
:104C700055EA0C040BD0022404EAAA74434DDFF871
:104C800010E144EAD87452EA000B04D00CE0BDE80D
:104C9000F04DFFF7BBBE002C14BF012CBDE8F08D1A
:104CA000022C30D0032C32D056EA0C0B0AD0BE4274
:104CB00020D1BA4209D126F0804622F08042334604
:104CC000114617E000291ADB25E0DFF8C8B0FB44E5
:104CD000002C04BFDBE90001BDE8F08D012C02BF10
:104CE000DBE9000181F00041BDE8F08D022C0AD023
:104CF000032C0CD0BA4212D1B8F1000F0BDA2348C2
:104D00002549BDE8F08D28462449BDE8F08D2846A8
:104D10007146BDE8F08D1D482149BDE8F08D921B1C
:104D200012153C2AC4BF19481D490EDCBAF1000F08
:104D3000BEBF12F13C0F0020014606DB624602F0C6
:104D400081F821F00041FFF761FE002C08BFBDE8AB
:104D5000F08D012C04BF81F00041BDE8F08D114AB7
:104D6000114B022C07D002F0B5FB2A46BDE8F04DEE
:104D70000A4B02F0AFBB02F0ADFB2A46BDE8F04D96
:104D8000064B02F0B5BA00000000F07F182D445425
:104D9000FB2109C06E3E0000FB21F9BFFB21094049
:104DA000FB21F93F075C143326A6A13C4FF080425B
:104DB0005063916370474FF08040002141638163ED
:104DC000704708B560B120208DF8000028208DF8CC
:104DD000010030208DF8020038208DF8030004E037
:104DE000A32204216846FBF761FB6A46042140F6D2
:104DF0009E2001F073FE01F031FB08BD3EB5044674
:104E000002208DF80000CA208DF80100E3208DF803
:104E1000020009208DF803006A460421682001F091
:104E20005DFEA3208DF80000610609D5C0218DF834
:104E30000110C8218DF80210C2218DF8031005E081
:104E40008DF801008DF802008DF8030014F4C07F86
:104E500009D0C4218DF80410CC218DF80510C6218D
:104E60008DF8061005E08DF804008DF805008DF82A
:104E700006008DF808008DF807008DF809006A46D5
:104E80000A2140F6A72001F029FEA0074FF0D8051F
:104E900003D020208DF8000001E08DF800506A4614
:104EA000012140F6B62001F019FEA00601D501202F
:104EB00000E0002000F08EF814F4C07F1ED0E00562
:104EC0000AD5B2208DF800008B208DF80100B620A5
:104ED0008DF802009B2009E0B0208DF800008020B2
:104EE0008DF80100B4208DF8020090208DF80300A9
:104EF0006A46042140F6A22001F0F0FDE1074FF4DC
:104F00000B6022D0F8218DF800106A46012101F0D3
:104F1000E5FDFA21072000F039FB072000F004FB33
:104F2000012000F021FB642000F0C4FB4FF4FA7074
:104F300000F0D0FBC821254800F0BEFA282000F080
:104F4000D3FA0A2000F0E0FA05E08DF800506A4636
:104F5000012101F0C3FDA00703D5D9208DF8000081
:104F600001E08DF800506A46012140F23D7001F0E9
:104F7000B5FD600701D5012000E0002000F048F8F1
:104F8000E00601D5012000E00020FFF71AFF104DD8
:104F900044F00800688101F061FA0020A8736006FF
:104FA00001D50620A87314F4C07F02D0A87B801D11
:104FB000A87314F0140F02D0A87B1030A873A007B8
:104FC00002D0A87B001DA87300203EBD09E3CA02E1
:104FD0001C0200200EB54FF4976310B106A107C95B
:104FE00001E008A207CA8DE807006A4609211846B1
:104FF00001F074FD0EBD0000B8AAB38DB4980D3554
:105000005D000000B8AAAAAAB088C3C5C700000006
:1050100008B560B1C0208DF80000C2208DF80100F5
:10502000C4208DF80200C6208DF8030004E08B2216
:1050300004216846FBF73AFA6A46042140F69820B4
:1050400001F04CFD01F00AFA08BD0000C8234FF43E
:105050008062024940F6F63001F0E2B8507E000866
:105060002DE9FF4F89B01746DDE9165200244C4E5A
:10507000884681462C80A246B07B694601F07CF9C7
:105080004FF0FF3B18B158460DB0BDE8F08F708966
:1050900010F0140F3CD0009909BA21F0FF039DF8DD
:1050A00003100B433B6001991B1409BA21F0FF0266
:1050B0009DF807105B430A437A6002999DF80B4004
:1050C00009BA21F0FF012143B960039C091424BAF5
:1050D00024F0FF0C9DF80F4012144CEA040CC7F8A2
:1050E0000CC04FEA2C47494302FB023207FB071171
:1050F00011441024A1F17061B1F1007F04D901F0D5
:10510000ADF9A5F800A0BEE7298841F48071298097
:105110004206694611D50A19A41D13885BBAA8F87E
:10512000003053885BBAA8F80230928852BAA8F8C7
:1051300004202A8842F008022A8010F4C07F11D08F
:105140000A19A41D13885BBAA9F8003053885BBA0A
:10515000A9F80230928852BAA9F804202A8842F0AD
:1051600070022A80800716D00C44E07800F0C00559
:1051700000F03F016078C00706D0C80801F00701C1
:105180003268491C02B190476078000703D5716806
:1051900009B1A80988470C9800F078FD002073E752
:1051A0001C0200202DE9FF41044603A800F0EEFE9A
:1051B000BDF80C00410CC3032F48028902F0030024
:1051C000550754F8200000D54042C2F3C1059606A9
:1051D00054F8255000D56D42C2F38116D20554F81B
:1051E000264000D56442A0FB0367C21702FB03728E
:1051F00000FB0120820042EA9670A5FB0367EA17D4
:1052000002FB037205FB0122950045EA9672A4FB9E
:105210000367E51705FB037304FB01318B0043EAC9
:105220009671030E8DF80030030C8DF80130030ADF
:105230008DF802308DF80300100E8DF80400100C6C
:105240008DF80500100A8DF80600080E8DF808008C
:10525000080C8DF80900080A8DF80A008DF807205F
:105260008DF80B106A460C214FF4257001F036FCC6
:1052700004B0BDE8F08100001C02002030B50446F7
:1052800013A285B007CA8DE807004FF0FF35C82C80
:1052900016D8C820B0FBF4F1491E080A8DF80C009E
:1052A0008DF80D1003AA022140F2162001F016FC21
:1052B00030B96A460C2140F6C12001F00FFC10B154
:1052C000284605B030BD054884810020F9E700007C
:1052D000FEF2ABC4AAF1DFDFBBAFDFDF1C020020B0
:1052E000F8B53049098901F0030250F822404A0715
:1052F00000D56442C1F3C1028B0650F8222000D5CC
:105300005242C1F3811350F82330C80500D55B42E7
:10531000254984FB0140850045EA947082FB0142E7
:10532000A40F44EA820483FB0121950F45EA81051D
:10533000010E8DF80010010C8DF80110010A8DF896
:1053400002108DF803006A4604214FF4747001F0D6
:10535000C5FB4FF0FF3688B9200E8DF80000200CF9
:105360008DF80100200A8DF802008DF803406A468E
:1053700004214FF4757001F0B1FB08B13046F8BD5F
:10538000280E8DF80000280C8DF80100280A8DF8F1
:1053900002008DF803506A4604214FF4767001F044
:1053A0009DFBF8BD1C02002009E3CA022DE9FF4164
:1053B00004463CA004F00303006802903AA0006891
:1053C00003903AA006683AA0056802A8C15C8DF86F
:1053D0000010C4F3C101425C8DF80120C4F38112B6
:1053E000805C8DF8020003A8C35C8DF80430415C3A
:1053F0008DF80510805C8DF806006A46032140F2A6
:10540000264001F06BFB4FF0FF37E0BB01AA032100
:1054100040F22A4001F062FBA8BBCDE900656007BD
:105420000BD59DF8000040F001008DF800009DF8BC
:10543000040040F001008DF80400A0060BD59DF893
:10544000010040F001008DF801009DF8050040F0DA
:1054500001008DF80500E0050BD59DF8020040F035
:1054600001008DF802009DF8060040F001008DF863
:1054700006006A4603214FF4886001F02FFB10B943
:1054800001AA032100E004E040F2314001F026FBD4
:1054900018B1384604B0BDE8F08106480481002008
:1054A000F8E700004CCD6C000CC92C003656760095
:1054B000264666001C0200204FF47A7290FBF2F040
:1054C00008B54843010E8DF80010010C8DF801104D
:1054D000010A8DF802108DF803006A4604214FF48A
:1054E000AE7001F0FBFA08BD0521B0FBF1F008B584
:1054F000010A8DF800108DF801006A4602214FF470
:10550000AD7001F0EBFA08BD0521B0FBF1F008B574
:10551000010A8DF800108DF801006A4602214FF44F
:10552000AC7001F0DBFA08BD08B500218DF8001061
:10553000C10702D030218DF80010810705D59DF8F4
:10554000001041F00C018DF80010400705D59DF8C2
:10555000000040F003008DF800006A4601214FF47E
:10556000A47001F0BBFA08BD08B560B1042800D9E9
:105570000420401E8DF800006A46012140F24F10C1
:1055800001F0ACFA08BD0120F3E700002DE9FC4171
:10559000054640074FF0FF367CD0B1F5C86F79D88B
:1055A000084602F02BFA3E4902F012F9074601A81C
:1055B00000F0CEFC9DF80400022806D004280DD08F
:1055C00008282ED0102865D134E00E21384602F08C
:1055D000CCFB02F0DBF984B2324907E00D213846FA
:1055E00002F0C3FB02F0D2F92F4984B2384602F030
:1055F00019FA02F0CBF9210A8DF8001080B28DF86B
:105600000140010A8DF802108DF80300E8076C468E
:1056100020D0224602214FF4EA7001F05FFAC8BBA5
:1056200011E00C21384602F0A0FB02F0AFF984B281
:105630001E49DBE70B21384602F097FB02F0A6F982
:1056400084B21B49D2E7A21C02214FF4927001F0F0
:1056500045FAF8B9A8070DD56A4602214FF4EC7057
:1056600001F03CFAB0B9A21C02214FF4947001F091
:1056700035FA78B9680710D56A4602214FF4EE7002
:1056800001F02CFA30B9A21C02214FF4967001F0FF
:1056900025FA10B13046BDE8FC810020FBE7000090
:1056A00000004843000040460000C045000040455F
:1056B0000000C0440521B0FBF1F008B5010A8DF8E7
:1056C00000108DF801006A4602214FF4EF7001F0DE
:1056D00005FA08BD0521B0FBF1F008B5010A8DF807
:1056E00000108DF801006A4602214FF4ED7001F0C0
:1056F000F5F908BD04490A681206FCD5024AC1B290
:10570000121D116070470000003801402DE9FE4372
:105710000646264801AB042240680D210078FEF7BA
:105720007BFB10B10720BDE8FE839DF804101C2010
:1057300000EAD1029DF80710DFF87490C1F301135D
:105740001A438DF800209DF80520C1F3810300EA7B
:10575000D2021A438DF801209DF8062001F00301C2
:1057600000EAD20008430024124F8DF80200A04640
:105770006D46285D10B146F824900AE046F8248072
:105780000DE000BF56F82400394602F04BF946F808
:105790002400285D401E10F0FF002855F2D1641C43
:1057A000E4B2032CE5D30020BDE700004800002050
:1057B0007B14AE3E1D5A843F2DE9FE4F0546012065
:1057C000C14E8DF800004FF000088DF80180306860
:1057D0000C461746817C70686B4602220078FEF703
:1057E0007BFB4FF0FF3A00287AD1C820FBF7FAFF85
:1057F0008DF8008030686B460122C17B70680078AC
:10580000FEF76AFB0028EFD130686B460122417930
:1058100070680078FEF760FB0028E5D130686B46C1
:105820000122817C70680078FEF756FB0028DBD1EE
:1058300030686B460122C17D70680078FEF74CFB32
:105840000028D1D130686B46012201797068007858
:10585000FEF742FB0028C7D14FF00C098DF80090ED
:1058600030686B460122017970680078FEF734FBDE
:10587000002835D10F20FBF7B5FFB06A6B46012237
:10588000407A8DF800003068817870680078FEF703
:1058900023FB002824D1B06A6B460122007A8DF8E0
:1058A00000003068417870680078FEF715FB00282A
:1058B00073D1B06A807A0FB140F0E0008DF800003B
:1058C00030686B460122817970680078FEF704FB2E
:1058D000002862D12FB1B06AC07A40F0E00001E048
:1058E0004AE018208DF8000030686B460122C1792B
:1058F00070680078FEF7F0FAF0BB17B1C820FBF72C
:1059000071FF40208DF8000030686B46012201795C
:1059100070680078FEF7E0FA70BB78208DF8000020
:1059200030686B460122417970680078FEF7D4FA3E
:1059300010BB3220FBF756FF8DF8008030684746D9
:105940006B464179706801220078FEF7C5FA98B974
:1059500031687068B046897A00786B460222FEF79B
:105960005BFA48B9BDF80000AF6040BAB0FBF9F08F
:105970006F60C6B22F6000E00FE0A760676027602D
:10598000002739E0D8F80010D8F804006B46C97A2F
:1059900000780C22FEF740FA10B15046BDE8FE8FA9
:1059A000BDF80000236840BA02B2BDF80200BDF89D
:1059B00004101A44226040BA626800B21044606069
:1059C00049BAA06809B20844A060BDF806002B6877
:1059D00040BA02B2BDF808001A4440BA01B2BDF89C
:1059E0000A002A606A6840BA11446960A96800B276
:1059F00008447F1CFFB2A860B742C3D32868832243
:105A0000C117090441EA104100040023FAF7EFFB33
:105A100032460023FAF7EBFB286068688322C1173F
:105A2000090441EA104100040023FAF7E0FB324682
:105A30000023FAF7DCFB6860A8688322C117090419
:105A400041EA104100040023FAF7D1FB324600235B
:105A5000FAF7CDFBA86020684FF40065C117090470
:105A600041EA104100042A460023FAF7C0FB3246FF
:105A70000023FAF7BCFB206060682A46C1170904BE
:105A800041EA104100040023FAF7B1FB324600233B
:105A9000FAF7ADFB6060A0682A46C117090441EA25
:105AA000104100040023FAF7A2FB32460023FAF764
:105AB0009EFBA060002802DDA0F5803001E000F52B
:105AC0008030A060002069E74800002010B5054A3A
:105AD000111F081F00F016F90028F8D101480838F6
