:020000040800F2
:1000000098080020AD010008C9480008AD36000876
:1000100021480008FF1500089D4E00080000000060
:100020000000000000000000000000007B49000804
:10003000911A000800000000CB4800087D49000824
:10004000C7010008C7010008C7010008C701000870
:10005000C701000879490008C7010008C701000866
:10006000C7010008C7010008C7010008C701000850
:10007000C7010008C7010008C7010008C701000840
:10008000C7010008C7010008C7010008C701000830
:10009000C7010008C7010008C7010008C701000820
:1000A000C7010008C7010008C7010008C701000810
:1000B000E1490008ED490008C7010008B136000811
:1000C000C7010008C7010008C7010008C7010008F0
:1000D000C7010008794E0008854E0008914E0008BF
:1000E000C7010008C7010008C701000800F002F8B6
:1000F00000F04DF80AA090E8000C82448344AAF175
:100100000107DA4501D100F042F8AFF2090EBAE872
:100110000F0013F0010F18BFFB1A43F0010318473B
:1001200084940000A4940000103A24BF78C878C1D9
:10013000FAD8520724BF30C830C144BF04680C60ED
:10014000704700000023002400250026103A28BF35
:1001500078C1FBD8520728BF30C148BF0B60704739
:10016000662908F05C82642900F09C80732900F005
:10017000CA84002070471FB500F0FEFC0400002078
:10018000002107F023FAE0601FBD10B510BD00F09C
:100190000FFE1146FFF7EFFF06F0AEF900F02DFE5F
:1001A00003B4FFF7F2FF03BC04F00DFF09488047DA
:1001B00009480047FEE7FEE7FEE7FEE7FEE7FEE749
:1001C000FEE7FEE7FEE7FEE704480549054A064B61
:1001D00070470000DD490008ED000008980200208B
:1001E000980800209804002098040020704710B55B
:1001F0004C1084EA530404D54042C1F1000138BFD9
:10020000491E1B4204D55242C3F1000338BF5B1E96
:1002100000F07FF914F0804F04D04042C1F100019A
:1002200038BF491E14F0004F04D05242C3F10003FE
:1002300038BF5B1E10BD00000FB4044910B503AAFF
:10024000029800F065FC10BC5DF814FB140000205F
:1002500070B50C460546012A05D02878800600D5E1
:10026000EA69002302E0012305E05B1C934202D20D
:10027000E05C0028F9D1A869E618C01AA861286ACC
:10028000184428622846AFF3008004E0D5E9012134
:1002900014F8010B9047B442F8D32846AFF300801E
:1002A00070BD00002DE9F041064600241068752954
:1002B000314616A510D0AFF30080002802DA404284
:1002C00013A507E031688A0701D512A502E04907A6
:1002D00004D511A5012401E0AFF3008000210A221A
:1002E00006F1240709E0B0FBF2FCB0FBF2F302FBDD
:1002F0001C00303078541846491C0028F3D123469E
:100300002A463046BDE8F04100F085B90000000003
:100310002D0000002B000000200000002DE9F05F00
:10032000894604464FF0000ADFF824B1FB44C0F8C8
:1003300020A02046E168884700287DD0252806D0E7
:10034000D4E901219047206A401C2062F1E7002592
:100350005F462046E16888472028064607DB312EA5
:1003600005D2B81910F8200C08B10543F1E7A80729
:1003700001D525F00405C4F81CA00027C4F818A076
:100380002A2E09D0304604F017FE38B304EB870854
:10039000303EC8F8186019E059F8041B204604EBF9
:1003A00087029161E1688847012F064618D1E0690C
:1003B000002820DA25F020051DE0D8F8180000EB11
:1003C000800006EB40003038C8F818002046E1688D
:1003D0008847064604F0F0FD0028EED1012F0AD030
:1003E0002E2E08D12046E16888477F1C0646022F42
:1003F00045F02005C4DBA069002803DA404245F03F
:100400000105A061E80701D025F01005A6B1A6F10D
:100410004100192802D8203645F400654A46314685
:10042000204625604D46FFF79BFE60B1012807D0AE
:10043000ED1D25F0070000E007E000F1080978E76E
:1004400005F1040975E730467AE7206ABDE8F09FB8
:100450008E90000040EA010310B59B070FD1042ADB
:100460000DD310C808C9121F9C42F8D020BA19BA7F
:10047000884201D9012010BD4FF0FF3010BD1AB1E4
:10048000D30703D0521C07E0002010BD10F8013B39
:1004900011F8014B1B1B07D110F8013B11F8014B60
:1004A0001B1B01D1921EF1D1184610BD02F0FF03B3
:1004B00043EA032242EA024200F03EBB4FF0000250
:1004C00000B5134694469646203922BFA0E80C504A
:1004D000A0E80C50B1F12001BFF4F7AF090728BF25
:1004E000A0E80C5048BF0CC05DF804EB890028BFA1
:1004F00040F8042B08BF704748BF20F8022B11F0CA
:10050000804F18BF00F8012B704770477047704745
:10051000704753EA020C00F069802DE9F04B4FF070
:100520000006002B1FBFB3FA83F503FA05F424FA83
:1005300005F65E4012BF1643B2FA82F502FA05F4E0
:10054000C5F120051EBF22FA05FC44EA0C04203543
:1005500056EA044C4FEA144418BF641C4FF00008DC
:100560004FF00009904271EB030C39D3002919BFF9
:10057000B1FA81F701FA07F6B0FA80F700FA07F648
:10058000C7F120071EBF20FA07FC46EA0C062037F9
:10059000B6FBF4FCA7EB0507103F07F01F0BCBF1F0
:1005A00020060CFA0BFB2CFA06F644BFB3460026D5
:1005B000202FA4BF5E464FF0000B5BEA060C08BF7D
:1005C0004FF0010B19EB0B09ABFB027C48EB060863
:1005D000C01B06FB02CC0BFB03CC71EB0C01C1E78B
:1005E0000B46024641464846BDE8F08B13B54FF036
:1005F00000004FF00001AFF30080BDE81C407047E1
:1006000010B500F0BDFA006810BD10B5044600F04A
:10061000B7FA046010BD2DE9F0470D4699469246A1
:10062000044600F124080168880604D5E06921F039
:100630001001216000E00120A84201DD471B00E01D
:100640000027A1697A1902EB0900081AA061207835
:10065000C00602D42046AFF30080002608E0D4E9AB
:1006600001211AF806009047206A401C761C20627F
:100670004E45F4DB2078C0060AD52046AFF3008053
:1006800006E0D4E9012130209047206A401C206216
:10069000381EA7F10107F4DC07E0D4E9012118F8BE
:1006A00005009047206A401C2062281EA5F1010524
:1006B000F3DC2046AFF300802078000602D502204C
:1006C000BDE8F0870120FBE770472DE9FF4F0C469E
:1006D0001E464FF0FF378BB0D2E90001DDF8608095
:1006E0000A908A46C1F30A5505B93D4600210846DD
:1006F0004FF00000BAF1000F00F4400005DA00EB03
:1007000080004FF4400101EA50004FEA9059B9F1DE
:10071000010F00DDB9460A9850EA4A000ED044F6AF
:100720001050A5F2FF3545432F14B8F1000F1ED02D
:100730007542291E1EDDC9F100021CE0B8F1010F4F
:100740004FF0000001D0302103E0F24305E02154D6
:10075000401CB042FBDB30460022002121540B99A3
:10076000C1F80880C1E900200FB0BDE8F08FBD1BC3
:100770006D1CDEE74A4600DA694206A800F0A2FADC
:1007800006AB93E8070003AB83E8070050460A99DD
:1007900000F07AFB8DE80700A0F500501F380090AC
:1007A0000398002D09DD42F21F014A46084403A9BF
:1007B0000390684600F0D9FD08E0A0F500504A46D5
:1007C0001F3803A90390684600F0E3FD8DE8070099
:1007D0000004000C03D04FF0FF30410800E0104649
:1007E000B8F1000F03D00022009215461EE0751EDE
:1007F00005D400F0C9F9303262556D1EF9D5B34603
:100800000122084302D000227F1C04E02078302817
:1008100001D100227F1E002A099786D01DE0112DEC
:1008200007DA00F0B1F9303262556D1C50EA01026E
:10083000F5D1084302D00098C8B10EE00021681E2F
:1008400005E0235C625C63542254401E491C8142D3
:10085000F7DBAB46A81B401E0990002004F80B00F4
:100860000B98099AC0F80880C0E9002B7CE7112694
:100870004FF0000859E72DE9F04F88460446D21D95
:1008800022F0070191B0D1E90001CDE90A0104F09D
:1008900006FB02460B98C00F01D02D2007E0206810
:1008A000810701D52B2002E0202101EAC000032AA4
:1008B000099001D0072A05DB03464146204600F097
:1008C000C1F90BE12078800601D5E06900E006203F
:1008D000B8F1650F814606D0B8F1660F18D0B8F1AF
:1008E000670F70D131E00020B9F1110F009001DBEA
:1008F000112301E009F101030AAA01A90CA8FFF7DD
:10090000E4FEDDE90C70002609F10105834647E0AD
:1009100001204B4600904FF000470AAA01A90CA8FD
:10092000FFF7D3FEDDE90DB00C995D46002610B946
:1009300009F101000D18B9EB050003D4C0F1FF3631
:1009400009F10105A5EB09002BE0B9F1010F01DA6E
:100950004FF001090020B9F1110F0090484601DD68
:10096000112300E003460AAA01A90CA8FFF7ADFE77
:10097000DDE90C704D4600268346207800070AD436
:10098000AB4500DA5D4601A8012D04DD411911F8DF
:10099000011C302907D04F4502DA17F1040F04DAA1
:1009A000012082460FE06D1EEEE7002F02DCED1BFA
:1009B0003E4403E0781CA84200DD7D1CB81B00F11A
:1009C000010A4FF000472078000703D4AA4501DB55
:1009D0004FF0FF3A0021B7F1004F0DF143088DF8B9
:1009E000431024D002202B23002F01DA7F422D2335
:1009F0000A21021EA0F1010000DC5FB197FBF1FCAF
:100A000097FBF1F201FB1C7C17460CF1300C08F847
:100A100001CDEEE7A8F1010003702188090501D599
:100A2000452100E06521A0F1010800F8011C0998AA
:100A30000FA9A1EB0807FF1D00B10120411901EB2F
:100A4000EA70A1693844081A401EA0612078C006E7
:100A500002D42046AFF30080099828B1D4E90121DF
:100A60009047206A401C20622078C00622D520468C
:100A7000AFF300801EE0002E04DBB34502DD01A8C9
:100A8000805D00E03020D4E901219047206A401CBD
:100A90002062761CAAF101005FEA000A0AD100F088
:100AA0006BF8C0680168405CD4E901219047206A76
:100AB000401C2062281EA5F10105DCDC07E0D4E91A
:100AC000012118F8010B9047206A401C2062381E53
:100AD000A7F10107F3DC2046AFF30080032011B03B
:100AE00043E610B5436913B1AFF3008001E0FFF7AF
:100AF000AFFB012010BD127800F124010A70002222
:100B00004A700122EDE711684FF0FF32E9E700007B
:100B1000074B70B50D467B4400F081F8044628462B
:100B200000F03EF910B14FF0FF3070BD204670BDAF
:100B3000AB5400004FF000020429C0F0128010F006
:100B4000030C3FF4BDACCCF1040CBCF1020F18BF98
:100B500000F8012BA8BF20F8022BA1EB0C01FFF736
:100B6000AFBC5FEAC17C24BF00F8012B00F8012B69
:100B700048BF00F8012B704700487047540200201E
:100B8000004870473402002030B5B0F10A024FEA45
:100B9000900E71F100034EEA817EB0EB0E0061EB26
:100BA00091014FEA101E4EEA017E10EB0E0041EB60
:100BB00011114FEA102E4EEA016E10EB0E0041EBC0
:100BC00011214FEA104E4EEA014E10EB0E0041EBA0
:100BD0001141401841F100014FEAD00040EA417054
:100BE0004FEAD10110EB80054FEA810444EA90748A
:100BF00044EB01046D1944EB0404521BA3414FF074
:100C0000000348BF0A3200D530BD401C41F100014D
:100C100030BD000001694A1C02610878704700B5C8
:100C20008FB0CDE901310021059105497944CDE925
:100C3000031011466846FFF771FB0FB000BD0000BE
:100C4000E5FFFFFF2DE9F0411F460446032601683A
:100C5000072A01F4006004DB08B116A505E016A51B
:100C600003E008B115A500E015A521F010002060F3
:100C7000A069C01EA0610FB1401EA0612046AFF365
:100C800000804FB1D4E9012138469047206A401CCA
:100C90002062C01C206206E0206AFAE7D4E9012144
:100CA00015F8010B9047761EF8D22046AFF300806E
:100CB000BDE8F0814E414E006E616E00494E460027
:100CC000696E66002DE9F047814616468AB03348C2
:100CD00078440DC88DE80D0030487844801C03AC82
:100CE0000DC884E80D0041F69B300844372190FB85
:100CF000F1F290FBF1F5A5F1800501FB12041B3C1C
:100D000002D56442012000E00020DFF890A0804678
:100D10000027FA44AAF1BE0A0DE0E00709D03246E6
:100D2000684607EB47010AEB810100F032FB8DE8D2
:100D3000070064107F1C002CEFD1184F7F44AC3F9C
:100D400018E0E80714D007EB04100DF1180A90E83A
:100D50000E008AE80E00C068F04201D19819089090
:100D6000324606A903A800F014FB03AB83E8070092
:100D70006D10641C002DE4D132466946B8F1000FB5
:100D800003A802D000F0F1FA01E000F002FBC9E98B
:100D90000001C9F808200AB0BDE8F08768880000A3
:100DA000007B00F08000704700487047340200204C
:100DB0007546FFF7F9FFAE4605006946534620F039
:100DC0000700854618B020B5FFF7FEF9BDE82040C2
:100DD0004FF000064FF000074FF000084FF0000BF7
:100DE00021F00701AC46ACE8C009ACE8C009ACE8AA
:100DF000C009ACE8C0098D4670470446AFF30080D7
:100E00002046FFF7CDF900004FF0013C50F8042BCD
:100E100051F8043B9A4221D1A2EB0C03934313EA0D
:100E2000CC1317D150F8042B51F8043B9A4215D13A
:100E3000A2EB0C03934313EACC130BD150F8042B11
:100E400051F8043B9A4209D1A2EB0C03934313EAF5
:100E5000CC13DBD04FF00000704700BFD01A01BAAE
:100E6000B1FA81F101F0180122FA01F0CB40C1F191
:100E70002001DBB2C0B2C01A2CFA01F3D11A91439F
:100E800011EAC311E6D170475FEA400C08BF91F048
:100E9000000F4FEA8C234FEAC12243EA51514FEA37
:100EA0001C5018BF00F5F0404FEA300018BF41F069
:100EB00000415FEA6C5C00F02980BCF1FF3F08BF95
:100EC00040F080407047130C06BF12044FF0100C26
:100ED0004FF0000C130E04BF12020CF1080C130F9C
:100EE00004BF12010CF1040C930F04BF92000CF12B
:100EF000020CD30F04BF52000CF1010C11464FF04D
:100F00000002A0F11F00A0EB0C00704711F0004F91
:100F100008BF704731F000413FF4D5AF0B0C06BF5E
:100F200009044FF0100C4FF0000C0B0E04BF090227
:100F30000CF1080C0B0F04BF09010CF1040C8B0F12
:100F400004BF89000CF1020CCB0F04BF49000CF167
:100F5000010CCCF12003A0EB0C0022FA03F302FAFF
:100F60000CF241EA030100F10100704720F07F4CD0
:100F700080EA030023F07F47ACEB070303F57C53C3
:100F800000F0004003F1FF032DE980494FEA154BC3
:100F900009B44FEA144325EA0B4E24EA03480FF242
:100FA000042606EB132749083E785FEA320203FB6A
:100FB0000667C7F5000707FB06F64FEA54374FEA06
:100FC000D64606F1020607FB066CCCF1005C4FEA40
:100FD0001C472CEA074C07FB06F40CFB06F504EB58
:100FE00015464FEA961634BF00204FF000404FEAF6
:100FF000D13706FB07FC4FEA1C4C0CFB0BF7D21B4E
:1010000003FB0CF761EB07010CFB0EF7B0EB07409D
:1010100072EB17420CFB08F734BFA2EB0742B2EBAE
:10102000074261EB17414FEA0C444FEA910706FB78
:1010300007FC4FEA1C4C0CFB0BF7B0EBC74072EB04
:10104000573203FB0CF734BFA2EBC742B2EBC742E7
:1010500061EB57310CFB0EF7B0EBC70072EB577228
:101060000CFB08F734BFA2EBC702B2EBC70261EB7F
:101070005771039F4FEA816141EA921104EBCC045E
:101080004FEAD1374FEA826206FB07FC42EA901230
:101090004FEA80604FEA1C4C0CFB0BF7D21B03FBA2
:1010A0000CF761EB07010CFB0EF7B0EB074072EB9E
:1010B00017420CFB08F734BFA2EB0742B2EB074222
:1010C00061EB17414FEA8C554FEA910704EB9C24E2
:1010D00006FB07FC4FEA1C4C0CFB0BF7B0EBC740C0
:1010E00072EB573203FB0CF734BFA2EBC742B2EBF3
:1010F000C74261EB57310CFB0EF7B0EBC70072EB48
:1011000057720CFB08F734BFA2EBC702B2EBC70261
:1011100061EB577115EB4C254FEA816141EA921161
:101120004FEA82624FEAD13742EA901206FB07FC8F
:1011300044F100044FEA80604FEA1C4C0CFB0BF7B3
:10114000D21B03FB0CF761EB07010CFB0EF7B0EBB6
:10115000074072EB17420CFB08F734BFA2EB0742C3
:10116000B2EB074261EB174115EB1C154FEA8131D9
:1011700041EA92414FEA823242EA90424FEA80309D
:101180004FEA0C7644F1000448EA03434EEA0B4868
:101190004FF0000EB2EB080C71EB030724BF624660
:1011A00039464EEB0E0E4FF0000B001852414941EC
:1011B0004BEB0B0BB2EB080C71EB03077BF1000B55
:1011C00024BF624639464EEB0E0E4FF0000B00185E
:1011D000524149414BEB0B0BB2EB080C71EB03078F
:1011E0007BF1000B24BF624639464EEB0E0E51EAEE
:1011F000020718BF46F0010616EB0E7655F1000205
:1012000054F1000103D5BDE88901BDE80088BDE8BF
:101210008901BDE80048B619524141EB0101A3F133
:101220000103704780807F7E7D7C7B7A797877763A
:1012300076757473727171706F6E6E6D6C6C6B6AB3
:101240006A69686867666665646463636261616051
:10125000605F5F5E5E5D5D5C5C5B5B5A5A595958CE
:101260005857575656555555545453535252525138
:10127000515050504F4F4F4E4E4D4D4D4C4C4C4B8E
:101280004B4B4A4A4A4949494848484747474746D5
:101290004646454545444444444343434342424211
:1012A00042414141002B26D4770021D01CB54FEAA2
:1012B000370703B44FF010004FF010014FF000005B
:1012C0000FBCBDE810400BF1010BBBF1010F08BFD3
:1012D0005FEA170722BF12F1010211F101014FF07D
:1012E000004143F1000300F0004043EA0000704772
:1012F000F9D35708DAE746EA064613F1400F4FEAFA
:1013000016461FDD13F1200FDFBF16430A460021EA
:1013100020335B42C8D0C3F1200746EA064602FAF2
:1013200007F74FEA164646EA0706C3F1200722FAF6
:1013300003F201FA07F721FA03F14FF0000342EA42
:101340000702B1E746EA020646EA06464FEA1646B3
:1013500046EA0106BCBF46EA0646360C4FF00003DB
:101360004FF000024FF000019EE72DE9C048934680
:1013700030B491E8380007C831EA400C48BF34EA7D
:10138000430C03D5FFF7F2FDFFF78CFFF0BCBDE87F
:1013900000882DE9C048934630B491E8380007C86A
:1013A00010F0804F08BF13F0804F03D100F005F814
:1013B000FFF778FFF0BCBDE8008820F07F4780EAA7
:1013C000030023F07F4C07EB0C03A3F57C5300F0E4
:1013D0000040A3F1FE0392F0000F00F0B38095F0FF
:1013E000000F00F077802DE901494FEA11404FEAE4
:1013F000144621EA004800FB06FC24EA064708FBE5
:1014000006F607FB08F800FB07F718EB06484CEB5D
:10141000164C4FEA124B18EB07484FEA15464CEBB7
:10142000174022EA0B4E0BFB06FC25EA06470EFB93
:1014300006F607FB0EFE0BFB07F71EEB064E4CEB0A
:10144000164C4FF000061EEB074E4CEB174B18EBFB
:101450000B0840F1000018EB0E0B58EB000840F1B0
:1014600000008F1A4FF000013CBFC943661B14BF38
:10147000B5EB040C00213CBFC943F61B4FEA1744EF
:101480004EEA8E0E27EA04454FEA1C4704FB07622A
:101490002CEA074C05FB07F70CFB05F604FB0CFCDC
:1014A00016EB074642EB174216EB0C4642EB1C428A
:1014B0001BEB060658EB0202414146EA9E0601D5A7
:1014C000BDE80189B619524141EB0101A3F10103C5
:1014D000BDE801894FEA14454FEA114724EA054661
:1014E00021EA074C05FB07F406FB07F70CFB06F1A6
:1014F00005FB0CFC11EB074144EB17444FEA124784
:1015000011EB0C4144EB1C4422EA074C05FB07F2AB
:1015100006FB07F70CFB06F605FB0CFC16EB074673
:1015200042EB174216EB0C4642EB1C456A1854F18D
:10153000000148BF7047B619524141EB0101A3F1C8
:101540000103704795F0000F37D04FEA11424FEA80
:10155000144721EA024624EA074C02FB07F106FB86
:1015600007F70CFB06F402FB0CFC14EB074441EB01
:1015700017414FEA154714EB0C4441EB1C4125EA97
:10158000074C02FB07F506FB07F70CFB06F602FB10
:101590000CFC16EB074645EB174516EB0C4645EBE6
:1015A0001C42121951F1000148BF7047B61952414F
:1015B00041EB0101A3F1010370474FEA14454FEAE3
:1015C000114724EA054621EA074C05FB07F106FB13
:1015D00007F70CFB06F24FF0000605FB0CFC12EBC4
:1015E000074241EB174112EB0C4251EB1C4148BF43
:1015F0007047921841EB0101A3F101037047FEE728
:101600002DE9F05F4FF4FA7500272C46384E4FF065
:101610007E59DFF8E0A0B84604F0C0FE834606F02D
:10162000FFFC02460B4634A0FEF706FE5946304644
:1016300006F080FF064606F0F3FC02460B4634A097
:10164000FEF7FAFD3146484606F0A8FE83463146CD
:10165000384606F0A3FE414606F00EFDDFF8C090C6
:1016600080463046D9F8041006F064FF514606F073
:1016700095FE07464146584606F0FEFC394606F000
:10168000FBFC284906F060FD07462648C9F80460BF
:101690004042DFF89480DFF8949086420BD94146AF
:1016A000384606F0E9FC06F011FE05463946484684
:1016B00006F040FF0DE0B6F17F5F0DDD394648468C
:1016C00006F038FF06F002FE05464146384606F0B1
:1016D000D3FC06F0FBFD044600224FF400511448F1
:1016E00000F04EFBA1B2A8B2BDE8F05F03F0CCBFA2
:1016F0000000B4420AD7233C63757272656E745F52
:101700007961773D2020252E32660D0A0000000009
:101710006572726F723D2020252E32660D0A000020
:101720006C000020000040400000FA4300800944A3
:10173000001001402DE9F04700252D4C4FF07E5759
:10174000DFF8B0802E4604F04FFF04F027FE8146FC
:1017500006F066FC02460B4627A0FEF76DFD4946E3
:10176000204606F0E7FE044606F05AFC02460B4609
:1017700027A0FEF761FD2146384606F00FFE8146A0
:101780002146284606F00AFE314606F075FC244E36
:1017900005462046316806F0CDFE414606F0FEFDC6
:1017A00007462946484606F067FC394606F064FCC1
:1017B000054606F035FC02460B461AA0FEF73CFD36
:1017C0001D49284606F0C0FC1C49346006F054FC54
:1017D00006F07CFD81B280B203F03EFF24F00040B1
:1017E000B0F17F5F02DA0120BDE8F0870020FBE75F
:1017F000000096420AD7233C63757272656E745F6F
:101800007961773D2020252E32660D0A0000000008
:101810006572726F723D2020252E32660D0A00001F
:101820006C000020636F6E74726F6C3D2020252E5B
:1018300032660D0A00000000000040400000FA433C
:101840002DE9F04700252E4C4FF07E57DFF8B4808D
:101850002E4604F0D9FE04F0A1FD814606F0E0FB1F
:1018600002460B4628A0FEF7E7FC4946204606F054
:1018700061FE044606F0D4FB02460B4628A0FEF7A4
:10188000DBFC2146384606F089FD81462146284684
:1018900006F084FD314606F0EFFB254E0746204654
:1018A000316806F047FE414606F078FD05463946A8
:1018B000484606F0E1FB294606F0DEFB054606F049
:1018C000AFFB02460B461BA0FEF7B6FC1E4928469E
:1018D000346006F039FC01461C4806F02BFE06F089
:1018E000F5FC81B280B203F0BCFE24F00040B0F100
:1018F0007F5F02DA0120BDE8F0870020FBE70000EF
:10190000000020410AD7233C63757272656E745FD4
:101910007961773D2020252E32660D0A00000000F7
:101920006572726F723D2020252E32660D0A00000E
:101930006C000020636F6E74726F6C3D2020252E4A
:1019400032660D0A00000000000040400000FA432B
:101950002DE9F05F00264FF4FA752C464FF07E59C2
:101960003746DFF8ECA0B04604F018FD834606F0D9
:1019700057FB02460B4637A0FEF75EFC5946304641
:1019800006F0D8FD064606F04BFB02460B4637A094
:10199000FEF752FC3146484606F000FD83463146CC
:1019A000384606F0FBFC414606F066FBDFF8CC90BB
:1019B00080463046D9F8041006F0BCFD514606F0CA
:1019C000EDFC07464146584606F056FB394606F000
:1019D00053FB2B4906F0B8FBC9F80460DFF8A4807C
:1019E000DFF8A490074616F1FF4F0BD34146384667
:1019F00006F042FB06F06AFC05463946484606F00A
:101A000099FD0DE0B6F5000F15DB3946484606F0A6
:101A100091FD06F05BFC05464146384606F02CFB7E
:101A200006F054FC04464FF4E170854200DA0546A6
:101A3000844200DA044600224FF40051134800F0BB
:101A40009FF9A1B2A8B2BDE8F05F03F01DBE00008F
:101A50000AD7233C63757272656E745F7961773D56
:101A60002020252E32660D0A000000006572726F7C
:101A7000723D2020252E32660D0A00006C000020E9
:101A800000004040008009440000FA43001001407B
:101A9000704772B6FEE710B590F8211000220229B7
:101AA00005D00421816380F82020012010BD016849
:101AB0000B6823F00E030B6001680B6823F0010331
:101AC0000B6090F84030C46B012101FA03F36360AE
:101AD00080F8211080F82020104610BD10B590F835
:101AE00021100024022903D00421816301243DE058
:101AF00001680A6822F00E020A6001680A6822F092
:101B000001020A601A4A0168914201D1012121E0D3
:101B1000174A1432914201D110211BE0144A283295
:101B2000914201D1891515E0114A3C32914201D10F
:101B300089140FE00E4A5032914202D14FF48031A5
:101B400008E00B4A6432914202D14FF4801101E067
:101B50004FF08071064A083A5160012180F8211047
:101B6000002180F82010416B01B18847204610BD4C
:101B70000800024090F821007047000070B504464C
:101B800000F004F90546601C02D0044800780444C3
:101B900000F0FCF8401BA042FAD370BD18000020F2
:101BA0002DE9F84FDFF8B891002409F1040A0AF191
:101BB000040B23460F270BF1040EC9E00125A540B5
:101BC0002A40AA427DD1674ED1F804C0ACEB06088A
:101BD000B44532D014DCBCF1030F3AD009DCBCF1BF
:101BE000000F2AD0BCF1010F1CD0BCF1020F31D183
:101BF0001DE0BCF1110F17D0BCF1120F2AD119E072
:101C0000B8F5881F19D006DCB8F5803F15D0B8F5B7
:101C1000801F1FD111E0B8F5001F0ED0B8F5041FCA
:101C200018D10AE0CB6815E0CB681B1D12E0CB6829
:101C300008330FE0CB680C330CE08B682BB1012B21
:101C40004FF0080303D0456104E0042302E005617E
:101C500000E00023FF2A01D8064601E000F1040657
:101C60004FEA840501D9A5F12005D6F8008007FACE
:101C700005FC28EA0C0803FA05F548EA0508C6F849
:101C800000804D68ED0062D5374DAE6946F0010623
:101C9000AE61AD6924F0030605F001050095334DF2
:101CA00006EB050CDCF80850A607360F07FA06F815
:101CB00025EA0805DFF8B880404503D14FF0000859
:101CC00017E044E0DFF8AC80404502D14FF0010856
:101CD0000FE0DFF8A480404502D14FF0020808E091
:101CE000DFF89880404502D14FF0030801E04FF043
:101CF000040808FA06F848EA0508CCF808804D6898
:101D0000D9F80060ED034D4601D5164300E0964337
:101D10002E604D68DAF80060AD03554601D51643D4
:101D200000E096432E604D68DBF80060ED025D46F2
:101D300001D5164300E096432E604D68DEF8006042
:101D4000AD02754601D5164300E096432E60641C33
:101D50000D682A46E5407FF431AFBDE8F88F0000FA
:101D6000000401400000111000100240000001407A
:101D700000080140000C0140001001400014014027
:101D80000AB1016170470904FBE70000014880685F
:101D90007047000018000020704770472DE9F04799
:101DA000026800215368C66A90F83E4090F83D50A2
:101DB000102C12D0402C10D0046C002C7DD0546913
:101DC000E443A6077AD4DE43B60577D4036C03B1A7
:101DD0009169BDE8F04702F021B9976951694FF464
:101DE0002A0CC9435FEAC1784FF02A4904D06645FE
:101DF0002AD04E4528D010E0DE43B6050DD4C16A86
:101E0000614501D1012103E0C16A494501D10821A1
:101E1000C162BDE8F04701F099BF0E0716D4DE435A
:101E2000B60513D4416CC9B21161416B09B1896A1D
:101E300029B9816B002907D0896A002904D000687C
:101E4000416841F400614160BDE8F0878E0706D427
:101E5000DE43B60503D4BDE8F04701F0CBBEFE4338
:101E6000526876074FEA02521DD4002AECDB0A06BC
:101E700008D4DA43520505D4490705D5BDE8F04733
:101E800001F05CBE4907DFD4D9438905DCD4212D9C
:101E900005D0402CD8D1BDE8F04701F09DBFBDE88A
:101EA000F04701F009BE002ACEDB4A060BD4DA4324
:101EB000520508D4490708D501E00DE00EE0BDE861
:101EC000F04701F085BD4907BED4D9438905BBD48D
:101ED000BDE8F04701F013BD916970E7E10606D453
:101EE000D943890503D4BDE8F04702F0BBB82821E7
:101EF000212D27D0292D25D0650655D4DD436D052C
:101F000052D4640752D590F83D30448D002C9BD0BC
:101F10001269446A2270426A521C4262428D521E09
:101F20004285428D002A8FD12A2B8DD102685368B9
:101F300023F4806353602222026380F83D1000F096
:101F400011FB81E7250623D4DD436D0520D464070A
:101F500020D590F83D30448D002CF2D0446A24788E
:101F60001461426A521C4262428D521E4285428D69
:101F7000002AE6D1292BE4D10268536823F4806358
:101F800053602122026380F83D1000F0ECFA5BE719
:101F90006107D6D4D9438905D3D4418D0029D0D047
:101FA000416A097811610AE06107CAD4D9438905F9
:101FB000C7D4418D0029C4D01169426A1170416AA9
:101FC000491C4162418D491E41853DE77047000033
:101FD00070B5040025D094F83D00002520B984F8A0
:101FE0003C50204600F07EFA242084F83D00206812
:101FF000016821F0010101602068016841F400419D
:1020000001602068016821F40041016000F0DAFB02
:102010004D4A6168914201D84C4900E04C498842E0
:1020200001D2012070BD4B492368B0FBF1F15E681D
:1020300026F03F060E435E606368934206D94FF474
:10204000967359434FF47A73B1FBF3F12368491C3B
:102050001E6A26F03F06314319626168914210D82A
:102060004900401EB0FBF1F2521CC2F30B02042ADD
:1020700001D2042022E0B0FBF1F0401CC0F30B00C1
:102080001CE0A268F2B301EBC10303EB0116431E8F
:10209000B3FBF6F35B1C43F480431B0549D092B3BA
:1020A00001EBC10202EB0111401EB0FBF1F0401C3C
:1020B000C0F30B0040F4804040F400402168CA693E
:1020C0004CF6FF739A431043C861D4E907100143EB
:1020D0002068026822F0C00211430160D4E90301C4
:1020E00001432068826848F2FF339A4311438160BC
:1020F000D4E9050108432168CA6822F0FF021043B1
:10210000C86001E00EE016E02068016841F00101BE
:1021100001602564202084F83D00256384F83E504A
:10212000002070BD01EB4106431EB3FBF6F35B1CC0
:10213000B3E70120C2E701EB4101401EB0FBF1F023
:10214000401CC0F30B00B7E7A086010080841E008E
:1021500000093D0040420F007047704770477047CC
:10216000704700002DE9FF4F83B00025DDE91079AD
:102170009A4693460446DDF848800095FFF706FE30
:10218000064694F83D0020287CD119230122854978
:102190002046009602F03AF80028F5D194F83C0069
:1021A00001286FD0012084F83C0020680168C9072D
:1021B00003D1016841F0010101602068016821F448
:1021C00000610160222084F83D00402084F83E0038
:1021D00025646762A4F82A90608D20857248E062C9
:1021E000CDE9008653465A462046049901F044FE44
:1021F00000287DD1208DDFF8B491202768B1012817
:1022000014D00228206801681ED041F4806101606A
:102210002068416980690090B6E020684169816961
:102220000091016841F400710160ADE0206801682F
:1022300021F48061016072B6206841698169009172
:10224000016841F400710AE041F40061016072B676
:102250002068416981690091016821F48061016011
:1022600062B691E0032868D801280CD002284346C2
:102270004FF000024946204600960FD001F0C6FFFD
:10228000B0BB10E08BE032464146204602F03DF8FC
:1022900070BB20680069616A08706CE001F0B6FFED
:1022A00030BB72B634E02068016821F480610160BF
:1022B00072B620680069616A0870606A401C6062DA
:1022C000208D401E2085608D401E6085384846F276
:1022D000A8110068B0FBF1F0C0EBC00000EB80007B
:1022E0000090401E009008D020684069C04300E084
:1022F00029E040070CD50098F3E744F8305F677396
:10230000A573206940F02000206162B625731AE0B1
:102310002068016841F40071016020680069616A09
:102320000870606A401C6062218D491E2185618DA4
:10233000491E618562B621681BE03246414620464F
:1023400001F0E3FF18B1012007B0BDE8F08F20686D
:102350000069616A0870606A401C6062218D491ED4
:102360002185618D491E618521684A69D2435207E2
:102370000AD409690170606A401C6062208D401EA9
:102380002085608D401E6085208D00287FF46AAF17
:1023900084F83D7084F83E5084F83C50D4E7022025
:1023A000D2E70000020010000000FFFF040001005F
:1023B000240000202DE9FF4F83B09A46DDE91197F4
:1023C00093460446DDF84080FFF7E0FC054694F8AC
:1023D0003D0020287FD11923012240492046009545
:1023E00001F014FF002876D194F83C00012872D047
:1023F000012084F83C0020680168C90703D1016806
:1024000041F0010101602068016821F40061016070
:10241000212084F83D00402084F83E0000262664F8
:10242000C4F82480A4F82A90608D20852C48E062AE
:10243000CDE9007553465A462046049901F09AFDAD
:1024400070B930E02A463946204601F091FF58B174
:10245000206C042804D12068016841F400710160F7
:10246000012007B0BDE8F08F606A2168007808613C
:10247000606A401C6062218D491E89B22185628D8F
:10248000521E628522685369DB435B070BD469B136
:1024900000781061606A401C6062208D401E2085BB
:1024A000608D401E6085208D0028CBD12A4639469C
:1024B000204601F085FE0028CAD154F83D0B016882
:1024C00041F400710160202004F81E09E677667768
:1024D0000020C6E7FFE70220C3E70000020010006B
:1024E0000000FFFF10B586B000210091019102911C
:1024F00003910068174988422AD1174CA06940F01F
:102500000800A061A069694600F0080004904FF43B
:102510004070009012200190032003900F48FFF7B5
:102520003FFB0F48416841F0E06141F0020141602A
:10253000E06940F40010E061E069002200F400105E
:10254000049002211F2000F075F81F2000F064F8AD
:1025500006B010BD0054004000100240000C0140C5
:1025600000000140704770470248816802781144BA
:102570008160704718000020074810B5016841F0DD
:1025800010010160032000F075F80F2000F006F83C
:1025900000F024F8002010BD0020024070B50D4D61
:1025A00004464FF47A712878B1FBF0F00A490968C3
:1025B000B1FBF0F000F0ECFA48B9102C07D2002281
:1025C0002146501E00F036F800206C6070BD0120DE
:1025D00070BD000018000020240000200D4808B540
:1025E000816941F001018161816901F0010100917E
:1025F000C16941F08051C161C069002200F0805082
:1026000000901146052000F015F8BDE808400520AF
:1026100000F002B800100240002809DB00F01F02A1
:10262000012191404009800000F1E020C0F8001134
:1026300070470000F0B40E4B1B680C46C3F3022336
:10264000C3F10705042D00D90425191D072901D25E
:10265000002300E0DB1E012606FA05F1491E214099
:1026600099409E40761E16403143F0BC02F02BBCD0
:102670000CED00E0064900F0070208684FF6FF0382
:10268000184040EA0220034A1043086070470000E7
:102690000CED00E00000FA052DE9F0470F460500BB
:1026A00061D0434E306800F00700B84209D230686C
:1026B00020F0070038433060306800F00700B8426F
:1026C00051D128683B4C810712D5400703D560687B
:1026D00040F4E06060602878000703D5606840F44B
:1026E000605060606068A96820F0F0000843606096
:1026F0002878C00728D06868012810D021680228EF
:1027000010D0890700292EDA616821F00301014306
:102710006160FFF73BFB804641F288390DE021689C
:102720008903EFE78901EDE7FFF730FBA0EB080134
:10273000494502D90320BDE8F0876068696800F068
:102740000C00B0EB810FEFD1306800F00700B84209
:102750000BD9306820F0070038433060306800F053
:102760000700B84201D00120E5E72878400705D5E9
:102770006068E96820F4E06008436060287800073A
:1027800006D56068296920F4605040EAC1006060A5
:1027900000F038F86168084AC1F30311515CC84081
:1027A0000649086006480068FFF7F8FE0020C2E707
:1027B00000200240001002405E8700082400002034
:1027C0001C0000200448054900684968044AC1F318
:1027D0000221515CC84070472400002000100240D4
:1027E0006E8700080448054900684968044AC1F337
:1027F000C221515CC84070472400002000100240F4
:102800006E87000812A185B00FC98DE80F0014A0D3
:10281000144A006804905168134801F00C03042B1B
:1028200010D0082B0ED1C1F38343C9031DF8030058
:102830000AD5516804AAC1F34041515C0A4A504389
:10284000B0FBF1F005B0704708494843FAE70000D3
:1028500002030405060708090A0B0C0D0E0F1010E1
:10286000010200000010024000127A0000093D0041
:102870002DE9F84F040070D02078C04DC00749D032
:102880006868C0F38100012807D06868C0F3810040
:10289000022809D16868C00306D52868800339D5A5
:1028A00060680028E7D035E06068B0F5803F0BD065
:1028B00010B1B0F5A02F11D0286820F48030286026
:1028C000286820F4802002E0286840F480302860E6
:1028D000606890B1FFF75AFA06460AE0286840F4AB
:1028E00080202860F0E700BFFFF750FA801B6428C3
:1028F00073D828688003F7D50CE0FFF747FA06463F
:1029000005E000BFFFF742FA801B6428F0D8286872
:102910008003F7D420789A4E80074FF001094FF0DA
:10292000000839D5686810F00C0F07D06868C0F34C
:102930008100022809D16868C00306D4286880078E
:1029400014D52069012808D110E02069B0B1C6F87B
:102950000090FFF71BFA074605E00AE1FFF716FAB9
:10296000C01B0228C4D828688007F7D52868616989
:1029700020F0F80040EAC10028600DE0C6F80080B1
:10298000FFF704FA074604E0FFF700FAC01B02282D
:1029900023D828688007F7D4207800072CD57948F9
:1029A000A169D9B1C0F80090FFF7F0F9074604E03B
:1029B000FFF7ECF9C01B02280FD8686A8007F7D52B
:1029C00071484FF4FA510068B0FBF1F0009000BF7D
:1029D0000098411E0091FAD20EE080E0C0F800801D
:1029E000FFF7D4F9074604E0FFF7D0F9C01B02282F
:1029F00075D8686A8007F7D42078400760D5E86901
:102A00000027C00008D4E86940F08050E861E86918
:102A1000012700F0805000905C480168C90513D47C
:102A20000168834641F480710160FFF7AFF9824687
:102A300006E000BFFFF7AAF9A0EB0A0064284ED811
:102A4000DBF80000C005F5D5E06801280AD008B120
:102A5000052813D0286A20F001002862286A20F097
:102A6000040002E0286A40F001002862E06841F2B8
:102A7000883B98B1FFF78AF982460BE0286A40F05C
:102A800004002862EEE700BFFFF780F9A0EB0A011F
:102A900059455AD8286A8007F6D50CE0FFF776F931
:102AA000824605E0FFF772F9A0EB0A0159454CD8C0
:102AB000286A8007F6D41FB1E86920F08050E861E9
:102AC000E06988B36968C1F38101022944D0022812
:102AD000C6F8608004D0FFF759F9044638E034E0C6
:102AE000FFF754F9074604E0FFF750F9C01B02282E
:102AF0002BD828688001F7D4206AB0F5803F05D133
:102B00006868A16820F4003008436860D4E90801CF
:102B10000843696821F4741108436860C6F860903E
:102B2000FFF734F9044606E025E000BFFFF72EF971
:102B3000001B022809D828688001F7D51BE000BFD8
:102B4000FFF724F9001B022802D90320BDE8F88F03
:102B500028688001F4D40EE00128F7D06868226A62
:102B600000F48031914204D1616A00F4701088420F
:102B700001D00120EAE70020E8E700000010024051
:102B800000004242800442422400002000700040C5
:102B900010B5401EB0F1807F01D3012010BD4FF071
:102BA000E02460610F21601702F08DF90020A06120
:102BB00007202061002010BD7047704770B590F865
:102BC0003C20012A26D0012480F83C40022280F8D3
:102BD0003D2003685A689D6822F070060A683243F7
:102BE0005A600D4B02689A4208D0B2F1804F05D06E
:102BF0000A4B9A4202D00A4B9A4204D1496825F006
:102C000080031943916080F83D40002180F83C101A
:102C1000084670BD022070BD002C01400004004039
:102C20000008004010B5040003D094F83D0010B136
:102C300007E0012010BD002084F83C00204600F091
:102C40001FF8022084F83D00211D206801F0D4FE09
:102C5000012084F8460084F83E0084F83F0084F8A0
:102C6000400084F8410084F8420084F8430084F86E
:102C7000440084F8450084F83D00002010BD0000A9
:102C800008B501681448B1F1804F14D0134A91423D
:102C900020D1C16941F00201C161C069002200F088
:102CA0000200009011461D20FFF7C4FC1D20BDE866
:102CB0000840FFF7B1BCC16941F00101C161C069C1
:102CC000002200F00100009011461C20FFF7B2FC2A
:102CD0001C20ECE708BD000000100240000400408A
:102CE00090F83D10012901D001207047022180F8A1
:102CF0003D1000680B49884208D0B0F1804F05D0E4
:102D00000949884202D00949884204D1816801F00A
:102D10000701062903D0016841F00101016000208C
:102D200070470000002C01400004004000080040F3
:102D300070B5044690F83C00012817D0012584F8AE
:102D40003C50022084F83D002068826822F077021F
:102D500022F47F4282600868502830D00DDC2028A1
:102D60004DD005DC98B310283BD148E0022070BD5F
:102D7000302844D0402834D139E0602828D0702849
:102D800006D0B0F5805F2CD0B0F5005F29D10AE005
:102D9000CB68D1E90121206801F071FE20688168CB
:102DA00041F0770109E0CB68D1E90121206801F009
:102DB00066FE2068816841F48041816011E0CA6844
:102DC0004968206801F010FF5021206807E016E0F4
:102DD000CA684968206801F018FF6021206801F086
:102DE00058FE84F83D50002084F83C0070BDCA684D
:102DF0004968206801F0F8FE40212068EFE722686A
:102E000001461046EBE7704770B50446006801695B
:102E10004FF00005C943890715D4C168C943890724
:102E200011D4E91E016101202077206880698007A4
:102E3000204602D0FFF7E7FF04E000F0D1F820467B
:102E400000F060F9257720680169C943490717D464
:102E5000C168C943490713D46FF00401016102201E
:102E600020772068806910F4407F204602D0FFF769
:102E7000CAFF04E000F0B4F8204600F043F92577DB
:102E800020680169C943090716D4C168C943090705
:102E900012D46FF008010161042020772068C06916
:102EA0008007204602D0FFF7AEFF04E000F098F85C
:102EB000204600F027F9257720680169C943C90633
:102EC00017D4C168C943C90613D46FF0100101615A
:102ED000082020772068C06910F4407F204602D087
:102EE000FFF791FF04E000F07BF8204600F00AF9BC
:102EF000257720680169C943C90708D1C168C9435A
:102F0000C90704D1891E0161204600F04BF92068F1
:102F10000169C943090609D4C168C943090605D432
:102F20006FF0800101612046FFF746FE20680169CD
:102F3000C943490609D4C168C943490605D46FF09D
:102F400040010161204600F02EF920680169C94363
:102F500089060BD4C168C943890607D46FF02001E4
:102F600001612046BDE87040FFF727BE70BD00003C
:102F700010B586B000210091019102910391036880
:102F8000134803220221B3F1804F13D0114CA34206
:102F90000ED1836943F0080383618069CDE9002184
:102FA00000F00800CDE9031069460B48FEF7F8FD74
:102FB00006B010BD836943F0040383618069CDE9E5
:102FC000002100F00400CDE9031069460348EDE755
:102FD0000010024000040040000C014000080140C5
:102FE000704770B5044690F83C000D4601280AD0A1
:102FF000012084F83C0042B1042A18D0082A2AD0C3
:103000000C2A4DD139E0022070BD206801F04AFD44
:103010002068816941F0080181612068816921F09F
:1030200004018161206881692A69114311E02068E7
:1030300001F060FD2068816941F4006181612068D0
:10304000816921F480618161206881692A6941EA8E
:103050000221816124E0206801F078FD2068C169C7
:1030600041F00801C1612068C16921F00401C1611A
:103070002068C1692A69114311E0206801F092FDBE
:103080002068C16941F40061C1612068C16921F40F
:103090008061C1612068C1692A6941EA0221C16178
:1030A000002084F83C0070BD10B5040003D094F8F3
:1030B0003D0010B107E0012010BD002084F83C0065
:1030C000204600F01EF8022084F83D00211D2068F3
:1030D00001F092FC012084F8460084F83E0084F858
:1030E0003F0084F8400084F8410084F8420084F8EE
:1030F000430084F8440084F8450084F83D00002033
:1031000010BD70477047000010B50446022249B157
:1031100004290ED0082913D094F84100012816D0B4
:10312000012010BD94F83E000128F9D184F83E201A
:103130000FE094F83F000128F2D184F83F2008E026
:1031400094F840000128EBD184F8402001E084F895
:1031500041200122206801F085FC0F492068884247
:1031600003D1426C42F4004242642068884208D095
:10317000B0F1804F05D00949884202D00849884201
:1031800004D1816801F00701062903D0016841F0EC
:1031900001010160002010BD002C0140000400402E
:1031A000000800407047704770477047F8B50268E4
:1031B00004461068D168536910F00F0F4FF00005F6
:1031C00054D003F0010601F4907737435FD0C20773
:1031D00005D0CA0503D5226C42F0010222644207E1
:1031E00005D5DA0703D0226C42F00202226482077E
:1031F00005D5DA0703D0226C42F0040222640207EC
:1032000007D501F02002324303D0226C42F00802BD
:103210002264226C002A35D0800604D5880602D5A7
:10322000204601F024FD20684069216CC0F3801025
:1032300001F008010143204625D001F000FD20687F
:10324000416949061BD5416921F040014161A06BEC
:10325000A8B158494163A06BFEF740FC002811D08B
:10326000A06B416B01B0BDE8F040084783060ED566
:103270008B060CD52046BDE8F84001F0F8BC20468E
:10328000FFF793FFF8BDFFF790FF2564F8BD266BAD
:103290002023012E52D1C60650D5CE064ED5106839
:1032A00050680090506940062AD5A16B08684068B4
:1032B0000004000CEAD0A68D8642E7D9E085886933
:1032C000202818D0D06820F48070D0602068416930
:1032D00021F0010141612068416921F04001416113
:1032E00084F83E3025632068C16821F01001C16078
:1032F000A06BFEF7D0FBA08DE18D401A81B219E0E2
:10330000A08DE18D401A81B2E08D0028BED0002949
:10331000BCD0D06820F49070D0602068426922F060
:103320000102426184F83E3025632068C26822F0C1
:103330001002C2602046FFF737FFF8BD05062BD507
:103340000D0629D594F83D002128F6D1A068B0F5E6
:10335000805F01D12069B0B1206A411C21622168DF
:1033600000784860E08C401E0004000CE084E4D14A
:103370002068C16821F08001C1602068C16841F007
:103380004001C160F8BD206A0088C0F308005060A9
:10339000206A801C2062E5E74006F3D54806F1D597
:1033A000D168204621F04001D16084F83D3000F022
:1033B0007CF9F8BD2F4C000870B5040004D094F8D7
:1033C0003D00002510B106E0012070BD84F83C509E
:1033D000204600F023F8242084F83D002068C168CE
:1033E00021F40051C160204601F09CFC2068016975
:1033F00021F4904101612068416921F02A01416175
:103400002068C16841F40051C1602564202084F81F
:103410003D0084F83E00002070BD0000F0B585B08E
:10342000002400940194029403940368424F022004
:1034300042490322424D4602BB4226D18B6943F4E6
:1034400080438B618B6903F4804304938B6943F061
:1034500004038B618969039201F004010491010264
:10346000CDE9001069462846FEF79AFB0120009638
:10347000CDE9014069462846FEF792FB0022012172
:103480002520FFF7D7F8252028E02E4FBB4229D171
:10349000CB6943F40033CB61CB6903F4003304936D
:1034A0008B6943F004038B618969039201F0040185
:1034B00004910421CDE9001069462846FEF770FB0F
:1034C0000820CDE90004694628460294FEF768FB0F
:1034D000002201212620FFF7ADF82620FFF79CF8F7
:1034E00005B0F0BD184DAB42FAD1CB6943F480234F
:1034F000CB61CB6903F4802304938B6943F0080309
:103500008B618969114D01F00801CDE90321CDE9F5
:10351000006069462846FEF743FBE814CDE9000445
:10352000694628460294FEF73BFB00220121272032
:10353000FFF780F82720D1E7003801400010024053
:10354000000801400044004000480040000C0140D9
:1035500090F83E30202B0ED159B152B190F83C304A
:10356000012B08D0012380F83C300023036301F0D5
:1035700035BC0120704702207047000070B5064638
:10358000006817490125174C884212D10122A11C5D
:103590001548FFF7DDFF2570A078622805D10122CC
:1035A00051031248FEF7ECFBA5603020A07000200C
:1035B00020700F493068884210D10A490122C91C85
:1035C0000C48FFF7C5FF6570BDE870400549012252
:1035D0004FF0FF33C91C074800F00EB870BD000063
:1035E0000038014000000020580100200010014078
:1035F000004400409C0100202DE9F843044690F867
:103600003D001F4616460D4620284CD1C5B1BEB11F
:1036100094F83C00012846D0012084F83C004FF08B
:103620000008C4F84080212084F83D00FEF7AEFB7E
:10363000A6848146E684A068B0F5805F03D004E0EC
:103640000120BDE8F883206928B12E465FF000050F
:1036500084F83C800EE00026FAE78021204601F045
:10366000D8FBA0B9AEB116F8010B21684860E08C18
:10367000401EE084E08C4B464FF00002009700288B
:10368000EBD14FF04001204601F0C3FB30B10320E5
:10369000D7E735F8020BC0F30800E6E7202084F8EE
:1036A0003D000020CDE70220CBE77047FEE7000099
:1036B0000148FEF773BB00007400002038B5406A73
:1036C000002190F83D202B4B46F2A8141B68B3FB59
:1036D000F4F3C3EBC30303EB830300933BB15B1E23
:1036E000009303681B689B0505D5009BF6E7036CF8
:1036F00043F020030364436B03B19962836B03B10E
:10370000996203681C6824F480641C604185436BE3
:1037100003B15963836B03B1596303681C6824F0D8
:1037200001041C6090F83D402023602C0BD028241D
:1037300034EA02020FD080F83D3080F83E1000BF1E
:10374000FEF744FC38BD80F83D3080F83E1001643F
:10375000FEF722FB38BD0268136843F001031360D3
:103760000268136843F480631360016380F83D408E
:10377000E6E700002400002070B5044690F83D0004
:1037800094F83E10102901D0402906D1222804D1F6
:1037900021680A6822F400620A60282131EA0002E6
:1037A0004FF000054FF0200626D021684968090532
:1037B00005D4602803D084F83D6084F83E5025632A
:1037C00020684168090537D5416821F400614160EE
:1037D000606B3D4990F82120012A11D04163606B54
:1037E000FEF77CF938B32068016821F0010101601F
:1037F00084F83D60606B1CE0256384F83D10DFE7D2
:10380000A06B4163A06BFEF769F9A0B12068416924
:10381000C943490605D40069616A0870606A401CA2
:1038200060622068016821F00101016084F83D6058
:10383000A06B416B884710E094F83D10602910D0D0
:103840004169C943490605D40069616A0870606A24
:10385000401C60622046FEF7B9FB206CC1071CD1FA
:1038600015E084F83D6025644169C943490605D4E3
:103870000069616A0870606A401C606220680168C3
:1038800021F0010101602046FEF786FAE5E7810795
:1038900003D4410701D4000704D52068416821F40E
:1038A000E061416094F83D00216C49070BD5282860
:1038B00009D10648E062256384F83D6084F83E50F3
:1038C0002046FEF749FC70BDBD3600080000FFFF32
:1038D00001684A69D24352050FD46FF480624A618D
:1038E000002140F8301F202242738173026942F0A8
:1038F000040202610173012070470020704710B577
:10390000C26A438D0168042B06D0438D032B08D077
:10391000438D022B1DD012E04A6822F480624A6077
:103920000CE04B6823F480634B60042A06D0022A23
:1039300004D001680A6822F480620A60016809699B
:10394000426A1170416A491C4162418D491E41859C
:1039500010BD012A30D0102A2ED0042A30D0022ADD
:103960002ED00A6842F400720A6001680969426A4E
:103970001170416A491C4162428D521E42850268A3
:1039800012690A70416A491C4162418D491E418594
:1039900001684A6822F440724A60202180F83D1094
:1039A00090F83E200021402A80F83E100CD01221D1
:1039B0000163FEF7D2FB10BD0A6822F48062D3E7F0
:1039C0000A6842F48062CFE70163FEF7C8FB10BDCE
:1039D00038B590F83D10222914D1418D032912D910
:1039E00001680969426A1170416A491C4162418D4E
:1039F000491E4185418D032904D10068416821F4A5
:103A00008061416038BDC26A022AFBD0012901D021
:103A10000029F7D1274946F2A81300220968B1FB13
:103A2000F3F101EB8101009101682023009C641EE9
:103A3000009422D00C68A405F8D40C6824F48064A7
:103A40000C6001684C6824F4E0644C60016809690A
:103A5000446A2170416A491C4162418D491E418579
:103A600080F83D3090F83E1080F83E2040291DD06F
:103A700012210163FEF771FB38BD046C44F0200491
:103A800004644C6824F4E0644C6001680969446A89
:103A90002170416A491C4162418D491E418580F86F
:103AA0003D3080F83E20FEF791FA38BD0263FEF704
:103AB00056FB38BD2400002010B5C26A90F83D10B6
:103AC00021290BD1418D51B1416A026809781161F8
:103AD000416A491C4162418D491E418510BD202328
:103AE0000021082A13D0202A11D012F5803F0ED0D1
:103AF0000268546824F4E06454601122026380F880
:103B00003E1080F83D3000BFFEF728FB10BD026874
:103B1000546824F4E06454600268146844F4007447
:103B20001460016380F83D3090F83E2080F83E102C
:103B3000402AE9D1FEF714FB10BD000010B590F843
:103B40003D1090F83E30C26A048DB4B1212903D0F3
:103B5000402B11D122290FD1418DE1B390F83E10B5
:103B6000402942D0416A026809781161416A491CC2
:103B70004162418D491E418510BD2129E8D1202394
:103B80000021082A13D0202A11D012F5803F0ED030
:103B90000268546824F4E06454601122026380F8DF
:103BA0003E1080F83D3000BFFEF7D8FA10BD026825
:103BB000546824F4E06454600268146844F40074A7
:103BC0001460016380F83D3090F83E2080F83E108C
:103BD000402AE9D100E002E0FEF7C2FA10BD006819
:103BE000416821F48061416010BDBDE8104000F0E3
:103BF000F3B8000078B590F83E50C26A046B90F8B4
:103C00003D6000230168222E73D1066D0EB9402D50
:103C10006FD0056D1DB90569B5F5404F1BD0458DB9
:103C200095B3468D484D012E20D0448D022C4DD0A9
:103C30000C6844F480640C6001684C68240579D5F4
:103C4000AA4273D0012A71D0082A6FD0102A6DD0F1
:103C5000202A6BD06EE04A698A6900920A6842F4B1
:103C600080720A60016D491C016578BDAA4214D1B9
:103C70000A6822F480620A6001684A68120504D565
:103C80000A6822F4806217E0FFE74A698A690092B5
:103C90000A6842F400720A6050E0082A10D0202A14
:103CA0000ED0122C0AD0042A03D0022A01D0102AE6
:103CB000E6D10A6842F480620A603BE0012ADFD064
:103CC0000A6822F480620A600168DEE7042A11D0E3
:103CD000022A0FD0102A0DD00C6844F400640C6046
:103CE00001684C698C6900940C6824F480640C6051
:103CF00008E025E00C6844F480640C6001684C69BD
:103D00008969009101684C68240517D5AA4207D03B
:103D1000012A05D0082A03D0102A01D0202A0DD16B
:103D20004A6842F480524A6008E0FFE74A6842F479
:103D300080524A6001684A6989690091036578BDCB
:103D400048698869009078BD0000FFFF90F83E1038
:103D5000402910D00169B1F5804F19D0016DA9B388
:103D6000016D012910D1416C5FF0F10201F4407145
:103D700042EAD11106E0016D0029416C05D0C9B2BB
:103D800041F0010100680161704701F0FE01F9E7AF
:103D900090F83D102129416C09D0C9B241F00101D0
:103DA00002681161416B29B1896A49B902E001F0E9
:103DB000FE01F5E7816B0029E6D0896A0029E3D08E
:103DC0000068416841F4006141607047FFE7416C61
:103DD000F02201F44071CBE710B590F83D10026D70
:103DE00022B3026D012A2FD0026D022A1DD1222991
:103DF0002FD0428D0AB1212933D0428D002A14D10F
:103E0000212912D101684A6822F4E0624A600168FF
:103E10000A6842F400720A6000210163202280F8DF
:103E20003D2080F83E10FEF79BF910BDC16C0129C2
:103E3000816C02D0C1F3072108E00268C9B21161A8
:103E4000016D891C016510BD816CC9B202681161E8
:103E500004E001680A6842F480720A60016D491C3E
:103E6000F0E7416A026809781161416A491C4162C0
:103E7000418D491E418510BD2DE9F84F044600686B
:103E800089460B9D01689846174641F480610160A0
:103E90002068016841F48071016000954FF0011BBA
:103EA0000022594620460A9B00F0B0F94FF4007AF0
:103EB00040B120680068C00501D5C4F840A00320C7
:103EC000BDE8F88F216809F0FE0008612B462849FB
:103ED00020460A9A00F0CEF9F0BB2068416980695B
:103EE00000902A4620460A9900F042FA40B1206C20
:103EF00004283AD12068016841F40071016034E07F
:103F0000FEB2B8F1010F09D02168380A08612A46CB
:103F100020460A9900F02CFA0028E8D120680661B2
:103F20002A4620460A9900F023FA0028DFD12068AB
:103F3000016841F4807101600095002259462046D5
:103F40000A9B00F063F90028B3D1216809F0FF0053
:103F500040F00100086100E007E02B4604492046DC
:103F60000A9A00F087F90028AAD00120A8E70000EB
:103F7000020001002DE9F843044600680D46DDE922
:103F8000089701689846164641F4807101604B46D7
:103F900000224FF001112046009700F037F948B198
:103FA00020680068C00502D54FF40070206403202B
:103FB000BDE8F883216805F0FE0008613B464A46EB
:103FC0001549204600F056F988B920684169806992
:103FD00000903A464946204600F0CAF948B1206CA4
:103FE000042804D12068016841F4007101600120B7
:103FF000DEE7F5B2B8F1010F09D02168300A086197
:104000003A464946204600F0B3F90028E7D1206837
:1040100005610020CCE700000200010038B50C4625
:1040200090F83D2000212825954302680B4605D0D5
:1040300051699169009180F83C3038BD556825F48C
:1040400080655560E243540700D50121120601D571
:10405000828900E0028B80F83C3092B2FDF79DFE31
:1040600038BD0000F8B590F83D600446006841682E
:1040700021F4E061416020680025416900910168F8
:1040800041F0010101602068016821F48061016054
:1040900020684168090520D5474F222E48D02A2E96
:1040A00046D0616B096849686185618D19B1216CE1
:1040B00041F004012164416821F400614160606BBA
:1040C000FDF758FD012808D0606B4763606BFDF772
:1040D00005FD10B1606B416B8847608D08B32068A7
:1040E0004169C943490708D40069616A0870606A78
:1040F000401C6062608D401E608520684169C94334
:10410000490608D40069616A0870606A401C6062F0
:10411000608D401E6085608D18B1206C40F00400F9
:104120002064206C00B32046BDE8F840FFF724BBB4
:10413000A16B096849686185618D19B1216C41F0F5
:1041400004012164416821F400614160A06BFDF726
:1041500011FD0128C1D0A06B4763A06BFDF7BEFC29
:104160000028BAD0A06BB6E72A2E06D125632820F6
:1041700084F83D002046FEF7F5F994F83D10202024
:1041800028290DD0216B222901D0222E07D12563A9
:1041900084F83D0084F83E502046FEF7E3F9F8BD70
:1041A0000649E162256384F83D0084F83E502046CC
:1041B000FDF7D2FFF8BD0000BD3600080000FFFF8C
:1041C00070B516460D4604460DE02046FFF780FB0D
:1041D00008B1012070BD681C05D0FDF7D7FD801B1C
:1041E000A84207D835B120684069C0434007ECD4E5
:1041F000002070BD002044F8300F20216173A073AF
:10420000216941F0200121612073E2E72DE9F047A7
:104210001E4690460D460446C1F30747DDF8209040
:1042200008E0701C06D0FDF7B1FDA0EB0900B0421C
:104230000FD876B12068012F18D0806925EA0000D8
:104240000004000C14D000214145EAD00020BDE854
:10425000F087002044F8300F20216173A07321699A
:1042600041F02001216120730120F0E74069E5E77A
:104270000121E9E72DE9F0479A4691460E460446AA
:1042800000254FF02008C1F3074725E0206840696A
:10429000C043400514D42068016841F400710160F6
:1042A00021686FF480604861256384F83D8084F85C
:1042B0003E50206C40F00400206484F83C501FE025
:1042C000B9F1FF3F08D0FDF761FDA0EB0A014945B8
:1042D0000CD8B9F1000F09D02068012F13D08069E4
:1042E00026EA00000004000C0BD0CFE744F8305F52
:1042F00084F80D80A573206940F0200020612573AB
:104300000120BDE8F0874069EAE72DE9F04100258A
:1043100090460E460446202717E04069C043C00679
:104320000CD454F8301B6FF01000486144F8105959
:104330006777A577206A2062257717E0FDF726FDCD
:10434000A0EB0800B04208D83EB120684169C943DB
:104350004906E2D40020BDE8F08144F8305F67737D
:10436000A573206940F02000206125730120F2E749
:1043700070B516460D4604460DE02046FFF7A8FA34
:1043800008B1012070BD681C05D0FDF7FFFC801B43
:10439000A84207D835B120684069C0430006ECD474
:1043A000002070BD002044F8300F20216173A073FD
:1043B000216941F0200121612073E2E710B58021DD
:1043C0006B2000F097F86420FDF7D8FB00216B20EC
:1043D00000F090F8032000F058F8002000F050F8AA
:1043E000322000F06FF80021382000F083F800211F
:1043F0006A2000F07FF80021232000F07BF8802164
:10440000372000F077F8752000F012F8682801D006
:10441000012010BD01216B2000F06CF800216C2000
:1044200000F068F8322000F04DF8002010BD0000C8
:104430001FB56423012203A98DE80E00134602462E
:10444000D0210548FDF78EFE10B1012004B010BD4B
:104450009DF80C00FAE70000740000203EB5400013
:10446000CDE900320A466424014602940123034840
:10447000FDF778FE002800D001203EBD740000202A
:10448000C006010E1C2000F035B8C006010E1B202E
:1044900000F030B8BC2801D3012110E0622801D31C
:1044A00002210CE02A2801D3032108E0142801D3BB
:1044B000042104E00A2801D3052100E006211A2086
:1044C00000F018B810B504464FF47A70844201D950
:1044D000044602E0042C00D20424B0FBF4F0401E99
:1044E000C1B2192000F006F86008BDE81040FFF7DF
:1044F000D1BF000003B583B06423012204A98DE875
:104500000E0013460246D0210348FDF753FF002852
:1045100000D0012005B000BD740000203EB5400071
:10452000CDE900320A46642401460294012303487F
:10453000FDF740FF002800D001203EBD74000020A0
:104540002DE9F04186B0002424480094019402949F
:104550000394816941F010018161816901F01001CA
:104560000491816941F020018161816901F020019C
:104570000491816941F004018161816901F00401C4
:104580000491816941F0080181618069144F00F054
:1045900008004FF400550490002229463846FDF7E4
:1045A000EFFBDFF840800022F0214046FDF7E8FBFA
:1045B0000095022601250396CDE901546946384647
:1045C000FDF7EEFAF020CDE90005CDE90246694697
:1045D0004046FDF7E5FA06B0BDE8F0810010024064
:1045E00000100140000801400D4810B50B49016062
:1045F0000C49416000214FF480428160C0E9031200
:1046000041618161C1610162FDF7E2FC002803D0D4
:10461000BDE81040FDF73DBA10BD00000054004059
:1046200074000020801A060010B58EB00024079494
:10463000089409940A940B941C2168460C94FBF787
:104640003DFF21484FF08041C0E9001440F2E731BE
:10465000C0E9024104618461FEF7E4FA08B1FDF7A4
:1046600018FA4FF48050079007A91748FEF760FB2F
:1046700008B1FDF70EFA1448FEF716FD08B1FDF774
:1046800008FA0B940BA910480C94FEF797FA08B19E
:10469000FDF7FFF96020CDE900040294002269468D
:1046A00009480494FEF79DFC08B1FDF7F2F90422D5
:1046B00069460548FEF795FC08B1FDF7EAF902489E
:1046C000FEF756FC0EB010BDC800002010B58EB02D
:1046D00000240794089409940A940B941C216846BA
:1046E0000C94FBF7EBFE23482149016040F21F3197
:1046F000C0E9011440F23F61C0E903148461FEF790
:1047000091FA08B1FDF7C5F94FF48050079007A959
:104710001848FEF70DFB08B1FDF7BBF91548FEF789
:10472000C3FC08B1FDF7B5F90B940BA911480C9423
:10473000FEF744FA08B1FDF7ACF96020009028209C
:10474000CDE90104082269460A480494FEF749FCB1
:1047500008B1FDF79EF90C2269460648FEF741FCB8
:1047600008B1FDF796F90348FEF702FC0EB010BD44
:1047700000040040100100200C4810B50A490160F7
:104780004FF4E1314160002181600C22C160C0E939
:1047900004128161C161FEF70FFE002803D0BDE85D
:1047A0001040FDF776B910BD0038014058010020D7
:1047B0000C4810B50A4901604FF4E1314160002115
:1047C00081600C22C160C0E904128161C161FEF701
:1047D000F3FD002803D0BDE81040FDF75AB910BD25
:1047E000004400409C0100200C4810B50A490160BB
:1047F0004FF4E1314160002181600C22C160C0E9C9
:1048000004128161C161FEF7D7FD002803D0BDE825
:104810001040FDF73EB910BD00480040E001002007
:10482000FEE700002DE97040FFF7C8FD0028FBD12E
:1048300015A118A0FBF700FD4FF40055174C0DE033
:10484000FDF79EFA6420FDF799F9012229462046DA
:10485000FDF796FA12A10FA0FBF7EEFC01F0DCFFCA
:1048600000284FF0000229462046E9D1FDF788FADA
:1048700010A108A0FBF7E0FC29462046BDE87040E7
:104880000122FDF77DBA00004D505520496E697434
:104890002E2E2E0025730D0A00000000001001408E
:1048A0004D70753630353020496E69742057726FFF
:1048B0006E6721004D70753630353020496E697451
:1048C000204F4B2100000000FEE7704770B5294CD7
:1048D000A06808B9FDF73CF8A068012849D100F0AC
:1048E000C5FE4FF47A752846FDF748F9FCF722FF1C
:1048F000E0600028FAD000F0B9FE2E462846FDF709
:104900003DF901F051FEFCF77BFE8025FCF778FEB7
:104910006D1EFBD200F0AAFE40F6B830FDF72EF96E
:1049200001F052FE40F263214FF4167000F0ACFE2D
:104930004FF42F752846FDF721F900F097FE284621
:10494000FDF71CF9FCF77CFF20610028FAD000F08D
:104950008DFE3046FDF712F901F036FEFCF7F8FF48
:104960004FF49574FCF7F4FF641EFBD200F07EFE5A
:10497000FCE770BD0000002070477047FDF7F4BDF4
:1049800030B58FB028216846FBF798FD14210AA89E
:10499000FBF794FD0225012004900095102005905E
:1049A00000244FF46010CDE9084007956846FDF7F4
:1049B0005FFF08B172B6FEE70F20CDE90A054FF49C
:1049C0008060CDE90C4002210AA80E94FDF764FE38
:1049D000002801D072B6FEE70FB030BD704700006E
:1049E0000148FEF711BA0000C80000200148FEF798
:1049F0000BBA000010010020F0B50268164B174CEE
:104A0000174D4FF08047984205D0B84203D0A042DE
:104A100001D0A84203D122F070064A68324398427E
:104A200005D0B84203D0A04201D0A84203D122F45D
:104A30004074CA6822434C6922F08002224302601B
:104A40008A68C2620A688262984201D10969016378
:104A500001214161F0BD0000002C01400004004034
:104A60000008004010B501F01F030121046A9940BD
:104A70008C430462016A9A401143016210BD10B573
:104A8000846842EA032224F47F440A43224382607A
:104A900010BD826822F070020A4342F00701816073
:104AA0007047000030B5026A22F001020262026A19
:104AB0004368846924F073050C682C4322F00205D6
:104AC0008A682A430A4DA8420BD122F00805CA6819
:104AD00023F440732A434D6922F004021D438B697D
:104AE0002B434360846149684163026230BD00002A
:104AF000002C014030B5026A22F010020262026A04
:104B0000436884690D6824F4E64444EA05248D680A
:104B100022F0200242EA05120B4DA8420ED1CD68C8
:104B200022F0800242EA05124D6923F4406343EA11
:104B300085038D6922F0400243EA85034360846166
:104B400049688163026230BD002C014030B5026AC1
:104B500022F480720262036A4268C46923F400731B
:104B600024F073050C682C438D6843EA05230C4D33
:104B7000A8420ED1CD6823F4006343EA05234D69B2
:104B800022F4405242EA05128D6923F4806342EA1E
:104B900005124260C4614968C163036230BD000010
:104BA000002C014030B5026A22F480520262046A8D
:104BB0004268C3690D6823F4E64343EA05238D6820
:104BC00024F4005444EA0534064DA84204D14D694A
:104BD00022F4804242EA85124260C361496801645E
:104BE000046230BD002C014010B5036A046A24F051
:104BF00001040462846924F0F00444EA021423F0FE
:104C00000A020A438461026210BD10B5036A23F0F0
:104C1000100303628369046A23F4704343EA023297
:104C200024F0A00343EA01118261016210BD10B5B6
:104C3000406A0021C185C184FEF7B7FA10BD016842
:104C4000CA6822F49072CA6001684A6922F00102BF
:104C50004A61016B012904D10168CA6822F010027F
:104C6000CA60202180F83E1000210163704708B51A
:104C700090F83E10222901D0022008BD82684FF42E
:104C800080539A4201D1016921B1816A9A421BD0B5
:104C90004AB10AE00268816A5268C2F308020A80D7
:104CA000816A891C08E0026972B10268526802F0E8
:104CB0007F020A70816A491C8162C18D491E090404
:104CC000090CC18503D019E002685268F1E7016858
:104CD000CA6822F02002CA600168CA6822F48072A1
:104CE000CA6001684A6922F001024A61202180F805
:104CF0003E10016B012903D0FEF740FC002008BDE7
:104D0000002101630168CA6822F01002CA600168CC
:104D10000A68D20602D50A6849680091818DFEF7BB
:104D200043FAEBE770B5044600680169E26821F4D4
:104D30004051114301612169A0680843616908433A
:104D40002168CA6841F20C639A430243CA60206832
:104D50004169A26921F44071114341611E492068F3
:104D6000884202D1FDF73EFD01E0FDF72BFD00EB8F
:104D7000C00101EB0012606864218000B2FBF0F317
:104D8000B3FBF1F36FF018067343B2FBF0F5B2FB1F
:104D9000F0F605EB8305322303EB0515B5FBF1F5C2
:104DA000B6FBF1F605F0F00505EB0615B2FBF0F6E3
:104DB000B2FBF0F0B0FBF1F06FF01802504306EBDD
:104DC000800003EB0010B0FBF1F0216800F00F0051
:104DD0002844886070BD00000038014081628285EF
:104DE000C28500210164222280F83E2080F83C1018
:104DF0000168CA6842F48072CA6001684A6942F078
:104E000001024A610068C16841F02001C1600020D0
:104E100070472DE9F041984617460E460446069D18
:104E20001DE0681C1BD02DB1FCF7B0FFA0EB080003
:104E3000A84214D92068C16821F4D071C1602068EB
:104E4000416921F001014161202084F83D0084F88E
:104E50003E00002084F83C000320BDE8F08120687B
:104E6000006836EA000004D00020B842D9D0002003
:104E7000F3E70120F9E700000148FEF797B90000C9
:104E8000580100200148FEF791B900009C01002064
:104E90000148FEF78BB90000E0010020FEE7490061
:104EA00050EAC12018BF04204A0D18BF40F001008D
:104EB00040F2FF72B2EB515F08BF40F002000128E0
:104EC00008BF052070470907090E002804DB00F120
:104ED000E02080F80014704700F00F0000F1E0209F
:104EE00080F8141D70472DE9F0414F1E00EBC701FB
:104EF0000446D1E9000115461E4637F006020DD0E2
:104F00002A46334602F0B2FD7F1E04EBC703D3E905
:104F1000002302F0A3FB37F00602F1D1022F25D0C7
:104F2000042F13D0062F18BFBDE8F0812A46334660
:104F300002F09CFDD4E90A2302F090FB2A46334696
:104F400002F094FDD4E9082302F088FB2A46334698
:104F500002F08CFDD4E9062302F080FB2A4633469A
:104F600002F084FDD4E9042302F078FB2A4633469C
:104F700002F07CFDD4E9022302F070FB2A4633469E
:104F800002F074FDD4E90023BDE8F04102F066BBF5
:104F9000012203F078BB02F061BB002213461046E9
:104FA000114602F00BBC0000024A0020110703F07A
:104FB0006ABB000001FDFFFF30380A2801D2012042
:104FC00070470020704770472DE9FE4F07460E4698
:104FD0000025684601F002F800246FF00F0AE84649
:104FE0004FF0010957F8240056F82410401A00D554
:104FF000404203F0A7F9514603F073FB58F8241020
:1050000011F0FF4F0BD003F09FF84FF07E5103F0EB
:1050100091FA0A4920F00040884205DC07E008497F
:1050200008440849884202D309FA04F00543641C85
:10503000032CD7DB2846BDE8FE8F0000295C0F3E1D
:10504000666666C19A99D9002DE9F04D8D4F21F021
:10505000004A86B005460C46BA452ADBAAEB070093
:1050600028430AD08848824501DC1AD1CDB106B068
:105070002846BDE8F04DFFF78BBF844A844B284695
:1050800002F0F4FC07460E46824A834B284621462E
:1050900002F0ECFC06B03A463346BDE8F04D02F0B3
:1050A000DDBA0120FBF7B1FA06B0BDE8F04DFFF71D
:1050B00074BF7A48824542DABAF1795F0BDA284642
:1050C000FFF7EDFE042808BFFFF76EFF284606B085
:1050D0002146BDE8F08D2A460B46104602F0C6FC7C
:1050E000834602466E480E460B4606217844FFF77B
:1050F000FAFE5A46334602F0B9FC804669488A46B1
:105100005A46334604217844FFF7EDFE5A463346AB
:1051100002F0ACFC00223B4602F0A0FA02460B462D
:105120004046514602F04AFB2A46234602F09EFCC6
:1051300006B02A462346BDE8F04D02F08FBA284655
:1051400024F0004100223D463B4602F08DFD4FF029
:10515000FF3203F098FA0646024653480F460B46C4
:1051600006217844FFF7BFFE32463B4602F07EFC44
:10517000CDE900014D4832463B4604217844FFF713
:10518000B2FE32463B4602F071FC00222B4602F092
:1051900065FA834602913046394602F0F1F98046BD
:1051A00043480D46504517DCDDE900015A46029B95
:1051B00002F004FB42462B4602F058FC42462B46C6
:1051C00002F04CFA012203F05EFA304A304B02F052
:1051D0003DFE304A304B4CE04FF0000A52460B4641
:1051E000404602F03BFACDE9031052462B461046EA
:1051F000194602F03BFC32463B4602F035FDDDE944
:10520000033202F0DBFA06460F46DDE900015A469A
:10521000029B02F0D3FA83460091012230463946C0
:1052200003F031FA194A1A4B02F01EFD06460F46EA
:1052300001224046294603F026FA5A46009B02F016
:1052400015FC32463B4602F001FE06460F4601229F
:105250005046294603F017FA0E4DDFF858802A46CB
:10526000434602F001FD32463B4602F0FDFC2A4671
:10527000434602F0F9FC002CD8BF81F0004106B093
:10528000BDE8F08D0000F03F0000F07F075C1433B4
:1052900026A6913C182D4454FB21F93F0000E03F25
:1052A000E0420000F64200006A4200008042000036
:1052B0003333EF3FFB21E93F2DE9F84F04460D461C
:1052C00021F0004000917349814211DC724988420B
:1052D00001DC06D12CB120462946BDE8F84FFFF786
:1052E00057BE6E48002DCCBF6D496E49BDE8F88FA2
:1052F0006D49814211DD6D498142D8BF4FF0FF36C3
:105300006DDD20462946FFF7CAFD042808BFFFF7D8
:105310004BFE20462946BDE8F88F6549654F25F0CC
:105320000045814233DD6449814219DD0026324661
:105330004FF080432046294602F090F980468A4685
:1053400001222046294603F09EF900223B4602F046
:105350007DFD4246534602F031FA04460D463EE0DA
:1053600001260022BA463B462046294602F076F93D
:1053700080460F46002253462046294602F066FD2D
:1053800042463B4602F01AFA04460D4627E04B49D6
:1053900081421BDDDFF828A1022600225346204669
:1053A000294602F063FB00223B4602F057F9804693
:1053B0000F46002253462046294602F047FD42464A
:1053C0003B4602F0FBF904460D4608E00326224660
:1053D0002B4600203B4902F0F1F904460D462246D7
:1053E0002B461046194602F041FB8B468246024688
:1053F0000B4602F03BFB07460246334888460B4605
:1054000006217844FFF76FFD52465B4602F02EFB03
:1054100082462E488B463A46434605217844FFF79C
:1054200062FD3A46434602F021FB02460B46002E3F
:10543000504659460CDA02F011F922462B4602F08A
:1054400015FB01B022462B46BDE8F04F02F00CBC24
:1054500002F004F922462B4602F008FB1C4A7A446B
:1054600002EBC603D3E9002302F0F0FC22462B46F0
:1054700002F0ECFC174A7A4402EBC603D3E900239E
:1054800002F0F2FB009A002AB8BF81F00041BDE8AB
:10549000F88F0000000010440000F07F182D4454E5
:1054A000FB21F93FFB21F9BF0000DC3F0000203E5B
:1054B0000000F33F0000F03F0000E63F00800340A3
:1054C0000000F83F0000F0BF8240000040400000B4
:1054D000DE3F0000A63F00002DE9F04D9446CCF1E0
:1054E000000423F000464CEA0404524F46EAD47408
:1054F0009A46884621F00042BC4206D8454240EA1E
:10550000050442EAD474BC4204D9BDE8F04D6246B9
:10551000FFF741BDAAF14055A5F17F6555EA0C049E
:105520000BD0022404EAAA74434DDFF810E144EAE8
:10553000D87452EA000B04D00CE0BDE8F04DFFF740
:10554000BBBE002C14BF012CBDE8F08D022C30D066
:10555000032C32D056EA0C0B0AD0BE4220D1BA42FC
:1055600009D126F0804622F080423346114617E0EA
:1055700000291ADB25E0DFF8C8B0FB44002C04BF8B
:10558000DBE90001BDE8F08D012C02BFDBE9000181
:1055900081F00041BDE8F08D022C0AD0032C0CD024
:1055A000BA4212D1B8F1000F0BDA23482549BDE801
:1055B000F08D28462449BDE8F08D28467146BDE8A7
:1055C000F08D1D482149BDE8F08D921B12153C2A33
:1055D000C4BF19481D490EDCBAF1000FBEBF12F15D
:1055E0003C0F0020014606DB624602F0E7F821F09E
:1055F0000041FFF761FE002C08BFBDE8F08D012CD3
:1056000004BF81F00041BDE8F08D114A114B022C1E
:1056100007D002F01BFC2A46BDE8F04D0A4B02F011
:1056200015BC02F013FC2A46BDE8F04D064B02F013
:105630001BBB00000000F07F182D4454FB2109C063
:105640003A3F0000FB21F9BFFB210940FB21F93F54
:10565000075C143326A6A13C4FF08042506391634F
:1056600070474FF0804250639163704710B500223D
:10567000F0210448FCF784FB4FF080400021416397
:10568000816310BD000801404FF080425063916378
:10569000704708B560B120208DF8000028208DF8F3
:1056A000010030208DF8020038208DF8030004E05E
:1056B000A32204216846FAF7F9FE6A46042140F65F
:1056C0009E2001F0C7FE01F085FB08BD3EB50446F3
:1056D00002208DF80000CA208DF80100E3208DF82B
:1056E000020009208DF803006A460421682001F0B9
:1056F000B1FEA3208DF80000610609D5C0218DF808
:105700000110C8218DF80210C2218DF8031005E0A8
:105710008DF801008DF802008DF8030014F4C07FAD
:1057200009D0C4218DF80410CC218DF80510C621B4
:105730008DF8061005E08DF804008DF805008DF851
:1057400006008DF808008DF807008DF809006A46FC
:105750000A2140F6A72001F07DFEA0074FF0D805F2
:1057600003D020208DF8000001E08DF800506A463B
:10577000012140F6B62001F06DFEA00601D5012002
:1057800000E0002000F08EF814F4C07F1ED0E00589
:105790000AD5B2208DF800008B208DF80100B620CC
:1057A0008DF802009B2009E0B0208DF800008020D9
:1057B0008DF80100B4208DF8020090208DF80300D0
:1057C0006A46042140F6A22001F044FEE1074FF4AE
:1057D0000B6022D0F8218DF800106A46012101F0FB
:1057E00039FEFA21072000F039FB072000F004FB06
:1057F000012000F021FB642000F0C4FB4FF4FA709C
:1058000000F0D0FBC821254800F0BEFA282000F0A7
:10581000D3FA0A2000F0E0FA05E08DF800506A465D
:10582000012101F017FEA00703D5D9208DF8000053
:1058300001E08DF800506A46012140F23D7001F010
:1058400009FE600701D5012000E0002000F048F8C3
:10585000E00601D5012000E00020FFF71AFF104DFF
:1058600044F00800688101F0B5FA0020A8736006D2
:1058700001D50620A87314F4C07F02D0A87B801D38
:10588000A87314F0140F02D0A87B1030A873A007DF
:1058900002D0A87B001DA87300203EBD09E3CA0208
:1058A000240200200EB54FF4976310B106A107C97A
:1058B00001E008A207CA8DE807006A4609211846D8
:1058C00001F0C8FD0EBD0000B8AAB38DB4980D3527
:1058D0005D000000B8AAAAAAB088C3C5C70000002E
:1058E00008B560B1C0208DF80000C2208DF801001D
:1058F000C4208DF80200C6208DF8030004E08B223E
:1059000004216846FAF7D2FD6A46042140F6982041
:1059100001F0A0FD01F05EFA08BD0000C8234FF4BD
:105920008062024940F6F63001F036B9C8870008B7
:105930002DE9FF4F89B01746DDE9165200244C4E81
:10594000884681462C80A246B07B694601F0D0F99A
:105950004FF0FF3B18B158460DB0BDE8F08F70898D
:1059600010F0140F3CD0009909BA21F0FF039DF804
:1059700003100B433B6001991B1409BA21F0FF028D
:105980009DF807105B430A437A6002999DF80B402B
:1059900009BA21F0FF012143B960039C091424BA1C
:1059A00024F0FF0C9DF80F4012144CEA040CC7F8C9
:1059B0000CC04FEA2C47494302FB023207FB071198
:1059C00011441024A1F17061B1F1007F04D901F0FC
:1059D00001FAA5F800A0BEE7298841F4807129806A
:1059E0004206694611D50A19A41D13885BBAA8F8A6
:1059F000003053885BBAA8F80230928852BAA8F8EF
:105A000004202A8842F008022A8010F4C07F11D0B6
:105A10000A19A41D13885BBAA9F8003053885BBA31
:105A2000A9F80230928852BAA9F804202A8842F0D4
:105A300070022A80800716D00C44E07800F0C00580
:105A400000F03F016078C00706D0C80801F00701E8
:105A50003268491C02B190476078000703D571682D
:105A600009B1A80988470C9800F09CFD002073E755
:105A7000240200202DE9FF41044603A800F042FF64
:105A8000BDF80C00410CC3032F48028902F003004B
:105A9000550754F8200000D54042C2F3C1059606D0
:105AA00054F8255000D56D42C2F38116D20554F842
:105AB000264000D56442A0FB0367C21702FB0372B5
:105AC00000FB0120820042EA9670A5FB0367EA17FB
:105AD00002FB037205FB0122950045EA9672A4FBC6
