:020000040800F2
:100000008008002099010008AD350008732300081E
:1000100005350008CB070008713A00080000000011
:10002000000000000000000000000000B3350008E0
:10003000DD07000800000000AF350008B5350008F6
:10004000B3010008B3010008B3010008B3010008C0
:10005000B3010008B1350008B3010008B30100087E
:10006000B3010008B3010008B3010008B3010008A0
:10007000B3010008B3010008B3010008B301000890
:10008000B3010008B3010008B3010008B301000880
:10009000B3010008B3010008B3010008B301000870
:1000A000B3010008B3010008B3010008B301000860
:1000B0001936000825360008B3010008752300082A
:1000C000B3010008B3010008B3010008B301000840
:1000D000B30100084D3A0008593A0008653A000893
:1000E000B3010008B3010008B301000800F002F8F2
:1000F00000F042F80AA090E8000C82448344AAF180
:100100000107DA4501D100F037F8AFF2090EBAE87D
:100110000F0013F0010F18BFFB1A43F0010318473B
:100120005868000078680000103A24BF78C878C189
:10013000FAD8520724BF30C830C144BF04680C60ED
:10014000704700000023002400250026103A28BF35
:1001500078C1FBD8520728BF30C148BF0B60704739
:10016000642900F09580732900F0AB82002070476D
:100170001FB51FBD10B510BD00F0FCFA1146FFF70A
:10018000F7FF04F053FB00F01AFB03B4FFF7F2FF94
:1001900003BC03F085FC000009488047094800477C
:1001A000FEE7FEE7FEE7FEE7FEE7FEE7FEE7FEE727
:1001B000FEE7FEE704480549054A064B7047000084
:1001C00015360008ED00000880020020800800209D
:1001D0008004002080040020704710B54C1084EA91
:1001E000530404D54042C1F1000138BF491E1B42EF
:1001F00004D55242C3F1000338BF5B1E00F07FF903
:1002000014F0804F04D04042C1F1000138BF491EB4
:1002100014F0004F04D05242C3F1000338BF5B1EFC
:1002200010BD00000FB4044910B503AA029800F0F5
:100230004DFA10BC5DF814FB1400002070B50C469C
:100240000546012A05D02878800600D5EA690023F2
:1002500002E0012305E05B1C934202D2E05C00282F
:10026000F9D1A869E618C01AA861286A184428625A
:100270002846AFF3008004E0D5E9012114F8010B12
:100280009047B442F8D32846AFF3008070BD000019
:100290002DE9F0410646002410687529314616A55F
:1002A00010D0AFF30080002802DA404213A507E027
:1002B00031688A0701D512A502E0490704D511A5C6
:1002C000012401E0AFF3008000210A2206F1240797
:1002D00009E0B0FBF2FCB0FBF2F302FB1C00303093
:1002E00078541846491C0028F3D123462A46304644
:1002F000BDE8F04100F07AB9000000002D000000D8
:100300002B000000200000002DE9F05F8946044624
:100310004FF0000ADFF824B1FB44C0F820A02046CB
:10032000E168884700287DD0252806D0D4E901213E
:100330009047206A401C2062F1E700255F46204676
:10034000E16888472028064607DB312E05D2B81918
:1003500010F8200C08B10543F1E7A80701D525F0F6
:100360000405C4F81CA00027C4F818A02A2E09D040
:10037000304603F08EFB38B304EB8708303EC8F8F4
:10038000186019E059F8041B204604EB87029161BC
:10039000E1688847012F064618D1E069002820DA75
:1003A00025F020051DE0D8F8180000EB800006EBD2
:1003B00040003038C8F818002046E16888470646F3
:1003C00003F067FB0028EED1012F0AD02E2E08D1B2
:1003D0002046E16888477F1C0646022F45F020052D
:1003E000C4DBA069002803DA404245F00105A061A2
:1003F000E80701D025F01005A6B1A6F141001928A3
:1004000002D8203645F400654A463146204625602C
:100410004D46FFF7A5FE60B1012807D0ED1D25F080
:10042000070000E007E000F1080978E705F104099A
:1004300075E730467AE7206ABDE8F09FFA6500006C
:1004400040EA010310B59B070FD1042A0DD310C851
:1004500008C9121F9C42F8D020BA19BA884201D9A3
:10046000012010BD4FF0FF3010BD1AB1D30703D0EB
:10047000521C07E0002010BD10F8013B11F8014BA1
:100480001B1B07D110F8013B11F8014B1B1B01D1BD
:10049000921EF1D1184610BD02F0FF0343EA032279
:1004A00042EA024200F026B94FF0000200B51346BE
:1004B00094469646203922BFA0E80C50A0E80C5084
:1004C000B1F12001BFF4F7AF090728BFA0E80C5035
:1004D00048BF0CC05DF804EB890028BF40F8042B2E
:1004E00008BF704748BF20F8022B11F0804F18BF9B
:1004F00000F8012B7047704770477047704753EA08
:10050000020C00F069802DE9F04B4FF00006002B43
:100510001FBFB3FA83F503FA05F424FA05F65E402B
:1005200012BF1643B2FA82F502FA05F4C5F12005AE
:100530001EBF22FA05FC44EA0C04203556EA044C9E
:100540004FEA144418BF641C4FF000084FF0000934
:10055000904271EB030C39D3002919BFB1FA81F72E
:1005600001FA07F6B0FA80F700FA07F6C7F120079C
:100570001EBF20FA07FC46EA0C062037B6FBF4FC47
:10058000A7EB0507103F07F01F0BCBF120060CFA75
:100590000BFB2CFA06F644BFB3460026202FA4BF5F
:1005A0005E464FF0000B5BEA060C08BF4FF0010BF4
:1005B00019EB0B09ABFB027C48EB0608C01B06FBE2
:1005C00002CC0BFB03CC71EB0C01C1E70B460246DE
:1005D00041464846BDE8F08B13B54FF000004FF0A0
:1005E0000001AFF30080BDE81C4070472DE9F047E3
:1005F0000D4699469246044600F124080168880693
:1006000004D5E06921F01001216000E00120A8423A
:1006100001DD471B00E00027A1697A1902EB090000
:10062000081AA0612078C00602D42046AFF30080EB
:10063000002608E0D4E901211AF806009047206A54
:10064000401C761C20624E45F4DB2078C0060AD59B
:100650002046AFF3008006E0D4E901213020904726
:10066000206A401C2062381EA7F10107F4DC07E075
:10067000D4E9012118F805009047206A401C206247
:10068000281EA5F10105F3DC2046AFF30080207899
:10069000000602D50220BDE8F0870120FBE710B577
:1006A000436913B1AFF3008001E0FFF7C7FD0120FC
:1006B00010BD127800F124010A7000224A70012254
:1006C000EDE711684FF0FF32E9E70000074B70B526
:1006D0000D467B4400F033F80446284600F042F80B
:1006E00010B14FF0FF3070BD204670BD3F3C0000A0
:1006F0004FF000020429C0F0128010F0030C3FF408
:10070000D5AECCF1040CBCF1020F18BF00F8012BE0
:10071000A8BF20F8022BA1EB0C01FFF7C7BE5FEAD0
:10072000C17C24BF00F8012B00F8012B48BF00F862
:10073000012B704701694A1C02610878704700B5B7
:100740008FB0CDE901310021059105497944CDE90A
:10075000031011466846FFF7D7FD0FB000BD00003B
:10076000E5FFFFFF007B00F0800070470048704706
:10077000200200207546FFF7F9FFAE4605006946E6
:10078000534620F00700854618B020B5FFF712FD4C
:10079000BDE820404FF000064FF000074FF0000882
:1007A0004FF0000B21F00701AC46ACE8C009ACE803
:1007B000C009ACE8C009ACE8C0098D4670470446E2
:1007C000AFF300802046FFF7E0FCFEE70122802126
:1007D000014800F07BB90000000C0140704772B680
:1007E000FEE710B590F821100022022905D004215F
:1007F000816380F82020012010BD01680B6823F080
:100800000E030B6001680B6823F001030B6090F886
:100810004030C46B012101FA03F3636080F82110BA
:1008200080F82020104610BD10B590F8211000244B
:10083000022903D00421816301243DE001680A6894
:1008400022F00E020A6001680A6822F001020A60C2
:100850001A4A0168914201D1012121E0174A14325C
:10086000914201D110211BE0144A2832914201D15A
:10087000891515E0114A3C32914201D189140FE0EB
:100880000E4A5032914202D14FF4803108E00B4AB7
:100890006432914202D14FF4801101E04FF0807137
:1008A000064A083A5160012180F82110002180F8A1
:1008B0002010416B01B18847204610BD080002405E
:1008C00090F821007047000070B5044600F004F96C
:1008D0000546601C02D004480078044400F0FCF88F
:1008E000401BA042FAD370BD180000202DE9F84F3C
:1008F000DFF8B891002409F1040A0AF1040B234639
:100900000F270BF1040EC9E00125A5402A40AA4299
:100910007DD1674ED1F804C0ACEB0608B44532D0A7
:1009200014DCBCF1030F3AD009DCBCF1000F2AD073
:10093000BCF1010F1CD0BCF1020F31D11DE0BCF1A4
:10094000110F17D0BCF1120F2AD119E0B8F5881F8A
:1009500019D006DCB8F5803F15D0B8F5801F1FD13F
:1009600011E0B8F5001F0ED0B8F5041F18D10AE049
:10097000CB6815E0CB681B1D12E0CB6808330FE095
:10098000CB680C330CE08B682BB1012B4FF00803C4
:1009900003D0456104E0042302E0056100E0002388
:1009A000FF2A01D8064601E000F104064FEA84055B
:1009B00001D9A5F12005D6F8008007FA05FC28EA40
:1009C0000C0803FA05F548EA0508C6F800804D68EA
:1009D000ED0062D5374DAE6946F00106AE61AD69F6
:1009E00024F0030605F001050095334D06EB050CD8
:1009F000DCF80850A607360F07FA06F825EA0805BE
:100A0000DFF8B880404503D14FF0000817E044E01C
:100A1000DFF8AC80404502D14FF001080FE0DFF86D
:100A2000A480404502D14FF0020808E0DFF898802A
:100A3000404502D14FF0030801E04FF0040808FAE6
:100A400006F848EA0508CCF808804D68D9F8006037
:100A5000ED034D4601D5164300E096432E604D68E8
:100A6000DAF80060AD03554601D5164300E0964321
:100A70002E604D68DBF80060ED025D4601D516433F
:100A800000E096432E604D68DEF80060AD027546CA
:100A900001D5164300E096432E60641C0D682A467B
:100AA000E5407FF431AFBDE8F88F0000000401405D
:100AB0000000111000100240000001400008014039
:100AC000000C014000100140001401400AB1016116
:100AD00070470904FBE70000014880687047000088
:100AE00018000020704770472DE9F0470268002188
:100AF0005368C66A90F83E4090F83D50102C12D0D2
:100B0000402C10D0046C002C7DD05469E443A6071F
:100B10007AD4DE43B60577D4036C03B19169BDE89E
:100B2000F04702F0DDB8976951694FF42A0CC943C8
:100B30005FEAC1784FF02A4904D066452AD04E4575
:100B400028D010E0DE43B6050DD4C16A614501D15D
:100B5000012103E0C16A494501D10821C162BDE814
:100B6000F04701F055BF0E0716D4DE43B60513D487
:100B7000416CC9B21161416B09B1896A29B9816BB4
:100B8000002907D0896A002904D00068416841F42F
:100B900000614160BDE8F0878E0706D4DE43B605EC
:100BA00003D4BDE8F04701F087BEFE4352687607E4
:100BB0004FEA02521DD4002AECDB0A0608D4DA43BD
:100BC000520505D4490705D5BDE8F04701F018BE28
:100BD0004907DFD4D9438905DCD4212D05D0402C29
:100BE000D8D1BDE8F04701F059BFBDE8F04701F0AA
:100BF000C5BD002ACEDB4A060BD4DA43520508D421
:100C0000490708D501E00DE00EE0BDE8F04701F02E
:100C100041BD4907BED4D9438905BBD4BDE8F047DF
:100C200001F0CFBC916970E7E10606D4D94389058C
:100C300003D4BDE8F04702F077B82821212D27D052
:100C4000292D25D0650655D4DD436D0552D46407A2
:100C500052D590F83D30448D002C9BD01269446AE7
:100C60002270426A521C4262428D521E4285428D5F
:100C7000002A8FD12A2B8DD10268536823F4806318
:100C800053602222026380F83D1000F011FB81E7DF
:100C9000250623D4DD436D0520D4640720D590F8C4
:100CA0003D30448D002CF2D0446A24781461426AAD
:100CB000521C4262428D521E4285428D002AE6D16C
:100CC000292BE4D10268536823F480635360212206
:100CD000026380F83D1000F0ECFA5BE76107D6D4C0
:100CE000D9438905D3D4418D0029D0D0416A0978F0
:100CF00011610AE06107CAD4D9438905C7D4418D7F
:100D00000029C4D01169426A1170416A491C4162CC
:100D1000418D491E41853DE77047000070B50400D4
:100D200025D094F83D00002520B984F83C50204699
:100D300000F07EFA242084F83D002068016821F04C
:100D4000010101602068016841F4004101602068F0
:100D5000016821F40041016000F0DAFB4D4A61684E
:100D6000914201D84C4900E04C49884201D201200F
:100D700070BD4B492368B0FBF1F15E6826F03F0679
:100D80000E435E606368934206D94FF496735943ED
:100D90004FF47A73B1FBF3F12368491C1E6A26F005
:100DA0003F06314319626168914210D84900401EE4
:100DB000B0FBF1F2521CC2F30B02042A01D2042050
:100DC00022E0B0FBF1F0401CC0F30B001CE0A26875
:100DD000F2B301EBC10303EB0116431EB3FBF6F3C1
:100DE0005B1C43F480431B0549D092B301EBC10265
:100DF00002EB0111401EB0FBF1F0401CC0F30B00F0
:100E000040F4804040F400402168CA694CF6FF730A
:100E10009A431043C861D4E907100143206802686F
:100E200022F0C00211430160D4E9030101432068AC
:100E3000826848F2FF339A4311438160D4E9050187
:100E400008432168CA6822F0FF021043C86001E02D
:100E50000EE016E02068016841F0010101602564A0
:100E6000202084F83D00256384F83E50002070BDAA
:100E700001EB4106431EB3FBF6F35B1CB3E7012015
:100E8000C2E701EB4101401EB0FBF1F0401CC0F392
:100E90000B00B7E7A086010080841E0000093D001A
:100EA00040420F007047704770477047704700001E
:100EB0002DE9FF4F83B00025DDE910799A4693466E
:100EC0000446DDF848800095FFF706FE064694F8D4
:100ED0003D0020287CD11923012285492046009617
:100EE00001F0F6FF0028F5D194F83C0001286FD0FE
:100EF000012084F83C0020680168C90703D101681B
:100F000041F0010101602068016821F40061016085
:100F1000222084F83D00402084F83E00256467626A
:100F2000A4F82A90608D20857248E062CDE90086A1
:100F300053465A462046049901F000FE00287DD110
:100F4000208DDFF8B491202768B1012814D0022841
:100F5000206801681ED041F4806101602068416909
:100F600080690090B6E0206841698169009101685C
:100F700041F400710160ADE02068016821F48061F6
:100F8000016072B62068416981690091016841F48D
:100F900000710AE041F40061016072B620684169A5
:100FA00081690091016821F48061016062B691E07D
:100FB000032868D801280CD0022843464FF00002CD
:100FC0004946204600960FD001F082FFB0BB10E0EA
:100FD0008BE032464146204601F0F9FF70BB2068A5
:100FE0000069616A08706CE001F072FF30BB72B694
:100FF00034E02068016821F48061016072B62068E5
:101000000069616A0870606A401C6062208D401E41
:101010002085608D401E6085384846F2A811006822
:10102000B0FBF1F0C0EBC00000EB80000090401E70
:10103000009008D020684069C04300E029E04007E4
:101040000CD50098F3E744F8305F6773A573206907
:1010500040F02000206162B625731AE02068016824
:1010600041F40071016020680069616A0870606A7B
:10107000401C6062218D491E2185618D491E61855C
:1010800062B621681BE032464146204601F09FFFD0
:1010900018B1012007B0BDE8F08F20680069616ACF
:1010A0000870606A401C6062218D491E2185618D37
:1010B000491E618521684A69D24352070AD40969E9
:1010C0000170606A401C6062208D401E2085608D2A
:1010D000401E6085208D00287FF46AAF84F83D7043
:1010E00084F83E5084F83C50D4E70220D2E7000058
:1010F000020010000000FFFF040001002400002097
:101100002DE9FF4F83B09A46DDE9119793460446D7
:10111000DDF84080FFF7E0FC054694F83D0020280C
:101120007FD11923012240492046009501F0D0FECD
:10113000002876D194F83C00012872D0012084F870
:101140003C0020680168C90703D1016841F0010132
:1011500001602068016821F400610160212084F8A9
:101160003D00402084F83E0000262664C4F8248018
:10117000A4F82A90608D20852C48E062CDE90075A6
:1011800053465A462046049901F056FD70B930E0A6
:101190002A463946204601F04DFF58B1206C0428FC
:1011A00004D12068016841F400710160012007B09A
:1011B000BDE8F08F606A216800780861606A401CB1
:1011C0006062218D491E89B22185628D521E628521
:1011D00022685369DB435B070BD469B10078106167
:1011E000606A401C6062208D401E2085608D401E1C
:1011F0006085208D0028CBD12A463946204601F053
:1012000041FE0028CAD154F83D0B016841F4007139
:101210000160202004F81E09E67766770020C6E703
:10122000FFE70220C3E70000020010000000FFFFFC
:1012300010B586B0002100910191029103910068E0
:10124000174988422AD1174CA06940F00800A061D4
:10125000A069694600F0080004904FF440700090C7
:1012600012200190032003900F48FFF73FFB0F4827
:10127000416841F0E06141F002014160E06940F401
:101280000010E061E069002200F4001004900221E7
:101290001F2000F075F81F2000F064F806B010BDA4
:1012A0000054004000100240000C014000000140CA
:1012B0007047704702488168027811448160704726
:1012C00018000020074810B5016841F010010160C6
:1012D000032000F075F80F2000F006F800F024F865
:1012E000002010BD0020024070B50D4D04464FF4A3
:1012F0007A712878B1FBF0F00A490968B1FBF0F087
:1013000000F0ECFA48B9102C07D200222146501EFA
:1013100000F036F800206C6070BD012070BD000048
:1013200018000020240000200D4808B5816941F014
:1013300001018161816901F001010091C16941F000
:101340008051C161C069002200F0805000901146B8
:10135000052000F015F8BDE80840052000F002B8AF
:1013600000100240002809DB00F01F02012191401B
:101370004009800000F1E020C0F800117047000033
:10138000F0B40E4B1B680C46C3F30223C3F10705F0
:10139000042D00D90425191D072901D2002300E0DE
:1013A000DB1E012606FA05F1491E214099409E40A8
:1013B000761E16403143F0BC02F05BBB0CED00E042
:1013C000064900F0070208684FF6FF03184040EA9C
:1013D0000220034A10430860704700000CED00E053
:1013E0000000FA052DE9F0470F46050061D0434E95
:1013F000306800F00700B84209D2306820F00700DA
:1014000038433060306800F00700B84251D1286896
:101410003B4C810712D5400703D5606840F4E0607B
:1014200060602878000703D5606840F46050606011
:101430006068A96820F0F000084360602878C00761
:1014400028D06868012810D02168022810D08907A8
:1014500000292EDA616821F0030101436160FFF782
:101460003BFB804641F288390DE021688903EFE7B4
:101470008901EDE7FFF730FBA0EB0801494502D9F0
:101480000320BDE8F0876068696800F00C00B0EBED
:10149000810FEFD1306800F00700B8420BD93068F7
:1014A00020F0070038433060306800F00700B84291
:1014B00001D00120E5E72878400705D56068E96894
:1014C00020F4E060084360602878000706D5606873
:1014D000296920F4605040EAC100606000F038F8EB
:1014E0006168084AC1F30311515CC84006490860AD
:1014F00006480068FFF7F8FE0020C2E7002002401F
:1015000000100240B65C0008240000201C000020EF
:101510000448054900684968044AC1F30221515C46
:10152000C84070472400002000100240C65C00083C
:101530000448054900684968044AC1F3C221515C66
:10154000C84070472400002000100240C65C00081C
:1015500012A185B00FC98DE80F0014A0144A0068CD
:1015600004905168134801F00C03042B10D0082B91
:101570000ED1C1F38343C9031DF803000AD5516896
:1015800004AAC1F34041515C0A4A5043B0FBF1F058
:1015900005B0704708494843FAE700000203040514
:1015A000060708090A0B0C0D0E0F101001020000AF
:1015B0000010024000127A0000093D002DE9F84FAA
:1015C000040070D02078C04DC00749D06868C0F3CF
:1015D0008100012807D06868C0F38100022809D182
:1015E0006868C00306D52868800339D5606800287C
:1015F000E7D035E06068B0F5803F0BD010B1B0F5B2
:10160000A02F11D0286820F480302860286820F4AA
:10161000802002E0286840F480302860606890B143
:10162000FFF75AFA06460AE0286840F4802028604E
:10163000F0E700BFFFF750FA801B642873D82868D2
:101640008003F7D50CE0FFF747FA064605E000BF38
:10165000FFF742FA801B6428F0D828688003F7D48B
:1016600020789A4E80074FF001094FF0000839D5D5
:10167000686810F00C0F07D06868C0F3810002287A
:1016800009D16868C00306D42868800714D520698A
:10169000012808D110E02069B0B1C6F80090FFF72A
:1016A0001BFA074605E00AE1FFF716FAC01B0228FD
:1016B000C4D828688007F7D52868616920F0F80049
:1016C00040EAC10028600DE0C6F80080FFF704FA88
:1016D000074604E0FFF700FAC01B022823D8286859
:1016E0008007F7D4207800072CD57948A169D9B1B3
:1016F000C0F80090FFF7F0F9074604E0FFF7ECF9B7
:10170000C01B02280FD8686A8007F7D571484FF4CC
:10171000FA510068B0FBF1F0009000BF0098411E44
:101720000091FAD20EE080E0C0F80080FFF7D4F913
:10173000074604E0FFF7D0F9C01B022875D8686A95
:101740008007F7D42078400760D5E8690027C000FB
:1017500008D4E86940F08050E861E869012700F0AA
:10176000805000905C480168C90513D40168834625
:1017700041F480710160FFF7AFF9824606E000BFD7
:10178000FFF7AAF9A0EB0A0064284ED8DBF80000A6
:10179000C005F5D5E06801280AD008B1052813D0A6
:1017A000286A20F001002862286A20F0040002E084
:1017B000286A40F001002862E06841F2883B98B155
:1017C000FFF78AF982460BE0286A40F0040028629D
:1017D000EEE700BFFFF780F9A0EB0A0159455AD8A0
:1017E000286A8007F6D50CE0FFF776F9824605E017
:1017F000FFF772F9A0EB0A0159454CD8286A800717
:10180000F6D41FB1E86920F08050E861E06988B340
:101810006968C1F38101022944D00228C6F86080BA
:1018200004D0FFF759F9044638E034E0FFF754F9E3
:10183000074604E0FFF750F9C01B02282BD82868A0
:101840008001F7D4206AB0F5803F05D16868A168AF
:1018500020F4003008436860D4E90801084369684F
:1018600021F4741108436860C6F86090FFF734F9FA
:10187000044606E025E000BFFFF72EF9001B022812
:1018800009D828688001F7D51BE000BFFFF724F9CD
:10189000001B022802D90320BDE8F88F28688001C8
:1018A000F4D40EE00128F7D06868226A00F4803191
:1018B000914204D1616A00F47010884201D0012085
:1018C000EAE70020E8E70000001002400000424282
:1018D00080044242240000200070004010B5401EE9
:1018E000B0F1807F01D3012010BD4FF0E024606192
:1018F0000F21601702F0BDF80020A06107202061D1
:10190000002010BD7047704770B590F83C20012A48
:1019100026D0012480F83C40022280F83D20036854
:101920005A689D6822F070060A6832435A600D4B6F
:1019300002689A4208D0B2F1804F05D00A4B9A4211
:1019400002D00A4B9A4204D1496825F0800319431A
:10195000916080F83D40002180F83C10084670BD41
:10196000022070BD002C014000040040000800402F
:1019700010B5040003D094F83D0010B107E0012039
:1019800010BD002084F83C00204600F01FF8022023
:1019900084F83D00211D206801F04AFE012084F8F2
:1019A000460084F83E0084F83F0084F8400084F844
:1019B000410084F8420084F8430084F8440084F82D
:1019C000450084F83D00002010BD000008B5016806
:1019D0001448B1F1804F14D0134A914220D1C1690B
:1019E00041F00201C161C069002200F002000090D4
:1019F00011461D20FFF7C4FC1D20BDE80840FFF77D
:101A0000B1BCC16941F00101C161C069002200F0AF
:101A10000100009011461C20FFF7B2FC1C20ECE7EF
:101A200008BD0000001002400004004090F83D1086
:101A3000012901D001207047022180F83D10006883
:101A40000B49884208D0B0F1804F05D0094988423F
:101A500002D00949884204D1816801F007010629B2
:101A600003D0016841F001010160002070470000CF
:101A7000002C0140000400400008004070B50446FE
:101A800090F83C00012817D0012584F83C50022032
:101A900084F83D002068826822F0770222F47F42B9
:101AA00082600868502830D00DDC20284DD005DC3D
:101AB00098B310283BD148E0022070BD302844D0B4
:101AC000402834D139E0602828D0702806D0B0F5FD
:101AD000805F2CD0B0F5005F29D10AE0CB68D1E956
:101AE0000121206801F0E7FD2068816841F077015D
:101AF00009E0CB68D1E90121206801F0DCFD206814
:101B0000816841F48041816011E0CA6849682068B9
:101B100001F086FE5021206807E016E0CA68496897
:101B2000206801F08EFE6021206801F0CEFD84F86F
:101B30003D50002084F83C0070BDCA6849682068A8
:101B400001F06EFE40212068EFE722680146104652
:101B5000EBE7704770B50446006801694FF0000577
:101B6000C943890715D4C168C943890711D4E91E3F
:101B7000016101202077206880698007204602D01B
:101B8000FFF7E7FF04E000F0D1F8204600F060F92D
:101B9000257720680169C943490717D4C168C9433B
:101BA000490713D46FF004010161022020772068F7
:101BB000806910F4407F204602D0FFF7CAFF04E09E
:101BC00000F0B4F8204600F043F925772068016959
:101BD000C943090716D4C168C943090712D46FF075
:101BE00008010161042020772068C0698007204631
:101BF00002D0FFF7AEFF04E000F098F8204600F0B6
:101C000027F9257720680169C943C90617D4C16837
:101C1000C943C90613D46FF0100101610820207771
:101C20002068C06910F4407F204602D0FFF791FF82
:101C300004E000F07BF8204600F00AF925772068E0
:101C40000169C943C90708D1C168C943C90704D19B
:101C5000891E0161204600F04BF920680169C943E3
:101C6000090609D4C168C943090605D46FF080018B
:101C700001612046FFF746FE20680169C943490615
:101C800009D4C168C943490605D46FF04001016118
:101C9000204600F02EF920680169C94389060BD45B
:101CA000C168C943890607D46FF02001016120464D
:101CB000BDE87040FFF727BE70BD000010B586B0CC
:101CC00000210091019102910391036813480322BE
:101CD0000221B3F1804F13D0114CA3420ED183697E
:101CE00043F0080383618069CDE9002100F008001A
:101CF000CDE9031069460B48FEF7F8FD06B010BDAC
:101D0000836943F0040383618069CDE9002100F019
:101D10000400CDE9031069460348EDE700100240D6
:101D200000040040000C014000080140704770B5FD
:101D3000044690F83C000D4601280AD0012084F8A2
:101D40003C0042B1042A18D0082A2AD00C2A4DD1CE
:101D500039E0022070BD206801F0C0FC2068816974
:101D600041F0080181612068816921F004018161ED
:101D7000206881692A69114311E0206801F0D6FCCE
:101D80002068816941F4006181612068816921F4E2
:101D900080618161206881692A6941EA022181614B
:101DA00024E0206801F0EEFC2068C16941F00801E0
:101DB000C1612068C16921F00401C1612068C16965
:101DC0002A69114311E0206801F008FD2068C1690B
:101DD00041F40061C1612068C16921F48061C16181
:101DE0002068C1692A6941EA0221C161002084F8A2
:101DF0003C0070BD10B5040003D094F83D0010B154
:101E000007E0012010BD002084F83C00204600F0CF
:101E10001EF8022084F83D00211D206801F008FC16
:101E2000012084F8460084F83E0084F83F0084F8DE
:101E3000400084F8410084F8420084F8430084F8AC
:101E4000440084F8450084F83D00002010BD704730
:101E50007047000010B50446022249B104290ED093
:101E6000082913D094F84100012816D0012010BD94
:101E700094F83E000128F9D184F83E200FE094F850
:101E80003F000128F2D184F83F2008E094F8400098
:101E90000128EBD184F8402001E084F841200122A0
:101EA000206801F0FBFB0F492068884203D1426C97
:101EB00042F4004242642068884208D0B0F1804F6A
:101EC00005D00949884202D00849884204D1816876
:101ED00001F00701062903D0016841F0010101600A
:101EE000002010BD002C014000040040000800400C
:101EF0007047704770477047F8B50268044610682D
:101F0000D168536910F00F0F4FF0000554D003F063
:101F1000010601F4907737435FD0C20705D0CA05A8
:101F200003D5226C42F001022264420705D5DA078C
:101F300003D0226C42F002022264820705D5DA0740
:101F400003D0226C42F004022264020707D501F09C
:101F50002002324303D0226C42F008022264226C39
:101F6000002A35D0800604D5880602D5204601F027
:101F70009AFC20684069216CC0F3801001F00801D0
:101F80000143204625D001F076FC206841694906CE
:101F90001BD5416921F040014161A06BA8B15849AE
:101FA0004163A06BFEF740FC002811D0A06B416B91
:101FB00001B0BDE8F040084783060ED58B060CD56E
:101FC0002046BDE8F84001F06EBC2046FFF793FFC5
:101FD000F8BDFFF790FF2564F8BD266B2023012E86
:101FE00052D1C60650D5CE064ED510685068009026
:101FF000506940062AD5A16B086840680004000CAF
:10200000EAD0A68D8642E7D9E0858869202818D0D5
:10201000D06820F48070D0602068416921F001010F
:1020200041612068416921F04001416184F83E30FE
:1020300025632068C16821F01001C160A06BFEF724
:10204000D0FBA08DE18D401A81B219E0A08DE18D09
:10205000401A81B2E08D0028BED00029BCD0D068E3
:1020600020F49070D0602068426922F00102426141
:1020700084F83E3025632068C26822F01002C260F6
:102080002046FFF737FFF8BD05062BD50D0629D5ED
:1020900094F83D002128F6D1A068B0F5805F01D109
:1020A0002069B0B1206A411C216221680078486033
:1020B000E08C401E0004000CE084E4D12068C1687C
:1020C00021F08001C1602068C16841F04001C16019
:1020D000F8BD206A0088C0F308005060206A801CA8
:1020E0002062E5E74006F3D54806F1D5D1682046E1
:1020F00021F04001D16084F83D3000F039F9F8BD9D
:102100006738000870B5040004D094F83D0000253D
:1021100010B106E0012070BD84F83C50204600F06C
:1021200023F8242084F83D002068C16821F4005180
:10213000C160204601F012FC2068016921F4904141
:1021400001612068416921F02A0141612068C1686C
:1021500041F40051C1602564202084F83D0084F8DA
:102160003E00002070BD0000F0B585B00024009452
:102170000194029403940368424F022042490322CF
:10218000424D4602BB4226D18B6943F480438B61AA
:102190008B6903F4804304938B6943F004038B61E0
:1021A0008969039201F0040104910102CDE9001054
:1021B00069462846FEF79AFB01200096CDE90140CA
:1021C00069462846FEF792FB002201212520FFF7F1
:1021D000D7F8252028E02E4FBB4229D1CB6943F404
:1021E0000033CB61CB6903F4003304938B6943F074
:1021F00004038B618969039201F0040104910421B5
:10220000CDE9001069462846FEF770FB0820CDE9AD
:102210000004694628460294FEF768FB002201216B
:102220002620FFF7ADF82620FFF79CF805B0F0BD9B
:10223000184DAB42FAD1CB6943F48023CB61CB6913
:1022400003F4802304938B6943F008038B6189694D
:10225000114D01F00801CDE90321CDE90060694687
:102260002846FEF743FBE814CDE9000469462846FA
:102270000294FEF73BFB002201212720FFF780F8A4
:102280002720D1E70038014000100240000801403B
:102290000044004000480040000C014090F83E30EF
:1022A000202B0ED159B152B190F83C30012B08D0FF
:1022B000012380F83C300023036301F0ABBB012015
:1022C00070470220704700002DE9F0470646214F75
:1022D00000681F49DFF8809001257C1F4FF40058EB
:1022E000884213D10122E11C1C48FFF7D7FF25705B
:1022F0003878E178884205D1012241464846FEF708
:10230000E5FBA5603020E0700020207014493068A3
:10231000884206D10F490122491E1248FFF7BEFF2D
:1023200065701149306888420DD1387862280CD028
:10233000012241464846FEF7C9FB012205490B48E8
:10234000FFF7ACFFA570BDE8F0870022F1E70000C1
:102350000038014005000020001001404401002029
:10236000004400408801002000480040CC010020CB
:102370007047FEE70148FEF7B7BB00006000002091
:1023800038B5406A002190F83D202B4B46F2A81446
:102390001B68B3FBF4F3C3EBC30303EB83030093AA
:1023A0003BB15B1E009303681B689B0505D5009B32
:1023B000F6E7036C43F020030364436B03B19962B7
:1023C000836B03B1996203681C6824F480641C6009
:1023D0004185436B03B15963836B03B15963036850
:1023E0001C6824F001041C6090F83D402023602C00
:1023F0000BD0282434EA02020FD080F83D3080F858
:102400003E1000BFFEF788FC38BD80F83D3080F8F4
:102410003E100164FEF766FB38BD0268136843F0A6
:10242000010313600268136843F48063136001635F
:1024300080F83D40E6E700002400002070B5044627
:1024400090F83D0094F83E10102901D0402906D1A3
:10245000222804D121680A6822F400620A60282137
:1024600031EA00024FF000054FF0200626D0216827
:102470004968090505D4602803D084F83D6084F8D4
:102480003E50256320684168090537D5416821F42D
:1024900000614160606B3D4990F82120012A11D014
:1024A0004163606BFEF7C0F938B32068016821F022
:1024B0000101016084F83D60606B1CE0256384F8D5
:1024C0003D10DFE7A06B4163A06BFEF7ADF9A0B153
:1024D00020684169C943490605D40069616A0870EA
:1024E000606A401C60622068016821F0010101609F
:1024F00084F83D60A06B416B884710E094F83D1074
:10250000602910D04169C943490605D40069616A50
:102510000870606A401C60622046FEF7FDFB206C7C
:10252000C1071CD115E084F83D6025644169C943A9
:10253000490605D40069616A0870606A401C6062DF
:102540002068016821F0010101602046FEF7CAFA07
:10255000E5E7810703D4410701D4000704D52068CB
:10256000416821F4E061416094F83D00216C490725
:102570000BD5282809D10648E062256384F83D6020
:1025800084F83E502046FEF78DFC70BD8123000884
:102590000000FFFF01684A69D24352050FD46FF46F
:1025A00080624A61002140F8301F2022427381730B
:1025B000026942F0040202610173012070470020A9
:1025C000704710B5C26A438D0168042B06D0438D55
:1025D000032B08D0438D022B1DD012E04A6822F451
:1025E00080624A600CE04B6823F480634B60042AED
:1025F00006D0022A04D001680A6822F480620A60C8
:1026000001680969426A1170416A491C4162418D41
:10261000491E418510BD012A30D0102A2ED0042A2F
:1026200030D0022A2ED00A6842F400720A60016893
:102630000969426A1170416A491C4162428D521E09
:102640004285026812690A70416A491C4162418DE3
:10265000491E418501684A6822F440724A6020217F
:1026600080F83D1090F83E200021402A80F83E106E
:102670000CD012210163FEF716FC10BD0A6822F48B
:102680008062D3E70A6842F48062CFE70163FEF715
:102690000CFC10BD38B590F83D10222914D1418DA5
:1026A000032912D901680969426A1170416A491CFB
:1026B0004162418D491E4185418D032904D1006845
:1026C000416821F48061416038BDC26A022AFBD0B2
:1026D000012901D00029F7D1274946F2A813002289
:1026E0000968B1FBF3F101EB81010091016820233E
:1026F000009C641E009422D00C68A405F8D40C68D9
:1027000024F480640C6001684C6824F4E0644C603C
:1027100001680969446A2170416A491C4162418D1E
:10272000491E418580F83D3090F83E1080F83E20EB
:1027300040291DD012210163FEF7B5FB38BD046CA2
:1027400044F0200404644C6824F4E0644C600168A4
:102750000969446A2170416A491C4162418D491EE0
:10276000418580F83D3080F83E20FEF7D5FA38BD2F
:102770000263FEF79AFB38BD2400002010B5C26A40
:1027800090F83D1021290BD1418D51B1416A026869
:1027900009781161416A491C4162418D491E418598
:1027A00010BD20230021082A13D0202A11D012F5B1
:1027B000803F0ED00268546824F4E0645460112213
:1027C000026380F83E1080F83D3000BFFEF76CFBDE
:1027D00010BD0268546824F4E06454600268146810
:1027E00044F400741460016380F83D3090F83E209A
:1027F00080F83E10402AE9D1FEF758FB10BD0000DA
:1028000010B590F83D1090F83E30C26A048DB4B116
:10281000212903D0402B11D122290FD1418DE1B3C1
:1028200090F83E10402942D0416A0268097811614F
:10283000416A491C4162418D491E418510BD2129D3
:10284000E8D120230021082A13D0202A11D012F524
:10285000803F0ED00268546824F4E0645460112272
:10286000026380F83E1080F83D3000BFFEF71CFB8D
:1028700010BD0268546824F4E0645460026814686F
:1028800044F400741460016380F83D3090F83E20F9
:1028900080F83E10402AE9D100E002E0FEF706FB96
:1028A00010BD0068416821F48061416010BDBDE841
:1028B000104000F0F3B8000078B590F83E50C26ABE
:1028C000046B90F83D6000230168222E73D1066DE1
:1028D0000EB9402D6FD0056D1DB90569B5F5404F96
:1028E0001BD0458D95B3468D484D012E20D0448D8B
:1028F000022C4DD00C6844F480640C6001684C6874
:10290000240579D5AA4273D0012A71D0082A6FD044
:10291000102A6DD0202A6BD06EE04A698A69009235
:102920000A6842F480720A60016D491C016578BD35
:10293000AA4214D10A6822F480620A6001684A68D7
:10294000120504D50A6822F4806217E0FFE74A699D
:102950008A6900920A6842F400720A6050E0082A0C
:1029600010D0202A0ED0122C0AD0042A03D0022A1A
:1029700001D0102AE6D10A6842F480620A603BE086
:10298000012ADFD00A6822F480620A600168DEE76B
:10299000042A11D0022A0FD0102A0DD00C6844F45A
:1029A00000640C6001684C698C6900940C6824F424
:1029B00080640C6008E025E00C6844F480640C60DE
:1029C00001684C698969009101684C68240517D534
:1029D000AA4207D0012A05D0082A03D0102A01D024
:1029E000202A0DD14A6842F480524A6008E0FFE78D
:1029F0004A6842F480524A6001684A6989690091D4
:102A0000036578BD48698869009078BD0000FFFFC4
:102A100090F83E10402910D00169B1F5804F19D0CF
:102A2000016DA9B3016D012910D1416C5FF0F10274
:102A300001F4407142EAD11106E0016D0029416CB8
:102A400005D0C9B241F0010100680161704701F091
:102A5000FE01F9E790F83D102129416C09D0C9B277
:102A600041F0010102681161416B29B1896A49B9DC
:102A700002E001F0FE01F5E7816B0029E6D0896AEA
:102A80000029E3D00068416841F40061416070476B
:102A9000FFE7416CF02201F44071CBE710B590F8EC
:102AA0003D10026D22B3026D012A2FD0026D022A61
:102AB0001DD122292FD0428D0AB1212933D0428D38
:102AC000002A14D1212912D101684A6822F4E06257
:102AD0004A6001680A6842F400720A6000210163DA
:102AE000202280F83D2080F83E10FEF7DFF910BD6F
:102AF000C16C0129816C02D0C1F3072108E0026892
:102B0000C9B21161016D891C016510BD816CC9B22A
:102B10000268116104E001680A6842F480720A6088
:102B2000016D491CF0E7416A026809781161416A48
:102B3000491C4162418D491E418510BD2DE9F84F68
:102B40000446006889460B9D01689846174641F483
:102B5000806101602068016841F480710160009526
:102B60004FF0011B0022594620460A9B00F0B0F9A5
:102B70004FF4007A40B120680068C00501D5C4F860
:102B800040A00320BDE8F88F216809F0FE0008612D
:102B90002B46284920460A9A00F0CEF9F0BB20685F
:102BA0004169806900902A4620460A9900F042FA5D
:102BB00040B1206C04283AD12068016841F40071CA
:102BC000016034E0FEB2B8F1010F09D02168380A83
:102BD00008612A4620460A9900F02CFA0028E8D11C
:102BE000206806612A4620460A9900F023FA002848
:102BF000DFD12068016841F48071016000950022F6
:102C0000594620460A9B00F063F90028B3D1216899
:102C100009F0FF0040F00100086100E007E02B46EA
:102C2000044920460A9A00F087F90028AAD001201A
:102C3000A8E70000020001002DE9F84304460068FF
:102C40000D46DDE9089701689846164641F4807103
:102C500001604B4600224FF001112046009700F022
:102C600037F948B120680068C00502D54FF40070FC
:102C700020640320BDE8F883216805F0FE000861A8
:102C80003B464A461549204600F056F988B9206867
:102C90004169806900903A464946204600F0CAF9E9
:102CA00048B1206C042804D12068016841F4007107
:102CB00001600120DEE7F5B2B8F1010F09D021680B
:102CC000300A08613A464946204600F0B3F9002828
:102CD000E7D1206805610020CCE700000200010078
:102CE00038B50C4690F83D20002128259543026810
:102CF0000B4605D051699169009180F83C3038BD90
:102D0000556825F480655560E243540700D50121DC
:102D1000120601D5828900E0028B80F83C3092B225
:102D2000FDF7E1FE38BD0000F8B590F83D600446BF
:102D30000068416821F4E061416020680025416934
:102D40000091016841F0010101602068016821F4EF
:102D50008061016020684168090520D5474F222E17
:102D600048D02A2E46D0616B096849686185618D1B
:102D700019B1216C41F004012164416821F4006122
:102D80004160606BFDF79CFD012808D0606B4763D4
:102D9000606BFDF749FD10B1606B416B8847608D3A
:102DA00008B320684169C943490708D40069616ACA
:102DB0000870606A401C6062608D401E60852068FB
:102DC0004169C943490608D40069616A0870606AAC
:102DD000401C6062608D401E6085608D18B1206C63
:102DE00040F004002064206C00B32046BDE8F840A9
:102DF000FFF724BBA16B096849686185618D19B132
:102E0000216C41F004012164416821F400614160BA
:102E1000A06BFDF755FD0128C1D0A06B4763A06BE7
:102E2000FDF702FD0028BAD0A06BB6E72A2E06D126
:102E30002563282084F83D002046FEF739FA94F8EF
:102E40003D10202028290DD0216B222901D0222ECF
:102E500007D1256384F83D0084F83E502046FEF7F4
:102E600027FAF8BD0649E162256384F83D0084F83D
:102E70003E502046FEF716F8F8BD000081230008FA
:102E80000000FFFF70B516460D4604460DE02046D3
:102E9000FFF780FB08B1012070BD681C05D0FDF76D
:102EA0001BFE801BA84207D835B120684069C0438B
:102EB0004007ECD4002070BD002044F8300F2021E2
:102EC0006173A073216941F0200121612073E2E761
:102ED0002DE9F0471E4690460D460446C1F30747CC
:102EE000DDF8209008E0701C06D0FDF7F5FDA0EBA2
:102EF0000900B0420FD876B12068012F18D0806940
:102F000025EA00000004000C14D000214145EAD05D
:102F10000020BDE8F087002044F8300F20216173C5
:102F2000A073216941F02001216120730120F0E7A5
:102F30004069E5E70121E9E72DE9F0479A46914626
:102F40000E46044600254FF02008C1F3074725E050
:102F500020684069C043400514D42068016841F4EA
:102F60000071016021686FF480604861256384F816
:102F70003D8084F83E50206C40F00400206484F8CA
:102F80003C501FE0B9F1FF3F08D0FDF7A5FDA0EBD5
:102F90000A0149450CD8B9F1000F09D02068012F6A
:102FA00013D0806926EA00000004000C0BD0CFE7A4
:102FB00044F8305F84F80D80A573206940F020004C
:102FC000206125730120BDE8F0874069EAE72DE91B
:102FD000F041002590460E460446202717E0406940
:102FE000C043C0060CD454F8301B6FF01000486189
:102FF00044F810596777A577206A2062257717E093
:10300000FDF76AFDA0EB0800B04208D83EB1206889
:103010004169C9434906E2D40020BDE8F08144F883
:10302000305F6773A573206940F02000206125732D
:103030000120F2E770B516460D4604460DE0204625
:10304000FFF7A8FA08B1012070BD681C05D0FDF794
:1030500043FD801BA84207D835B120684069C043B2
:103060000006ECD4002070BD002044F8300F202171
:103070006173A073216941F0200121612073E2E7AF
:1030800010B580216B2000F097F86420FDF71CFC40
:1030900000216B2000F090F8032000F058F8002089
:1030A00000F050F8322000F06FF80021382000F0D6
:1030B00083F800216A2000F07FF80021232000F02F
:1030C0007BF88021372000F077F8752000F012F8A7
:1030D000682801D0012010BD01216B2000F06CF8A0
:1030E00000216C2000F068F8322000F04DF800203C
:1030F00010BD00001FB56423012203A98DE80E0056
:1031000013460246D0210548FDF7D2FE10B101203A
:1031100004B010BD9DF80C00FAE70000600000202C
:103120003EB54000CDE900320A46642401460294CF
:1031300001230348FDF7BCFE002800D001203EBD5E
:1031400060000020C006010E1C2000F035B8C0064B
:10315000010E1B2000F030B8BC2801D3012110E083
:10316000622801D302210CE02A2801D3032108E0C0
:10317000142801D3042104E00A2801D3052100E02A
:1031800006211A2000F018B810B504464FF47A70E2
:10319000844201D9044602E0042C00D20424B0FB8E
:1031A000F4F0401EC1B2192000F006F86008BDE836
:1031B0001040FFF7D1BF000003B583B064230122A4
:1031C00004A98DE80E0013460246D0210348FDF7FE
:1031D00097FF002800D0012005B000BD600000204E
:1031E0003EB54000CDE900320A466424014602940F
:1031F00001230348FDF784FF002800D001203EBDD5
:10320000600000202DE9F04385B000252B48009593
:10321000019502950395816941F0100181618169F1
:1032200001F010010491816941F0200181618169FF
:1032300001F020010491816941F0040181618169FB
:1032400001F004010491816941F008018161806904
:103250001B4F00F008004FF4005404900022214658
:103260003846FDF733FCDFF85C800022F021404651
:10327000FDF72CFCDFF85090002280214846FDF736
:1032800025FC009401AA0124022682E87000694608
:103290003846FDF72BFBF0208DE87100694640466B
:1032A000FDF724FB8020CDE90004CDE90246694604
:1032B0004846FDF71BFB05B0BDE8F0830010024057
:1032C0000010014000080140000C01400D4810B5FD
:1032D0000B4901600C49416000214FF4804281603C
:1032E000C0E9031241618161C1610162FDF716FD10
:1032F000002803D0BDE81040FDF771BA10BD0000F2
:103300000054004060000020801A060010B58EB006
:1033100000240794089409940A940B941C2168468D
:103320000C94FDF7C1F821484FF08041C0E900142A
:1033300040F2E731C0E9024104618461FEF718FB05
:1033400008B1FDF74CFA4FF48050079007A91748D1
:10335000FEF794FB08B1FDF742FA1448FEF74AFD68
:1033600008B1FDF73CFA0B940BA910480C94FEF73A
:10337000CBFA08B1FDF733FA6020CDE900040294DE
:103380000022694609480494FEF7D1FC08B1FDF714
:1033900026FA042269460548FEF7C9FC08B1FDF784
:1033A0001EFA0248FEF78AFC0EB010BDB4000020E1
:1033B00010B58EB000240794089409940A940B94D5
:1033C0001C2168460C94FDF76FF8234821490160E1
:1033D00040F21F31C0E9011440F23F61C0E903141B
:1033E0008461FEF7C5FA08B1FDF7F9F94FF4805092
:1033F000079007A91848FEF741FB08B1FDF7EFF960
:103400001548FEF7F7FC08B1FDF7E9F90B940BA995
:1034100011480C94FEF778FA08B1FDF7E0F9602046
:1034200000902820CDE90104082269460A48049446
:10343000FEF77DFC08B1FDF7D2F90C22694606487B
:10344000FEF775FC08B1FDF7CAF90348FEF736FC34
:103450000EB010BD00040040FC0000200C4810B568
:103460000A4901604FF4E1314160002181600C2282
:10347000C160C0E904128161C161FEF743FE00280A
:1034800003D0BDE81040FDF7AAB910BD00380140D7
:10349000440100200C4810B50A4901604FF4E131A5
:1034A0004160002181600C22C160C0E90412816189
:1034B000C161FEF727FE002803D0BDE81040FDF7EC
:1034C0008EB910BD00440040880100200C4810B5A2
:1034D0000A4901604FF4E1314160002181600C2212
:1034E000C160C0E904128161C161FEF70BFE0028D2
:1034F00003D0BDE81040FDF772B910BD0048004090
:10350000CC010020FEE700002DE97040FFF7B8FD78
:103510000028FBD115A118A0FCF784FE4FF400553C
:10352000174C0DE0FDF7D2FA6420FDF7CDF901222A
:1035300029462046FDF7CAFA12A10FA0FCF772FE39
:1035400001F00AFA00284FF0000229462046E9D18E
:10355000FDF7BCFA10A108A0FCF764FE294620463E
:10356000BDE870400122FDF7B1BA00004D50552072
:10357000496E69742E2E2E0025730D0A000000007E
:10358000001001404D70753630353020496E697439
:103590002057726F6E6721004D70753630353020C0
:1035A000496E6974204F4B2100000000FEE7704710
:1035B00070477047FDF77EBE30B58FB02821684652
:1035C000FCF772FF14210AA8FCF76EFF0225012008
:1035D000049000951020059000244FF46010CDE970
:1035E000084007956846FDF7E9FF08B172B6FEE7A7
:1035F0000F20CDE90A054FF48060CDE90C4002218F
:103600000AA80E94FDF7EEFE002801D072B6FEE780
:103610000FB030BD704700000148FEF79BBA0000B4
:10362000B40000200148FEF795BA0000FC0000201D
:10363000F0B50268164B174C174D4FF08047984273
:1036400005D0B84203D0A04201D0A84203D122F055
:1036500070064A683243984205D0B84203D0A0426F
:1036600001D0A84203D122F44074CA6822434C69B5
:1036700022F08002224302608A68C2620A68826283
:10368000984201D10969016301214161F0BD000047
:10369000002C0140000400400008004010B501F07B
:1036A0001F030121046A99408C430462016A9A4015
:1036B0001143016210BD10B5846842EA032224F46C
:1036C0007F440A432243826010BD826822F0700268
:1036D0000A4342F0070181607047000030B5026A7A
:1036E00022F001020262026A4368846924F07305D1
:1036F0000C682C4322F002058A682A430A4DA8422E
:103700000BD122F00805CA6823F440732A434D699F
:1037100022F004021D438B692B4343608461496896
:103720004163026230BD0000002C014030B5026AE6
:1037300022F010020262026A436884690D6824F470
:10374000E64444EA05248D6822F0200242EA05128C
:103750000B4DA8420ED1CD6822F0800242EA05123C
:103760004D6923F4406343EA85038D6922F04002EA
:1037700043EA85034360846149688163026230BD26
:10378000002C014030B5026A22F480720262036AA2
:103790004268C46923F4007324F073050C682C4359
:1037A0008D6843EA05230C4DA8420ED1CD6823F461
:1037B000006343EA05234D6922F4405242EA0512B0
:1037C0008D6923F4806342EA05124260C46149684E
:1037D000C163036230BD0000002C014030B5026AB5
:1037E00022F480520262046A4268C3690D6823F4BD
:1037F000E64343EA05238D6824F4005444EA053483
:10380000064DA84204D14D6922F4804242EA851255
:103810004260C36149680164046230BD002C01400C
:1038200010B5036A046A24F001040462846924F078
:10383000F00444EA021423F00A020A43846102629B
:1038400010BD10B5036A23F0100303628369046A94
:1038500023F4704343EA023224F0A00343EA011147
:103860008261016210BD10B5406A0021C185C1842A
:10387000FEF741FB10BD0168CA6822F49072CA606D
:1038800001684A6922F001024A61016B012904D1F1
:103890000168CA6822F01002CA60202180F83E1038
:1038A00000210163704708B590F83E10222901D02D
:1038B000022008BD82684FF480539A4201D1016909
:1038C00021B1816A9A421BD04AB10AE00268816A3A
:1038D0005268C2F308020A80816A891C08E0026902
:1038E00072B10268526802F07F020A70816A491C54
:1038F0008162C18D491E0904090CC18503D019E0FC
:1039000002685268F1E70168CA6822F02002CA60C2
:103910000168CA6822F48072CA6001684A6922F0AC
:1039200001024A61202180F83E10016B012903D079
:10393000FEF7CAFC002008BD002101630168CA68C7
:1039400022F01002CA6001680A68D20602D50A682D
:1039500049680091818DFEF7CDFAEBE770B504461A
:1039600000680169E26821F4405111430161216955
:10397000A0680843616908432168CA6841F20C6382
:103980009A430243CA6020684169A26921F44071E8
:10399000114341611E492068884202D1FDF7C8FDEC
:1039A00001E0FDF7B5FD00EBC00101EB001260681E
:1039B00064218000B2FBF0F3B3FBF1F36FF0180663
:1039C0007343B2FBF0F5B2FBF0F605EB830532234F
:1039D00003EB0515B5FBF1F5B6FBF1F605F0F005C7
:1039E00005EB0615B2FBF0F6B2FBF0F0B0FBF1F020
:1039F0006FF01802504306EB800003EB0010B0FBA1
:103A0000F1F0216800F00F002844886070BD0000CC
:103A10000038014081628285C28500210164222232
:103A200080F83E2080F83C100168CA6842F4807239
:103A3000CA6001684A6942F001024A610068C168CF
:103A400041F02001C1600020704700000148FEF7EE
:103A500053BA0000440100200148FEF74DBA0000AF
:103A6000880100200148FEF747BA0000CC01002081
:103A7000FEE70907090E002804DB00F1E02080F8CA
:103A80000014704700F00F0000F1E02080F8141DD2
:103A9000704730380A2801D2012070470020704753
:103AA000704700002DE9FE4F07460E460025684688
:103AB00000F03CFC00246FF00F0AE8464FF00109CB
:103AC00057F8240056F82410401A00D5404201F05F
:103AD00015FF514602F0B1F858F8241011F0FF4FCD
:103AE0000BD001F00DFE4FF07E5101F0FFFF0A49AF
:103AF00020F00040884205DC07E0084908440849F6
:103B0000884202D309FA04F00543641C032CD7DB76
:103B10002846BDE8FE8F0000295C0F3E666666C140
:103B20009A99D90008B560B120208DF800002820AE
:103B30008DF8010030208DF8020038208DF8030048
:103B400004E0A32204216846FCF7A6FC6A4604218F
:103B500040F69E2001F0D6FC01F094F908BD00006B
:103B60003EB5044602208DF80000CA208DF8010001
:103B7000E3208DF8020009208DF803006A46042135
:103B8000682001F0BFFCA3208DF80000610609D574
:103B9000C0218DF80110C8218DF80210C2218DF8C6
:103BA000031005E08DF801008DF802008DF8030088
:103BB00014F4C07F09D0C4218DF80410CC218DF8F5
:103BC0000510C6218DF8061005E08DF804008DF86B
:103BD00005008DF806008DF808008DF807008DF8B7
:103BE00009006A460A2140F6A72001F08BFCA007D5
:103BF0004FF0D80503D020208DF8000001E08DF8AB
:103C000000506A46012140F6B62001F07BFCA00678
:103C100001D5012000E0002000F08EF814F4C07FF0
:103C20001ED0E0050AD5B2208DF800008B208DF85B
:103C30000100B6208DF802009B2009E0B0208DF82D
:103C4000000080208DF80100B4208DF80200902043
:103C50008DF803006A46042140F6A22001F052FCD0
:103C6000E1074FF40B6022D0F8218DF800106A466E
:103C7000012101F047FCFA21072000F097FA072004
:103C800000F062FA012000F07FFA642000F022FBCD
:103C90004FF4FA7000F02EFBC821254800F01CFA02
:103CA000282000F031FA0A2000F03EFA05E08DF8F5
:103CB00000506A46012101F025FCA00703D5D92058
:103CC0008DF8000001E08DF800506A46012140F2B5
:103CD0003D7001F017FC600701D5012000E00020D5
:103CE00000F048F8E00601D5012000E00020FFF7D1
:103CF00019FF104D44F00800688101F0C3F800205E
:103D0000A873600601D50620A87314F4C07F02D002
:103D1000A87B801DA87314F0140F02D0A87B10306C
:103D2000A873A00702D0A87B001DA87300203EBD89
:103D300009E3CA02100200200EB54FF4976310B1D8
:103D400006A107C901E008A207CA8DE807006A4674
:103D50000921184601F0D6FB0EBD0000B8AAB38DAC
:103D6000B4980D355D000000B8AAAAAAB088C3C5F2
:103D7000C700000008B560B1C0208DF80000C22067
:103D80008DF80100C4208DF80200C6208DF80300D4
:103D900004E08B2204216846FCF77EFB6A4604217E
:103DA00040F6982001F0AEFB01F06CF808BD000071
:103DB000C8234FF48062024940F6F63000F08CBF11
:103DC000205D00082DE9FF41044603A800F03AFEFB
:103DD000BDF80C00410CC3032F48028902F0030018
:103DE000550754F8200000D54042C2F3C10596069D
:103DF00054F8255000D56D42C2F38116D20554F80F
:103E0000264000D56442A0FB0367C21702FB037281
:103E100000FB0120820042EA9670A5FB0367EA17C7
:103E200002FB037205FB0122950045EA9672A4FB92
:103E30000367E51705FB037304FB01318B0043EABD
:103E40009671030E8DF80030030C8DF80130030AD3
:103E50008DF802308DF80300100E8DF80400100C60
:103E60008DF80500100A8DF80600080E8DF8080080
:103E7000080C8DF80900080A8DF80A008DF8072053
:103E80008DF80B106A460C214FF4257001F03AFBB7
:103E900004B0BDE8F08100001002002030B50446F7
:103EA00013A285B007CA8DE807004FF0FF35C82C74
:103EB00016D8C820B0FBF4F1491E080A8DF80C0092
:103EC0008DF80D1003AA022140F2162001F01AFB12
:103ED00030B96A460C2140F6C12001F013FB10B145
:103EE000284605B030BD054884810020F9E7000070
:103EF000FEF2ABC4AAF1DFDFBBAFDFDF10020020B0
:103F0000F8B53049098901F0030250F822404A0708
:103F100000D56442C1F3C1028B0650F8222000D5BF
:103F20005242C1F3811350F82330C80500D55B42DB
:103F3000254984FB0140850045EA947082FB0142DB
:103F4000A40F44EA820483FB0121950F45EA810511
:103F5000010E8DF80010010C8DF80110010A8DF88A
:103F600002108DF803006A4604214FF4747001F0CA
:103F7000C9FA4FF0FF3688B9200E8DF80000200CEA
:103F80008DF80100200A8DF802008DF803406A4682
:103F900004214FF4757001F0B5FA08B13046F8BD50
:103FA000280E8DF80000280C8DF80100280A8DF8E5
:103FB00002008DF803506A4604214FF4767001F038
:103FC000A1FAF8BD1002002009E3CA022DE9FF4161
:103FD00004463CA004F00303006802903AA0006885
:103FE00003903AA006683AA0056802A8C15C8DF863
:103FF0000010C4F3C101425C8DF80120C4F38112AA
:10400000805C8DF8020003A8C35C8DF80430415C2D
:104010008DF80510805C8DF806006A46032140F299
:10402000264001F06FFA4FF0FF37E0BB01AA0321F1
:1040300040F22A4001F066FAA8BBCDE900656007AE
:104040000BD59DF8000040F001008DF800009DF8B0
:10405000040040F001008DF80400A0060BD59DF887
:10406000010040F001008DF801009DF8050040F0CE
:1040700001008DF80500E0050BD59DF8020040F029
:1040800001008DF802009DF8060040F001008DF857
:1040900006006A4603214FF4886001F033FA10B934
:1040A00001AA032100E004E040F2314001F02AFAC5
:1040B00018B1384604B0BDE8F081064804810020FC
:1040C000F8E700004CCD6C000CC92C003656760089
:1040D00026466600100200204FF47A7290FBF2F040
:1040E00008B54843010E8DF80010010C8DF8011041
:1040F000010A8DF802108DF803006A4604214FF47E
:10410000AE7001F0FFF908BD0521B0FBF1F008B574
:10411000010A8DF800108DF801006A4602214FF463
:10412000AD7001F0EFF908BD0521B0FBF1F008B565
:10413000010A8DF800108DF801006A4602214FF443
:10414000AC7001F0DFF908BD08B500218DF8001052
:10415000C10702D030218DF80010810705D59DF8E8
:10416000001041F00C018DF80010400705D59DF8B6
:10417000000040F003008DF800006A4601214FF472
:10418000A47001F0BFF908BD08B560B1042800D9DA
:104190000420401E8DF800006A46012140F24F10B5
:1041A00001F0B0F908BD0120F3E700002DE9FC4162
:1041B000054640074FF0FF367CD0B1F5C86F79D87F
:1041C000084601F0B3FB3E4901F09AFA074601A800
:1041D00000F01AFC9DF80400022806D004280DD037
:1041E00008282ED0102865D134E00E21384601F081
:1041F00024FD01F063FB84B2324907E00D2138460B
:1042000001F01BFD01F05AFB2F4984B2384601F042
:10421000A1FB01F053FB210A8DF8001080B28DF84C
:104220000140010A8DF802108DF80300E8076C4682
:1042300020D0224602214FF4EA7001F063F9C8BB96
:1042400011E00C21384601F0F8FC01F037FB84B294
:104250001E49DBE70B21384601F0EFFC01F02EFB95
:1042600084B21B49D2E7A21C02214FF4927001F0E4
:1042700049F9F8B9A8070DD56A4602214FF4EC7048
:1042800001F040F9B0B9A21C02214FF4947001F082
:1042900039F978B9680710D56A4602214FF4EE70F3
:1042A00001F030F930B9A21C02214FF4967001F0F0
:1042B00029F910B13046BDE8FC810020FBE7000081
:1042C00000004843000040460000C0450000404553
:1042D0000000C0440521B0FBF1F008B5010A8DF8DB
:1042E00000108DF801006A4602214FF4EF7001F0D2
:1042F00009F908BD0521B0FBF1F008B5010A8DF8F8
:1043000000108DF801006A4602214FF4ED7001F0B3
:10431000F9F808BD04490A681206FCD5024AC1B280
:10432000121D116070470000004800402DE9FE4357
:104330000646264801AB042240680D210078FEF7AE
:10434000EFFE10B10720BDE8FE839DF804101C208D
:1043500000EAD1029DF80710DFF87490C1F3011351
:104360001A438DF800209DF80520C1F3810300EA6F
:10437000D2021A438DF801209DF8062001F00301B6
:1043800000EAD20008430024124F8DF80200A04634
:104390006D46285D10B146F824900AE046F8248066
:1043A0000DE000BF56F82400394601F0D3FA46F874
:1043B0002400285D401E10F0FF002855F2D1641C37
:1043C000E4B2032CE5D30020BDE700002800002064
:1043D0007B14AE3E1D5A843F2DE9FE4F0546012059
:1043E000C14E8DF800004FF000088DF80180306854
:1043F0000C461746817C70686B4602220078FEF7F7
:10440000EFFE4FF0FF3A00287AD1C820FCF75CFAA3
:104410008DF8008030686B460122C17B706800789F
:10442000FEF7DEFE0028EFD130686B4601224179AD
:1044300070680078FEF7D4FE0028E5D130686B463E
:104440000122817C70680078FEF7CAFE0028DBD16B
:1044500030686B460122C17D70680078FEF7C0FEAF
:104460000028D1D130686B4601220179706800784C
:10447000FEF7B6FE0028C7D14FF00C098DF800906A
:1044800030686B460122017970680078FEF7A8FE5B
:10449000002835D10F20FCF717FAB06A6B460122CD
:1044A000407A8DF800003068817870680078FEF7F7
:1044B00097FE002824D1B06A6B460122007A8DF85D
:1044C00000003068417870680078FEF789FE0028A7
:1044D00073D1B06A807A0FB140F0E0008DF800002F
:1044E00030686B460122817970680078FEF778FEAB
:1044F000002862D12FB1B06AC07A40F0E00001E03C
:104500004AE018208DF8000030686B460122C1791E
:1045100070680078FEF764FEF0BB17B1C820FCF7A6
:10452000D3F940208DF8000030686B4601220179F4
:1045300070680078FEF754FE70BB78208DF800009C
:1045400030686B460122417970680078FEF748FEBA
:1045500010BB3220FCF7B8F98DF800803068474670
:104560006B464179706801220078FEF739FE98B9F0
:1045700031687068B046897A00786B460222FEF78F
:10458000CFFD48B9BDF80000AF6040BAB0FBF9F00C
:104590006F60C6B22F6000E00FE0A7606760276021
:1045A000002739E0D8F80010D8F804006B46C97A23
:1045B00000780C22FEF7B4FD10B15046BDE8FE8F26
:1045C000BDF80000236840BA02B2BDF80200BDF891
:1045D00004101A44226040BA626800B2104460605D
:1045E00049BAA06809B20844A060BDF806002B686B
:1045F00040BA02B2BDF808001A4440BA01B2BDF890
:104600000A002A606A6840BA11446960A96800B269
:1046100008447F1CFFB2A860B742C3D32868832236
:10462000C117090441EA104100040023FBF7D5FD3E
:1046300032460023FBF7D1FD286068688322C1174A
:10464000090441EA104100040023FBF7C6FD32468D
:104650000023FBF7C2FD6860A8688322C117090424
:1046600041EA104100040023FBF7B7FD3246002366
:10467000FBF7B3FDA86020684FF40065C11709047B
:1046800041EA104100042A460023FBF7A6FD32460A
:104690000023FBF7A2FD206060682A46C1170904C9
:1046A00041EA104100040023FBF797FD3246002346
:1046B000FBF793FD6060A0682A46C117090441EA30
:1046C000104100040023FBF788FD32460023FBF76E
:1046D00084FDA060002802DDA0F5803001E000F537
:1046E0008030A060002069E7280000202DE9F84F05
:1046F00081462E488846002540686B460322007894
:104700000D21FEF70DFD10B10720BDE8F88F9DF8D3
:104710000000002400F01F008DF800009DF801004B
:104720006FF00F0B00F01F008DF801009DF80200E4
:104730006E4600F01F008DF802004FF0010A00BF26
:1047400059F8241058F82400081A00D5404201F006
:10475000D5F8594601F071FA0746305DC0B11448EA
:1047600002E0144901F0F6F8315D491E11F0FF0135
:104770003155F6D10146384600F0C2FF4FF07E5168
:1047800001F0B4F90C4920F00040884205DC07E054
:104790000A483844B0F1D97F02D90AFA04F0054337
:1047A000641C032CCCDB2846AFE700002800002067
:1047B0000000C84154E3853F295C0F3E0000E0BE85
:1047C00000B5024600F00DF80346D01C00F009F8D1
:1047D00043EAC003901D00F004F843EA801080B261
:1047E00000BD90F90010002902DD4FF00000704775
:1047F00002DA4FF00400704790F90110002902DD41
:104800004FF00100704702DA4FF00500704790F951
:104810000200002802DD4FF00200704702DA4FF07C
:10482000060070474FF0070070470000FCF74AFD94
:10483000FEF7C2FEFEF7E6FCFEF748FDFEF766FD5A
:10484000FEF70CFEFEF726FEFEF740FEFEF7B0FD7B
:104850001E48FDF7EBF800211C48FDF7FBFA042188
:104860001A48FDF7F7FA1A48FDF7E0F80021184852
:10487000FDF7F0FA04211648FDF7ECFA0821144878
:10488000FDF7E8FA0C211248FDF7E4FA012211497C
:104890001148FDF703FD0F490122491C0F48FDF7A0
:1048A000FDFC0C490122891C0D48FDF7F7FC094964
:1048B0006220891C0870FEF727FE00F013F840F60E
:1048C000B830FCF701F8FBF781FFFEE7B4000020E9
:1048D000FC0000200300002044010020880100208B
:1048E000CC01002010B5064C012250212046FCF7D7
:1048F000EDF820460022BDE81040A021FCF7E6B804
:10490000000801402DE9F041124C20F00101002582
:1049100094F8240010B10020BDE8F081A07A4FF097
:10492000FF3668B10840277C2074884200D03546A5
:1049300041B1012000F050FE00F0A4FA38B1277414
:104940003046E9E7207D00B1012000F045FE284611
:10495000E2E700002800002010B52948FCF7DEF946
:104960006420FBF7B1FF00F0F3F888BB782000F07B
:104970006DFD10F0FF0F01D0012010BD7820FFF772
:10498000C1FF10F0FF0F01D0022010BD642000F025
:104990001DFD10F0FF0F01D0032010BDFFF708FA36
:1049A00010F0FF0F01D0042010BD1648FFF708FFDC
:1049B000FFF70CFB10F0FF0F01D0052010BD40F2F7
:1049C0007310FFF7CDF810F0FF0F02D0062010BDD6
:1049D00014E06420FFF762FA10F0FF0F01D0072007
:1049E000F5E700F0B9FD08B10820F0E7012000F07C
:1049F00013FC10F0FF0F01D00920E8E70020E6E7E4
:104A000060000020540000200D494A7A42B1012A7A
:104A100008D0022A0FD0032A0FD04FF0FF30704782
:104A2000022200E004220270C97C11B11106C90DF6
:104A30000170002070470822F5E71022F3E700001C
:104A4000280000200F494A7A42B1012A09D0022ADF
:104A500011D0032A12D04FF0FF3070474FF480423C
:104A600001E041F69C720280C97C11B1C2F34E0193
:104A70000180002070474FF48052F4E74FF4006249
:104A8000F1E70000280000200B49097A39B101291B
:104A900007D002290AD003290BD0002103E0FA2114
:104AA00001E04FF4FA710180002070474FF47A71F1
:104AB000F9E74FF4FA61F6E7280000200A49097A7D
:104AC00041B1012908D002290AD003290AD04FF0A8
:104AD000FF307047054900E005490160002070473C
:104AE0000449FAE70449F8E72800002000000343DE
:104AF0000000834233330342333383410C49C97A84
:104B0000072913D2DFE801F01204060A0C0E100088
:104B1000BC2100E062210180002070472A21FAE7D1
:104B20001421F8E70A21F6E70521F4E70021F2E76E
:104B300028000020054991F8242012B14FF0FF30E1
:104B40007047C989018000207047000028000020BC
:104B50002DE9FC414C4C80208DF8000020686B460C
:104B60000122817C60680078FEF73AFB4FF0FF3746
:104B7000002832D16420FBF7A7FE00258DF80050F5
:104B800020686B460122817C60680078FEF728FB74
:104B9000002870D120686B460622817D606800780D
:104BA000FEF7BEFA002866D19DF805009DF80310B7
:104BB000C007400F01F0010140EA41019DF80100EA
:104BC0004FF0010600F00100014309D0012905D092
:104BD000022915D02DA0FBF725FB4CE0E67410E070
:104BE00020686B460122C17860680078FEF798FA69
:104BF00040BB9DF8000010F00F0020D0042822D008
:104C0000E574FF2004F80A0F4FF6FF7104F8020C58
:104C100004F8010C6070A180A0712072A670267645
:104C20006576E572A572E56025616561A576E57634
:104C3000A5834FF4FA6000F02BFB18B907E01D487C
:104C4000FBF7F0FA17E01CA0FBF7ECFAC6E702202E
:104C500000F040FA78B92A2000F082FB58B93220DF
:104C600000F0B4FB38B90020FFF74CFE18B9002063
:104C700000F064FA10B13846BDE8FC81002000F075
:104C8000E5FB0020F8E7000028000020556E737552
:104C900070706F7274656420736F6674776172658B
:104CA0002070726F64756374207265762025642E9F
:104CB0000A0000002869000848616C662073656E70
:104CC0007369746976697479207061727420666F93
:104CD000756E642E0A0000002DE9FF4FDFF8948006
:104CE000064685B098F8250015460F464FF0FF3967
:104CF000B0BBAFB3002420E0301B102800DD102033
:104D000080B283463A1901469246204600F0FAFBEB
:104D100030BB6A465946204600F08AF800BB504630
:104D20005A466946FBF78CFB20B16FF0010009B0D1
:104D3000BDE8F08F04EB0B0084B2B442DCD3280A48
:104D40008DF810008DF81150D8F80000444604ABDF
:104D5000817ED8F8040002220078FEF741FA08B1FB
:104D60004846E4E7012084F825000898E084002004
:104D7000DDE70000280000202DE9F84305464FF04C
:104D8000FF39282844D80727284C00267DB1012068
:104D900000F0B4FA20208DF800004FF00108012D3A
:104DA00017D0052D18D88DF8018005201FE00020B0
:104DB00000F0A4FA8DF800608DF8017020686B4651
:104DC0000222817C60680078FEF70AFA00BB267533
:104DD00029E08DF80160E8E7142D04D802208DF851
:104DE00001000A2003E003208DF80100142000F0E8
:104DF000B7FA9DF801006B4607EB80108DF80100B3
:104E000020680222817C60680078FEF7E9F910B121
:104E10004846BDE8F8830820A072267384F8148001
:104E20000020FFF76FFD0020F3E7000028000020BE
:104E3000F8B516000D464FF0FF371FD0104CA17A81
:104E4000E1B1010A8DF80010C0B28DF801004119DE
:104E500060684289914211D8216800786B46097ECA
:104E60000222FEF7BDF948B92068EAB23346417D17
:104E700060680078FEF754F9002800D03846F8BD85
:104E800028000020F8B5564C4FF0FF36A07A0028D5
:104E90007DD000258DF8005020686B460122C17B33
:104EA00060680078FEF79CF9002870D120686B4696
:104EB0000122417960680078FEF792F9002866D1F6
:104EC00020686B460122017960680078FEF788F956
:104ED00000285CD194F82400E0B30C208DF8000089
:104EE00020686B460122017960680078FEF778F946
:104EF000002872D13220FBF7E7FCC0208DF80000BB
:104F0000A07AC00702D0E0208DF8000020686B4630
:104F10000122017960680078FEF762F900285CD10F
:104F2000607C18B102208DF8000001E08DF800507F
:104F300020686B460122C17B60680078FEF750F95B
:104F400028BB8DF8005020686B46012241796068CB
:104F500000783EE0FFE704208DF8000020686B46F3
:104F60000122017960680078FEF73AF978B9A07CEF
:104F700090B9A07AC0070FD05FF060008DF80000F4
:104F800020686B46012201796068007800E024E027
:104F9000FEF726F908BB01E04020EFE73220FBF7DF
:104FA00093FC607C18B101208DF8000001E08DF8C1
:104FB000005020686B460122C17B60680078FEF7D4
:104FC0000FF950B92068064B01224179606810330F
:104FD0000078FEF705F9002800D03046F8BD000043
:104FE000280000202DE9F047394C82468AB094F819
:104FF00024000F4620B1002000F00EF9012600E049
:10500000002607A8FFF740FD06A8FFF7FDFC09A84A
:10501000FFF774FD08A8FFF78DFD94F80A9094F847
:1050200010800025002239465046FFF7D5F910B10F
:105030006D1C022DF6DB022D1AD00025012203A9DA
:105040006846FFF7C9F910B16D1C022DF6DB022D81
:105050000ED003A93846FEF725FDC7B26946504673
:10506000FFF744FB10F0FF0F4FF0000502D002E005
:10507000002503E001250FB945F00205FF2020724D
:105080006072E0724FF6FF71E181A072207401201E
:105090002073BDF81C0000F0FBF89DF8180000F02C
:1050A00019F8BDF8240000F05BF9BDF8200000F00D
:1050B0008DF9484600F0CAF94046FFF723FC16B1C7
:1050C000012000F0A9F80AB02846BDE8F0870000EA
:1050D0002800002038B5184C4FF0FF35A17A19B3DD
:1050E000022806D0042806D008280ED010281BD18C
:1050F0000DE0002000E008208DF80000607A9DF8A7
:105100000010B0EBD10F04D005E01020F4E7182018
:10511000F2E7002038BD20686B460122C179606843
:105120000078FEF75DF808B1284638BD9DF800000C
:10513000C0086072EDE7000028000020F8B5354C8B
:105140000546A07CA84201D10020F8BD31484FF0AF
:10515000FF366B46D0E900104FF001020979007864
:1051600035B3FDF7DDFF70BB9DF800006B4620F006
:1051700020008DF800002068012201796068007825
:10518000FEF72EF8F8B90320FBF79EFB02208DF8FE
:10519000000094F8220078B382202BE020686B4650
:1051A0000122017D60680078FEF71AF858B92EE0F8
:1051B000FDF7B6FF38B9A07AC0079DF8000003D00C
:1051C00040F0200002E00CE020F020008DF800000C
:1051D00020686B460122017960680078FEF700F8CC
:1051E00008B13046F8BD0320FBF76EFB94F82200AF
:1051F00000B180208DF8000094F823000028CDD065
:105200009DF8000040F030008DF80000C6E7A5745E
:105210009AE700002800002038B51C4C94F82410B0
:1052200081421DD0002500B394F82500D0B10020A4
:1052300000F0D2F90020FFF781FFE08C00F0C6F803
:105240008DF8005060686B46012200782321FDF73D
:10525000C7FF012084F8240000F0BEF9FFF712FE1A
:10526000002038BD4FF0FF3038BD002000F0B4F909
:10527000207C8DF8000060686B46012200782321B5
:10528000FDF7AEFF84F82450E8E700002800002076
:1052900038B5194C4FF0FF35A17A31B3FA2809D04F
:1052A000B0F5FA7F08D0B0F57A7F0FD0B0F5FA6F7D
:1052B0001BD10DE0002000E008208DF80000207ACE
:1052C0009DF80010B0EBD10F04D005E01020F4E7FA
:1052D0001820F2E7002038BD20686B460122817952
:1052E00060680078FDF77CFF08B1284638BD9DF85E
:1052F0000000C0082072EDE72800002038B5174CE8
:10530000054694F82300A84201D1002038BD0DB114
:10531000302000E000208DF80000A07C28B19DF82E
:10532000000040F002008DF8000094F8220028B13F
:105330009DF8000040F080008DF8000020686B466A
:105340000122017D60680078FDF74AFF10B14FF03F
:10535000FF3038BD84F82350D7E700002800002034
:1053600038B5194C4FF0FF35A17A31B3BC2801D3C1
:10537000012010E0622801D302200CE02A2801D38A
:10538000032008E0142801D3042004E00A2801D3F4
:10539000052000E006208DF80000E07A9DF800105E
:1053A000884201D1002038BD20686B4601228178F7
:1053B00060680078FDF714FF08B1284638BD9DF8F5
:1053C0000000E072EEE7000028000020F8B51E4D56
:1053D00004464FF0FF37A87A48B395F8240030BB55
:1053E000287D4FF47A7648B164B1282C03D8E0B216
:1053F000FFF7C2FC26E00020FFF7BEFC042C05D21C
:10540000042406E00020FFF7B7FCF9E7B44200D916
:105410003446B6FBF4F0401E8DF8000028686B4659
:105420000122417868680078FDF7DAFE08B1384655
:10543000F8BD9DF80000401CB6FBF0F0E881400884
:10544000FFF78EFF0020F8BD28000020F8B50546C4
:1054500010F0700F4FF0000601D0012004E015B1EC
:105460008DF8006002E040208DF80000244C6B466F
:1054700001222068817C60680078FDF7B1FE4FF062
:10548000FF3760BB9DF8000020F0400020738DF8CE
:105490000060680602D404208DF80000A80605D438
:1054A0009DF8000040F002008DF80000E80605D4E9
:1054B0009DF8000040F001008DF80000280705D499
:1054C0009DF8000040F038008DF8000020686B4621
:1054D0000122C17C60680078FDF782FE10B1A672DF
:1054E0003846F8BD25B1082D02D00020FFF706FF91
:1054F000A57226753220FBF7E7F90020F8BD000001
:1055000028000020F8B516000D464FF0FF371FD0D9
:10551000104CA17AE1B1010A8DF80010C0B28DF8EB
:105520000100411960684289914211D821680078D0
:105530006B46097E0222FDF753FE48B92068EAB2A5
:105540003346417D60680078FDF74AFE002800D0B0
:105550003846F8BD2800002010B588B0694604A878
:10556000FFF740FD032802D0012008B010BD07A8B6
:10557000FFF7A4FA049800F0C1F907990C4600F06F
:10558000E9F900F07FF90490059800F0B7F9214699
:1055900000F0E0F900F076F90590069800F0AEF919
:1055A000214600F0D7F900F06DF9069004A8FEF747
:1055B000A7FC03A8FFF746FABDF80C000099414389
:1055C000009101994143019102994143684602913A
:1055D000FEF7F8FB0020C8E7F8B5144C0146224658
:1055E00094F82460D2E9000200235D1E56B179B11F
:1055F000022111E0C17B10786B460122FDF7F0FD1E
:1056000068B90EE0A67A56B111B1617C61B902E0C9
:105610008DF80030EEE701218DF80010EAE728460A
:10562000F8BD9DF8000060740020F8BD280000203F
:1056300090EA010F48BF81F0004100F15E82421AFA
:105640003CBF801A89184FEAD0524FF07F4C1CEAB9
:10565000410FA2EBD15318BF9CEA026F00F03B80D0
:105660004FF0004C4CEA00204CEA012121FA03FCE7
:1056700010EB0C0C1ED202F1FF325FEA1C2040EB53
:10568000C25038BF70471CF07F0F4FEA400C18BF64
:10569000BCF17F4F38BF7047C3F12003994008BF6A
:1056A00020F00100BCF17F4F38BF7047A0F1C0402F
:1056B00000F017BA4FEA3C00000A40EBC25028BF86
:1056C0001CF0FF0F4FEA400CE6D018BFBCF17F4F33
:1056D00038BF7047EAE79CEA026F05D010EA5C0F1A
:1056E00008BF00F00040704710B500F0B4F900BFEB
:1056F00064FBBE3E014800F06EBA00BF0000C07FF0
:105700004FF47F0C1CEAD0121EBF1CEAD11392EAA0
:105710000C0F93EA0C0F00F0858090EA010F48BF50
:1057200042F4807240F4000C41F400002CF07F4100
:1057300020F07F4000B58142A2EB03020FF2081C6B
:10574000ACEB504EC0F100009EF800E04FEA4E0E68
:1057500000FB0EFC38BF49004FEA2C1C02F5FA0290
:105760000CFB0EF34FEACE1E4FEA112C4FEAC1217B
:105770000EEB635E42EB22420EFB0CFC4FEA1C5325
:1057800000FB03114FEA112C4FEA01310EFB0CFC18
:105790004FEADC4C00FB0C11C14228BF09184CEB4E
:1057A00003335DF804EB10EB410143EBC250B2F55B
:1057B0007C0F38BF704729D512F0F00F1CBF00F1E5
:1057C000C04000F000407047008182838485868756
:1057D00088898B8C8D8E8F919293959697999A9CB0
:1057E0009D9FA0A2A3A5A7A8AAACAEB0B2B3B5B71F
:1057F000B9BCBEC0C2C5C7C9CCCED1D4D7D9DCDFF5
:10580000E2E6E9ECF0F3F7FAFE0000004FEA400CA4
:105810000CF1807CBCF17E4F28BF7047B0F1C040D6
:1058200000F05FB990EA010F0CEAD11348BF42F4CF
:105830008072624538BF634507D213F47F0F16D0DC
:1058400080EA010000F00040704710B500F003F955
:10585000097EFC3E00F005B880EA010000F000403F
:10586000704780EA010000F0004000F03AB912F4FD
:105870007F0F04BF0248704780EA010000F031B991
:105880000000C07F41000B0ED3F19E0208D950F4F6
:1058900000034FEA032323FA02F048BF4042704757
:1058A00010B500F0D8F800BF49922480002070475E
:1058B0006FF0004282EA200070470000C10DD1F174
:1058C0009E0206DB4FEA002343F0004323FA02F076
:1058D0007047004207D54FEA4001B1F1FE4F02D2B6
:1058E0004FF00000704710B500F0B5F849922480E1
:1058F000002070476FEA20007047000010F0004160
:1059000048BF4042B0FA80F310FA03F2C3F19D039E
:105910000BD051EAC35101EB1220530638BF704738
:1059200000F1010008BF20F001007047B0FA80F3D9
:1059300010FA03F2C3F19D030AD0D90501EB12203E
:10594000530638BF704700F1010008BF20F0010086
:10595000704700004FF47F0C1CEAD0121EBF1CEAF7
:10596000D11392EA0C0F93EA0C0F00F0478090EAF3
:10597000010F48BF42F480724FF0004C4CEA002007
:105980004CEA012102EB0302A0FB0113A2F5000285
:10599000002918BF43F001035B0028BF4FEA33031F
:1059A00042EB22425FEA132C4CEBC2502EBFBCEB01
:1059B000436FB2F57C0F70474FEA036CBCF1004FA8
:1059C00008BF20F00100B2F57C0F38BF70470BD53F
:1059D00082F0FF0212F5803FC8BF704700F1C0405F
:1059E000D8BF00F00040704700F5000C5FEA4C0C97
:1059F00048BF7047B0F1C04000F073B890EA010FA3
:105A00000CEAD11348BF42F48072624538BF634547
:105A100004D280EA010000F00040704710B500F0A9
:105A20001AF800BF8900013E00F007B800F009B87D
:105A30005FEA410C5FEA1C6C08D080EA010000F0CC
:105A400050B85FEA400C5FEA1C6CF6D14FF00040A2
:105A5000A0F5800070470EF1020E2EF0030E5EF8E6
:105A6000044B244204D44FEA4102B2F17F4F11D8D3
:105A70004FEA4003B3F17F4F0CD80ED14FEAD07CF0
:105A8000B2F17F4F0CEB4C0C0CF1020C08BF4CEB4D
:105A9000D17C04E04FF0080C01E04FEAD17C0CEB24
:105AA0004C0324FA03F404F00704B4F1040C06D206
:105AB0000EEB840CBDE810404CF0010C6047DFE8B1
:105AC0000CF0070802024FF00040A0F5800010BD66
:105AD0000846420018BFD2F1807288BF00F0004033
