:020000040800F2
:100000002808002091010008C3280008C71C000828
:10001000C12800085F050008852D000800000000C9
:10002000000000000000000000000000C7280008D9
:100030006105000800000000C5280008C928000864
:10004000AB010008AB010008AB010008AB010008E0
:10005000AB010008AB010008AB010008AB010008D0
:10006000AB010008AB010008AB010008AB010008C0
:10007000AB010008AB010008AB010008AB010008B0
:10008000AB010008AB010008AB010008AB010008A0
:10009000AB010008AB010008AB010008AB01000890
:1000A000AB010008AB010008AB010008AB01000880
:1000B0002D29000839290008AB010008C91C0008D7
:1000C000AB010008AB010008AB010008AB01000860
:1000D000AB010008612D00086D2D0008792D000886
:1000E000AB010008AB010008AB01000800F002F80A
:1000F00000F03FF80AA090E8000C82448344AAF183
:100100000107DA4501D100F034F8AFF2090EBAE880
:100110000F0013F0010F18BFFB1A43F0010318473B
:10012000B42D0000D42D0000103A24BF78C878C147
:10013000FAD8520724BF30C830C144BF04680C60ED
:10014000704700000023002400250026103A28BF35
:1001500078C1FBD8520728BF30C148BF0B60704739
:10016000642900F04380002070471FB51FBD10B503
:1001700010BD00F0C9F91146FFF7F7FF02F028FEA5
:1001800000F0E7F903B4FFF7F2FF03BC02F012FE40
:100190000948804709480047FEE7FEE7FEE7FEE71B
:1001A000FEE7FEE7FEE7FEE7FEE7FEE70448054957
:1001B000054A064B7047000029290008ED00000899
:1001C00028020020280800202804002028040020FD
:1001D000704700000FB4044910B503AA029800F05C
:1001E00061F910BC5DF814FB040000202DE9F0411A
:1001F0000646002410687529314616A510D0AFF3C5
:100200000080002802DA404213A507E031688A071F
:1002100001D512A502E0490704D511A5012401E08A
:10022000AFF3008000210A2206F1240709E0B0FBA9
:10023000F2FCB0FBF2F302FB1C003030785418469D
:10024000491C0028F3D123462A463046BDE8F04138
:1002500000F0CFB8000000002D0000002B000000CF
:10026000200000002DE9F05F894604464FF0000AA7
:10027000DFF824B1FB44C0F820A02046E16888479D
:1002800000287DD0252806D0D4E901219047206A96
:10029000401C2062F1E700255F462046E168884760
:1002A0002028064607DB312E05D2B81910F8200C9D
:1002B00008B10543F1E7A80701D525F00405C4F806
:1002C0001CA00027C4F818A02A2E09D0304602F03E
:1002D0006AFD38B304EB8708303EC8F8186019E0AF
:1002E00059F8041B204604EB87029161E1688847B6
:1002F000012F064618D1E069002820DA25F02005F4
:100300001DE0D8F8180000EB800006EB4000303804
:10031000C8F818002046E1688847064602F043FD09
:100320000028EED1012F0AD02E2E08D12046E168F8
:1003300088477F1C0646022F45F02005C4DBA069D4
:10034000002803DA404245F00105A061E80701D02A
:1003500025F01005A6B1A6F14100192802D82036D3
:1003600045F400654A463146204625604D46FFF774
:10037000F7FE60B1012807D0ED1D25F0070000E071
:1003800007E000F1080978E705F1040975E7304650
:100390007AE7206ABDE8F09F482C00004FF0000289
:1003A00000B5134694469646203922BFA0E80C506B
:1003B000A0E80C50B1F12001BFF4F7AF090728BF46
:1003C000A0E80C5048BF0CC05DF804EB890028BFC2
:1003D00040F8042B08BF704748BF20F8022B11F0EB
:1003E000804F18BF00F8012B704770477047704767
:1003F00070472DE9F0470D4699469246044600F1B4
:1004000024080168880604D5E06921F01001216004
:1004100000E00120A84201DD471B00E00027A169A0
:100420007A1902EB0900081AA0612078C00602D4EC
:100430002046AFF30080002608E0D4E901211AF835
:1004400006009047206A401C761C20624E45F4DB73
:100450002078C0060AD52046AFF3008006E0D4E934
:10046000012130209047206A401C2062381EA7F1ED
:100470000107F4DC07E0D4E9012118F805009047F2
:10048000206A401C2062281EA5F10105F3DC2046ED
:10049000AFF300802078000602D50220BDE8F08787
:1004A0000120FBE7074B70B50D467B4400F011F8C7
:1004B0000446284600F020F810B14FF0FF3070BD20
:1004C000204670BD0B29000001694A1C02610878B2
:1004D000704700B58FB0CDE9013100210591054984
:1004E0007944CDE9031011466846FFF7BBFE0FB013
:1004F00000BD0000E5FFFFFF007B00F080007047BB
:1005000000487047C80100207546FFF7F9FFAE4666
:1005100005006946534620F00700854618B020B50F
:10052000FFF744FEBDE820404FF000064FF0000703
:100530004FF000084FF0000B21F00701AC46ACE88B
:10054000C009ACE8C009ACE8C009ACE8C0098D46F8
:1005500070470446AFF300802046FFF713FEFEE726
:10056000704772B6FEE710B590F8211000220229FC
:1005700005D00421816380F82020012010BD01688E
:100580000B6823F00E030B6001680B6823F0010376
:100590000B6090F84030C46B012101FA03F36360F3
:1005A00080F8211080F82020104610BD10B590F87A
:1005B00021100024022903D00421816301243DE09D
:1005C00001680A6822F00E020A6001680A6822F0D7
:1005D00001020A601A4A0168914201D1012121E019
:1005E000174A1432914201D110211BE0144A2832DB
:1005F000914201D1891515E0114A3C32914201D155
:1006000089140FE00E4A5032914202D14FF48031EA
:1006100008E00B4A6432914202D14FF4801101E0AC
:100620004FF08071064A083A5160012180F821108C
:10063000002180F82010416B01B18847204610BD91
:100640000800024090F82100704700002DE9F84FA3
:10065000DFF8B891002409F1040A0AF1040B2346DB
:100660000F270BF1040EC9E00125A5402A40AA423C
:100670007DD1674ED1F804C0ACEB0608B44532D04A
:1006800014DCBCF1030F3AD009DCBCF1000F2AD016
:10069000BCF1010F1CD0BCF1020F31D11DE0BCF147
:1006A000110F17D0BCF1120F2AD119E0B8F5881F2D
:1006B00019D006DCB8F5803F15D0B8F5801F1FD1E2
:1006C00011E0B8F5001F0ED0B8F5041F18D10AE0EC
:1006D000CB6815E0CB681B1D12E0CB6808330FE038
:1006E000CB680C330CE08B682BB1012B4FF0080367
:1006F00003D0456104E0042302E0056100E000232B
:10070000FF2A01D8064601E000F104064FEA8405FD
:1007100001D9A5F12005D6F8008007FA05FC28EAE2
:100720000C0803FA05F548EA0508C6F800804D688C
:10073000ED0062D5374DAE6946F00106AE61AD6998
:1007400024F0030605F001050095334D06EB050C7A
:10075000DCF80850A607360F07FA06F825EA080560
:10076000DFF8B880404503D14FF0000817E044E0BF
:10077000DFF8AC80404502D14FF001080FE0DFF810
:10078000A480404502D14FF0020808E0DFF89880CD
:10079000404502D14FF0030801E04FF0040808FA89
:1007A00006F848EA0508CCF808804D68D9F80060DA
:1007B000ED034D4601D5164300E096432E604D688B
:1007C000DAF80060AD03554601D5164300E09643C4
:1007D0002E604D68DBF80060ED025D4601D51643E2
:1007E00000E096432E604D68DEF80060AD0275466D
:1007F00001D5164300E096432E60641C0D682A461E
:10080000E5407FF431AFBDE8F88F000000040140FF
:1008100000001110001002400000014000080140DB
:10082000000C014000100140001401400AB10161B8
:1008300070470904FBE7000001488068704700002A
:1008400008000020704770472DE9F047026800213A
:100850005368C66A90F83E4090F83D50102C12D074
:10086000402C10D0046C002C7DD05469E443A607C2
:100870007AD4DE43B60577D4036C03B19169BDE841
:10088000F04701F0EFBD976951694FF42A0CC94355
:100890005FEAC1784FF02A4904D066452AD04E4518
:1008A00028D010E0DE43B6050DD4C16A614501D100
:1008B000012103E0C16A494501D10821C162BDE8B7
:1008C000F04701F039BD0E0716D4DE43B60513D448
:1008D000416CC9B21161416B09B1896A29B9816B57
:1008E000002907D0896A002904D00068416841F4D2
:1008F00000614160BDE8F0878E0706D4DE43B6058F
:1009000003D4BDE8F04701F06BBCFE4352687607A4
:100910004FEA02521DD4002AECDB0A0608D4DA435F
:10092000520505D4490705D5BDE8F04701F0FCBBE9
:100930004907DFD4D9438905DCD4212D05D0402CCB
:10094000D8D1BDE8F04701F03DBDBDE8F04701F06A
:10095000A9BB002ACEDB4A060BD4DA43520508D4E1
:10096000490708D501E00DE00EE0BDE8F04701F0D1
:1009700025BB4907BED4D9438905BBD4BDE8F047A0
:1009800001F0B2BA916970E7E10606D4D94389054E
:1009900003D4BDE8F04701F089BD2821212D27D0DF
:1009A000292D25D0650655D4DD436D0552D4640745
:1009B00052D590F83D30448D002C9BD01269446A8A
:1009C0002270426A521C4262428D521E4285428D02
:1009D000002A8FD12A2B8DD10268536823F48063BB
:1009E00053602222026380F83D1000F047F981E74E
:1009F000250623D4DD436D0520D4640720D590F867
:100A00003D30448D002CF2D0446A24781461426A4F
:100A1000521C4262428D521E4285428D002AE6D10E
:100A2000292BE4D10268536823F4806353602122A8
:100A3000026380F83D1000F022F95BE76107D6D42D
:100A4000D9438905D3D4418D0029D0D0416A097892
:100A500011610AE06107CAD4D9438905C7D4418D21
:100A60000029C4D01169426A1170416A491C41626F
:100A7000418D491E41853DE77047000070B5040077
:100A800025D094F83D00002520B984F83C5020463C
:100A900000F0BEF8242084F83D002068016821F0B1
:100AA000010101602068016841F400410160206893
:100AB000016821F40041016000F008FA4D4A6168C4
:100AC000914201D84C4900E04C49884201D20120B2
:100AD00070BD4B492368B0FBF1F15E6826F03F061C
:100AE0000E435E606368934206D94FF49673594390
:100AF0004FF47A73B1FBF3F12368491C1E6A26F0A8
:100B00003F06314319626168914210D84900401E86
:100B1000B0FBF1F2521CC2F30B02042A01D20420F2
:100B200022E0B0FBF1F0401CC0F30B001CE0A26817
:100B3000F2B301EBC10303EB0116431EB3FBF6F363
:100B40005B1C43F480431B0549D092B301EBC10207
:100B500002EB0111401EB0FBF1F0401CC0F30B0092
:100B600040F4804040F400402168CA694CF6FF73AD
:100B70009A431043C861D4E9071001432068026812
:100B800022F0C00211430160D4E90301014320684F
:100B9000826848F2FF339A4311438160D4E905012A
:100BA00008432168CA6822F0FF021043C86001E0D0
:100BB0000EE016E02068016841F001010160256443
:100BC000202084F83D00256384F83E50002070BD4D
:100BD00001EB4106431EB3FBF6F35B1CB3E70120B8
:100BE000C2E701EB4101401EB0FBF1F0401CC0F335
:100BF0000B00B7E7A086010080841E0000093D00BD
:100C000040420F00704770477047704770470000C0
:100C100010B586B000210091019102910391006806
:100C20001349884222D1134CA06940F00800A0610A
:100C3000A069694600F008000490C02000901220CE
:100C40000190032003900C48FFF700FDE06940F499
:100C50000010E061E069002200F4001004901146E9
:100C60001F2000F06BF81F2000F05AF806B010BDEE
:100C70000054004000100240000C014070477047D3
:100C800002488168027811448160704708000020A2
:100C9000074810B5016841F010010160032000F021
:100CA0006DF80F2000F006F800F024F8002010BDC9
:100CB0000020024070B50D4D04464FF47A7128783B
:100CC000B1FBF0F00A490968B1FBF0F000F0E4FA7A
:100CD00048B9102C07D200222146501E00F02EF8F1
:100CE00000206C6070BD012070BD00000800002075
:100CF00014000020094808B5816941F001018161B3
:100D0000816901F001010091C16941F08051C16127
:100D1000C06900F08050009008BD00000010024043
:100D2000002809DB00F01F020121914040098000EA
:100D300000F1E020C0F8001170470000F0B40E4B45
:100D40001B680C46C3F30223C3F10705042D00D929
:100D50000425191D072901D2002300E0DB1E01260E
:100D600006FA05F1491E214099409E40761E164024
:100D70003143F0BC02F007B80CED00E0064900F08A
:100D8000070208684FF6FF03184040EA0220034AB2
:100D900010430860704700000CED00E00000FA0509
:100DA0002DE9F0470F46050061D0434E306800F052
:100DB0000700B84209D2306820F00700384330609D
:100DC000306800F00700B84251D128683B4C8107D9
:100DD00012D5400703D5606840F4E0606060287871
:100DE000000703D5606840F4605060606068A968DF
:100DF00020F0F000084360602878C00728D06868B9
:100E0000012810D02168022810D0890700292EDA85
:100E1000616821F0030101436160FFF70DFD804629
:100E200041F288390DE021688903EFE78901EDE798
:100E3000FFF702FDA0EB0801494502D90320BDE8F8
:100E4000F0876068696800F00C00B0EB810FEFD1AB
:100E5000306800F00700B8420BD9306820F0070076
:100E600038433060306800F00700B84201D00120FC
:100E7000E5E72878400705D56068E96820F4E06078
:100E8000084360602878000706D56068296920F467
:100E9000605040EAC100606000F038F86168084ABC
:100EA000C1F30311515CC840064908600648006858
:100EB000FFF700FF0020C2E70020024000100240C0
:100EC000A82E0008140000200C000020044805494A
:100ED00000684968044AC1F30221515CC840704768
:100EE0001400002000100240B82E000804480549F4
:100EF00000684968044AC1F3C221515CC840704788
:100F00001400002000100240B82E000812A185B085
:100F10000FC98DE80F0014A0144A006804905168AE
:100F2000134801F00C03042B10D0082B0ED1C1F391
:100F30008343C9031DF803000AD5516804AAC1F30D
:100F40004041515C0A4A5043B0FBF1F005B0704794
:100F500008494843FAE700000203040506070809A8
:100F60000A0B0C0D0E0F10100102000000100240C1
:100F700000127A0000093D002DE9F84F040070D0FE
:100F80002078C04DC00749D06868C0F381000128AF
:100F900007D06868C0F38100022809D16868C003DF
:100FA00006D52868800339D560680028E7D035E089
:100FB0006068B0F5803F0BD010B1B0F5A02F11D014
:100FC000286820F480302860286820F4802002E01F
:100FD000286840F480302860606890B1FFF72CFCEE
:100FE00006460AE0286840F480202860F0E700BF49
:100FF000FFF722FC801B642873D828688003F7D58C
:101000000CE0FFF719FC064605E000BFFFF714FCF3
:10101000801B6428F0D828688003F7D420789A4E83
:1010200080074FF001094FF0000839D5686810F0CB
:101030000C0F07D06868C0F38100022809D16868E6
:10104000C00306D42868800714D52069012808D178
:1010500010E02069B0B1C6F80090FFF7EDFB07463D
:1010600005E00AE1FFF7E8FBC01B0228C4D82868A6
:101070008007F7D52868616920F0F80040EAC100D0
:1010800028600DE0C6F80080FFF7D6FB074604E0B5
:10109000FFF7D2FBC01B022823D828688007F7D4AB
:1010A000207800072CD57948A169D9B1C0F8009003
:1010B000FFF7C2FB074604E0FFF7BEFBC01B022898
:1010C0000FD8686A8007F7D571484FF4FA51006865
:1010D000B0FBF1F0009000BF0098411E0091FAD2E1
:1010E0000EE080E0C0F80080FFF7A6FB074604E0B2
:1010F000FFF7A2FBC01B022875D8686A8007F7D4E7
:101100002078400760D5E8690027C00008D4E86966
:1011100040F08050E861E869012700F080500090BD
:101120005C480168C90513D40168834641F48071A5
:101130000160FFF781FB824606E000BFFFF77CFB02
:10114000A0EB0A0064284ED8DBF80000C005F5D5F6
:10115000E06801280AD008B1052813D0286A20F0D9
:1011600001002862286A20F0040002E0286A40F0AA
:1011700001002862E06841F2883B98B1FFF75CFB10
:1011800082460BE0286A40F004002862EEE700BFC8
:10119000FFF752FBA0EB0A0159455AD8286A80078D
:1011A000F6D50CE0FFF748FB824605E0FFF744FB6D
:1011B000A0EB0A0159454CD8286A8007F6D41FB124
:1011C000E86920F08050E861E06988B36968C1F39C
:1011D0008101022944D00228C6F8608004D0FFF7BC
:1011E0002BFB044638E034E0FFF726FB074604E01B
:1011F000FFF722FBC01B02282BD828688001F7D4F8
:10120000206AB0F5803F05D16868A16820F40030FD
:1012100008436860D4E908010843696821F474113F
:1012200008436860C6F86090FFF706FB044606E0D6
:1012300025E000BFFFF700FB001B022809D8286843
:101240008001F7D51BE000BFFFF7F6FA001B02286C
:1012500002D90320BDE8F88F28688001F4D40EE09D
:101260000128F7D06868226A00F48031914204D1E5
:10127000616A00F47010884201D00120EAE7002082
:10128000E8E70000001002400000424280044242B1
:10129000140000200070004010B5401EB0F1807FA7
:1012A00001D3012010BD4FF0E02460610F216017D1
:1012B00001F069FD0020A06107202061002010BD21
:1012C0007047704770B590F83C20012A26D0012461
:1012D00080F83C40022280F83D2003685A689D68EF
:1012E00022F070060A6832435A600D4B02689A4237
:1012F00008D0B2F1804F05D00A4B9A4202D00A4B77
:101300009A4204D1496825F080031943916080F81E
:101310003D40002180F83C10084670BD022070BDA1
:10132000002C0140000400400008004010B50400FB
:1013300003D094F83D0010B107E0012010BD00205B
:1013400084F83C00204600F01FF8022084F83D009D
:10135000211D206801F0F6FA012084F8460084F887
:101360003E0084F83F0084F8400084F8410084F88F
:10137000420084F8430084F8440084F8450084F86F
:101380003D00002010BD000008B500680B498842F0
:1013900012D10B48C16941F00201C161C06900224C
:1013A00000F00200009011461D20FFF7C7FCBDE8C9
:1013B00008401D20FFF7B4BC08BD00000004004039
:1013C0000010024090F83D10012901D00120704723
:1013D000022180F83D1000680B49884208D0B0F126
:1013E000804F05D00949884202D00949884204D17A
:1013F000816801F00701062903D0016841F001016D
:101400000160002070470000002C014000040040F3
:101410000008004070B5044690F83C00012817D041
:10142000012584F83C50022084F83D002068826841
:1014300022F0770222F47F4282600868502830D080
:101440000DDC20284DD005DC98B310283BD148E0B6
:10145000022070BD302844D0402834D139E06028C3
:1014600028D0702806D0B0F5805F2CD0B0F5005F92
:1014700029D10AE0CB68D1E90121206801F0A5FA61
:101480002068816841F0770109E0CB68D1E901214A
:10149000206801F09AFA2068816841F480418160F7
:1014A00011E0CA684968206801F044FB50212068B7
:1014B00007E016E0CA684968206801F04CFB60212B
:1014C000206801F08CFA84F83D50002084F83C003C
:1014D00070BDCA684968206801F02CFB4021206873
:1014E000EFE7226801461046EBE7704770B5044607
:1014F000006801694FF00005C943890715D4C16828
:10150000C943890711D4E91E0161012020772068B1
:1015100080698007204602D0FFF7E7FF04E000F073
:10152000D1F8204600F07CF9257720680169C9438D
:10153000490717D4C168C943490713D46FF00401A0
:101540000161022020772068806910F4407F2046E6
:1015500002D0FFF7CAFF04E000F0B4F8204600F024
:101560005FF9257720680169C943090716D4C16866
:10157000C943090712D46FF00801016104202077E4
:101580002068C0698007204602D0FFF7AEFF04E064
:1015900000F098F8204600F043F9257720680169AB
:1015A000C943C90617D4C168C943C90613D46FF02B
:1015B00010010161082020772068C06910F4407F85
:1015C000204602D0FFF791FF04E000F07BF82046B0
:1015D00000F026F9257720680169C943C90708D1B9
:1015E000C168C943C90704D1891E0161204600F0C2
:1015F00067F920680169C943090609D4C168C9436C
:10160000090605D46FF0800101612046FFF758FEFE
:1016100020680169C943490609D4C168C94349061C
:1016200005D46FF040010161204600F04AF92068BE
:101630000169C94389060BD4C168C943890607D427
:101640006FF0200101612046BDE87040FFF739BE10
:1016500070BD000010B586B000210091019102918B
:1016600003910368134803220221B3F1804F13D082
:10167000114CA3420ED1836943F008038361806952
:10168000CDE9002100F00800CDE9031069460B48C0
:10169000FEF7DCFF06B010BD836943F004038361ED
:1016A0008069CDE9002100F00400CDE9031069460E
:1016B0000348EDE70010024000040040000C014028
:1016C00000080140704770B5044690F83C000D4694
:1016D00001280AD0012084F83C0042B1042A18D025
:1016E000082A2AD00C2A4DD139E0022070BD20688A
:1016F00001F07EF92068816941F00801816120686C
:10170000816921F004018161206881692A6911439E
:1017100011E0206801F094F92068816941F40061CA
:1017200081612068816921F480618161206881691B
:101730002A6941EA0221816124E0206801F0ACF9C4
:101740002068C16941F00801C1612068C16921F0C8
:101750000401C1612068C1692A69114311E0206850
:1017600001F0C6F92068C16941F40061C1612068D7
:10177000C16921F48061C1612068C1692A6941EAB7
:101780000221C161002084F83C0070BD10B5040046
:1017900003D094F83D0010B107E0012010BD0020F7
:1017A00084F83C00204600F01FF8022084F83D0039
:1017B000211D206801F0C6F8012084F8460084F855
:1017C0003E0084F83F0084F8400084F8410084F82B
:1017D000420084F8430084F8440084F8450084F80B
:1017E0003D00002010BD000008B50068B0F1804F3A
:1017F00012D10A48C16941F00101C161C0690022EA
:1018000000F00100009011461C20FFF797FABDE898
:1018100008401C20FFF784BA08BD000000100240F9
:101820007047000010B50446022249B104290ED0C9
:10183000082913D094F84100012816D0012010BDCA
:1018400094F83E000128F9D184F83E200FE094F886
:101850003F000128F2D184F83F2008E094F84000CE
:101860000128EBD184F8402001E084F841200122D6
:10187000206801F09DF80F492068884203D1426C2E
:1018800042F4004242642068884208D0B0F1804FA0
:1018900005D00949884202D00849884204D18168AC
:1018A00001F00701062903D0016841F00101016040
:1018B000002010BD002C0140000400400008004042
:1018C0007047704770477047F8B502680446106863
:1018D000D168536910F00F0F4FF0000554D003F09A
:1018E000010601F4907737435FD0C20705D0CA05DF
:1018F00003D5226C42F001022264420705D5DA07C3
:1019000003D0226C42F002022264820705D5DA0776
:1019100003D0226C42F004022264020707D501F0D2
:101920002002324303D0226C42F008022264226C6F
:10193000002A35D0800604D5880602D5204601F05D
:101940003CF920684069216CC0F3801001F0080167
:101950000143204625D001F018F920684169490665
:101960001BD5416921F040014161A06BA8B15849E4
:101970004163A06BFEF71AFE002811D0A06B416BEB
:1019800001B0BDE8F040084783060ED58B060CD5A4
:101990002046BDE8F84001F010B92046FFF793FF5C
:1019A000F8BDFFF790FF2564F8BD266B2023012EBC
:1019B00052D1C60650D5CE064ED51068506800905C
:1019C000506940062AD5A16B086840680004000CE5
:1019D000EAD0A68D8642E7D9E0858869202818D00C
:1019E000D06820F48070D0602068416921F0010146
:1019F00041612068416921F04001416184F83E3035
:101A000025632068C16821F01001C160A06BFEF75A
:101A1000AAFDA08DE18D401A81B219E0A08DE18D63
:101A2000401A81B2E08D0028BED00029BCD0D06819
:101A300020F49070D0602068426922F00102426177
:101A400084F83E3025632068C26822F01002C2602C
:101A50002046FFF737FFF8BD05062BD50D0629D523
:101A600094F83D002128F6D1A068B0F5805F01D13F
:101A70002069B0B1206A411C216221680078486069
:101A8000E08C401E0004000CE084E4D12068C168B2
:101A900021F08001C1602068C16841F04001C1604F
:101AA000F8BD206A0088C0F308005060206A801CDE
:101AB0002062E5E74006F3D54806F1D5D168204617
:101AC00021F04001D16084F83D3000F0FBF8F8BD12
:101AD0007B2B000870B5040004D094F83D0000256D
:101AE00010B106E0012070BD84F83C50204600F0A3
:101AF00023F8242084F83D002068C16821F40051B7
:101B0000C160204601F0B4F82068016921F49041D9
:101B100001612068416921F02A0141612068C168A2
:101B200041F40051C1602564202084F83D0084F810
:101B30003E00002070BD0000F0B585B00024009488
:101B40000194029403940368424F02204249032205
:101B5000424D4602BB4226D18B6943F480438B61E0
:101B60008B6903F4804304938B6943F004038B6116
:101B70008969039201F0040104910102CDE900108A
:101B800069462846FEF762FD01200096CDE9014036
:101B900069462846FEF75AFD002211462520FFF728
:101BA000CDF8252028E02E4FBB4229D1CB6943F444
:101BB0000033CB61CB6903F4003304938B6943F0AA
:101BC00004038B618969039201F0040104910421EB
:101BD000CDE9001069462846FEF738FD0820CDE91A
:101BE0000004694628460294FEF730FD00221146A3
:101BF0002620FFF7A3F82620FFF792F805B0F0BDE6
:101C0000184DAB42FAD1CB6943F48023CB61CB6949
:101C100003F4802304938B6943F008038B61896983
:101C2000114D01F00801CDE90321CDE900606946BD
:101C30002846FEF70BFDE814CDE900046946284666
:101C40000294FEF703FD002211462720FFF776F8E5
:101C50002720D1E700380140001002400008014071
:101C60000044004000480040000C014090F83E3025
:101C7000202B0ED159B152B190F83C30012B08D035
:101C8000012380F83C300023036301F04DB80120AC
:101C9000704702207047000010B50068064988426E
:101CA00008D1012205490648FFF7E0FF034901205A
:101CB000491E087010BD00000038014001000020DE
:101CC000FC0000207047FEE70148FEF7BDBD0000A4
:101CD0001800002038B5406A002190F83D202B4BB9
:101CE00046F2A8141B68B3FBF4F3C3EBC30303EB86
:101CF000830300933BB15B1E009303681B689B0545
:101D000005D5009BF6E7036C43F020030364436BA7
:101D100003B19962836B03B1996203681C6824F470
:101D200080641C604185436B03B15963836B03B1CD
:101D3000596303681C6824F001041C6090F83D405E
:101D40002023602C0BD0282434EA02020FD080F824
:101D50003D3080F83E1000BFFEF78EFE38BD80F8A3
:101D60003D3080F83E100164FEF76CFD38BD02681E
:101D7000136843F0010313600268136843F480633F
:101D80001360016380F83D40E6E700001400002086
:101D900070B5044690F83D0094F83E10102901D02B
:101DA000402906D1222804D121680A6822F4006261
:101DB0000A60282131EA00024FF000054FF02006AA
:101DC00026D021684968090505D4602803D084F825
:101DD0003D6084F83E50256320684168090537D589
:101DE000416821F400614160606B3D4990F8212019
:101DF000012A11D04163606BFEF7D8FB38B320682D
:101E0000016821F00101016084F83D60606B1CE015
:101E1000256384F83D10DFE7A06B4163A06BFEF7FC
:101E2000C5FBA0B120684169C943490605D40069D2
:101E3000616A0870606A401C60622068016821F075
:101E40000101016084F83D60A06B416B884710E0A0
:101E500094F83D10602910D04169C943490605D462
:101E60000069616A0870606A401C60622046FEF783
:101E700003FE206CC1071CD115E084F83D60256489
:101E80004169C943490605D40069616A0870606AFE
:101E9000401C60622068016821F001010160204659
:101EA000FEF7D0FCE5E7810703D4410701D4000722
:101EB00004D52068416821F4E061416094F83D0058
:101EC000216C49070BD5282809D10648E062256313
:101ED00084F83D6084F83E502046FEF793FE70BDC6
:101EE000D51C00080000FFFF10B5C26A438D0168D1
:101EF000042B06D0438D032B08D0438D022B1DD01D
:101F000012E04A6822F480624A600CE04B6823F4D5
:101F100080634B60042A06D0022A04D001680A6854
:101F200022F480620A6001680969426A1170416A9C
:101F3000491C4162418D491E418510BD012A30D0A6
:101F4000102A2ED0042A30D0022A2ED00A6842F459
:101F500000720A6001680969426A1170416A491C8D
:101F60004162428D521E4285026812690A70416ABE
:101F7000491C4162418D491E418501684A6822F42D
:101F800040724A60202180F83D1090F83E200021E8
:101F9000402A80F83E100CD012210163FEF733FE78
:101FA00010BD0A6822F48062D3E70A6842F48062B6
:101FB000CFE70163FEF729FE10BD000038B590F8A9
:101FC0003D10222914D1418D032912D901680969D4
:101FD000426A1170416A491C4162418D491E418526
:101FE000418D032904D10068416821F4806141607A
:101FF00038BDC26A022AFBD0012901D00029F7D1DD
:10200000274946F2A81300220968B1FBF3F101EB5E
:102010008101009101682023009C641E009422D05D
:102020000C68A405F8D40C6824F480640C60016882
:102030004C6824F4E0644C6001680969446A2170CA
:10204000416A491C4162418D491E418580F83D30FD
:1020500090F83E1080F83E2040291DD012210163E7
:10206000FEF7D1FD38BD046C44F0200404644C68D4
:1020700024F4E0644C6001680969446A2170416A93
:10208000491C4162418D491E418580F83D3080F8F0
:102090003E20FEF7F1FC38BD0263FEF7B6FD38BD09
:1020A0001400002010B5C26A90F83D1021290BD110
:1020B000418D51B1416A026809781161416A491C38
:1020C0004162418D491E418510BD20230021082A0F
:1020D00013D0202A11D012F5803F0ED00268546828
:1020E00024F4E06454601122026380F83E1080F80A
:1020F0003D3000BFFEF788FD10BD0268546824F42F
:10210000E06454600268146844F40074146001636D
:1021100080F83D3090F83E2080F83E10402AE9D10A
:10212000FEF774FD10BD000010B590F83D1090F85A
:102130003E30C26A048DB4B1212903D0402B11D1A5
:1021400022290FD1418DE1B390F83E10402942D0B1
:10215000416A026809781161416A491C4162418DF6
:10216000491E418510BD2129E8D120230021082ADC
:1021700013D0202A11D012F5803F0ED00268546887
:1021800024F4E06454601122026380F83E1080F869
:102190003D3000BFFEF738FD10BD0268546824F4DE
:1021A000E06454600268146844F4007414600163CD
:1021B00080F83D3090F83E2080F83E10402AE9D16A
:1021C00000E002E0FEF722FD10BD0068416821F446
:1021D0008061416010BDBDE8104000F0F3B8000020
:1021E00078B590F83E50C26A046B90F83D600023C9
:1021F0000168222E73D1066D0EB9402D6FD0056D8A
:102200001DB90569B5F5404F1BD0458D95B3468D79
:10221000484D012E20D0448D022C4DD00C6844F442
:1022200080640C6001684C68240579D5AA4273D09B
:10223000012A71D0082A6FD0102A6DD0202A6BD0C5
:102240006EE04A698A6900920A6842F480720A6004
:10225000016D491C016578BDAA4214D10A6822F4B7
:1022600080620A6001684A68120504D50A6822F48F
:10227000806217E0FFE74A698A6900920A6842F4BF
:1022800000720A6050E0082A10D0202A0ED0122CCA
:102290000AD0042A03D0022A01D0102AE6D10A6803
:1022A00042F480620A603BE0012ADFD00A6822F42F
:1022B00080620A600168DEE7042A11D0022A0FD08A
:1022C000102A0DD00C6844F400640C6001684C695D
:1022D0008C6900940C6824F480640C6008E025E0AC
:1022E0000C6844F480640C6001684C698969009151
:1022F00001684C68240517D5AA4207D0012A05D0E9
:10230000082A03D0102A01D0202A0DD14A6842F4AD
:1023100080524A6008E0FFE74A6842F480524A600F
:1023200001684A6989690091036578BD48698869CF
:10233000009078BD0000FFFF90F83E10402910D0BB
:102340000169B1F5804F19D0016DA9B3016D012963
:1023500010D1416C5FF0F10201F4407142EAD111F9
:1023600006E0016D0029416C05D0C9B241F00101C0
:1023700000680161704701F0FE01F9E790F83D1037
:102380002129416C09D0C9B241F0010102681161F3
:10239000416B29B1896A49B902E001F0FE01F5E714
:1023A000816B0029E6D0896A0029E3D00068416882
:1023B00041F4006141607047FFE7416CF02201F495
:1023C0004071CBE710B590F83D10026D22B3026D5D
:1023D000012A2FD0026D022A1DD122292FD0428D31
:1023E0000AB1212933D0428D002A14D1212912D1DA
:1023F00001684A6822F4E0624A6001680A6842F4AF
:1024000000720A6000210163202280F83D2080F8DC
:102410003E10FEF7FBFB10BDC16C0129816C02D0A0
:10242000C1F3072108E00268C9B21161016D891C7E
:10243000016510BD816CC9B20268116104E00168D8
:102440000A6842F480720A60016D491CF0E7416A33
:10245000026809781161416A491C4162418D491E37
:10246000418510BD38B50C4690F83D200021282547
:10247000954302680B4605D051699169009180F837
:102480003C3038BD556825F480655560E2435407FB
:1024900000D50121120601D5828900E0028B80F867
:1024A0003C3092B2FEF7CFF938BD0000F8B590F895
:1024B0003D6004460068416821F4E06141602068A5
:1024C000002541690091016841F001010160206827
:1024D000016821F48061016020684168090520D508
:1024E000474F222E48D02A2E46D0616B0968496892
:1024F0006185618D19B1216C41F00401216441684D
:1025000021F400614160606BFEF79CF8012808D05F
:10251000606B4763606BFEF749F810B1606B416B0D
:102520008847608D08B320684169C943490708D4CA
:102530000069616A0870606A401C6062608D401EBC
:10254000608520684169C943490608D40069616A09
:102550000870606A401C6062608D401E6085608DFE
:1025600018B1206C40F004002064206C00B32046B9
:10257000BDE8F840FFF70CBCA16B096849686185AC
:10258000618D19B1216C41F004012164416821F48D
:1025900000614160A06BFEF755F80128C1D0A06B27
:1025A0004763A06BFEF702F80028BAD0A06BB6E72D
:1025B0002A2E06D12563282084F83D002046FEF708
:1025C0005DFB94F83D10202028290DD0216B222995
:1025D00001D0222E07D1256384F83D0084F83E50B7
:1025E0002046FEF74BFBF8BD0649E162256384F8FF
:1025F0003D0084F83E502046FEF704FBF8BD000085
:10260000D51C00080000FFFF2DE9F04186B0002432
:1026100024480094019402940394816941F01001CC
:102620008161816901F010010491816941F020010B
:102630008161816901F020010491816941F0040107
:102640008161816901F004010491816941F008010F
:1026500081618069144F00F008004FF40055049028
:10266000002229463846FEF7E1F8DFF840800022D4
:10267000F0214046FEF7DAF8009502260125039680
:10268000CDE9015469463846FDF7E0FFF020CDE979
:102690000005CDE9024669464046FDF7D7FF06B082
:1026A000BDE8F08100100240001001400008014028
:1026B0000D4810B50B4901600C49416000214FF4F1
:1026C00080428160C0E9031241618161C1610162A0
:1026D000FEF7D4F9002803D0BDE81040FDF741BF54
:1026E00010BD00000054004018000020A08601002A
:1026F00010B58AB0002407941C2168460894FDF7A1
:102700004DFE19484FF08041C0E9001440F2E73116
:10271000C0E9024104618461FFF738F808B1FDF7B0
:1027200020FF079407A910480894FEF7CBFD08B1D5
:10273000FDF717FF6020CDE90004029400226946EE
:1027400009480494FEF7BFFF08B1FDF70AFF042211
:1027500069460548FEF7B7FF08B1FDF702FF0248DA
:10276000FEF778FF0AB010BD6C00002010B58EB0E7
:1027700000240794089409940A940B941C21684639
:102780000C94FDF70BFE23482149016040F21F31F4
:10279000C0E9011440F23F61C0E903148461FEF70F
:1027A000C5FD08B1FDF7DDFE4FF48050079007A985
:1027B0001848FEF72FFE08B1FDF7D3FE1548FEF7C7
:1027C000E5FF08B1FDF7CDFE0B940BA911480C9461
:1027D000FEF778FD08B1FDF7C4FE602000902820C8
:1027E000CDE90104082269460A480494FEF76BFF0C
:1027F00008B1FDF7B6FE0C2269460648FEF763FFF6
:1028000008B1FDF7AEFE0348FEF724FF0EB010BD81
:1028100000040040B40000200C4810B50A490160D3
:102820004FF4E1314160002181600C22C160C0E9B8
:1028300004128161C161FFF74DF9002803D0BDE8A2
:102840001040FDF78EBE10BD00380140FC00002096
:102850000C4810B50A4901604FF4E1314160002194
:1028600081600C22C160C0E904128161C161FFF77F
:1028700031F9002803D0BDE81040FDF772BE10BD4D
:1028800000440040400100200C4810B50A49016096
:102890004FF4E1314160002181600C22C160C0E948
:1028A00004128161C161FFF715F9002803D0BDE86A
:1028B0001040FDF756BE10BD0048004084010020C6
:1028C000FEE7FEE770477047FEF7DAB930B58FB024
:1028D00028216846FDF762FD14210AA8FDF75EFD78
:1028E00002250120049000951020059000244FF44B
:1028F0006010CDE9084007956846FEF73DFB08B13A
:1029000072B6FEE70F20CDE90A054FF48060CDE9ED
:102910000C4002210AA80E94FEF742FA002801D0CA
:1029200072B6FEE70FB030BD704700000148FEF7F9
:10293000DDBD00006C0000200148FEF7D7BD00009F
:10294000B4000020F0B50268164B174C174D4FF03D
:102950008047984205D0B84203D0A04201D0A84297
:1029600003D122F070064A683243984205D0B8423B
:1029700003D0A04201D0A84203D122F44074CA6817
:1029800022434C6922F08002224302608A68C262BC
:102990000A688262984201D109690163012141619B
:1029A000F0BD0000002C0140000400400008004081
:1029B00010B501F01F030121046A99408C430462A1
:1029C000016A9A401143016210BD10B5846842EA61
:1029D000032224F47F440A432243826010BD8268AC
:1029E00022F070020A4342F0070181607047000044
:1029F00030B5026A22F001020262026A4368846909
:102A000024F073050C682C4322F002058A682A43DF
:102A10000A4DA8420BD122F00805CA6823F440737E
:102A20002A434D6922F004021D438B692B43436006
:102A3000846149684163026230BD0000002C01409E
:102A400030B5026A22F010020262026A43688469A9
:102A50000D6824F4E64444EA05248D6822F020023F
:102A600042EA05120B4DA8420ED1CD6822F0800239
:102A700042EA05124D6923F4406343EA85038D69F8
:102A800022F0400243EA8503436084614968816320
:102A9000026230BD002C014030B5026A22F480721F
:102AA0000262036A4268C46923F4007324F0730568
:102AB0000C682C438D6843EA05230C4DA8420ED1C7
:102AC000CD6823F4006343EA05234D6922F44052A4
:102AD00042EA05128D6923F4806342EA05124260DE
:102AE000C4614968C163036230BD0000002C01402D
:102AF00030B5026A22F480520262046A4268C369F5
:102B00000D6823F4E64343EA05238D6824F400545A
:102B100044EA0534064DA84204D14D6922F48042AE
:102B200042EA85124260C36149680164046230BDB3
:102B3000002C014010B5036A046A24F00104046209
:102B4000846924F0F00444EA021423F00A020A43E0
:102B50008461026210BD10B5036A23F010030362A2
:102B60008369046A23F4704343EA023224F0A00329
:102B700043EA01118261016210BD10B5406A002173
:102B8000C185C184FEF79FFE10BD0168CA6822F4AA
:102B90009072CA6001684A6922F001024A61016BC1
:102BA000012904D10168CA6822F01002CA602021FC
:102BB00080F83E1000210163704708B590F83E1080
:102BC000222901D0022008BD82684FF480539A4226
:102BD00001D1016921B1816A9A421BD04AB10AE050
:102BE0000268816A5268C2F308020A80816A891CFD
:102BF00008E0026972B10268526802F07F020A704E
:102C0000816A491C8162C18D491E0904090CC18574
:102C100003D019E002685268F1E70168CA6822F03F
:102C20002002CA600168CA6822F48072CA60016822
:102C30004A6922F001024A61202180F83E10016BAE
:102C4000012903D0FFF728F8002008BD0021016307
:102C50000168CA6822F01002CA6001680A68D206D8
:102C600002D50A6849680091818DFEF72BFEEBE7DB
:102C700070B5044600680169E26821F440511143CF
:102C800001612169A0680843616908432168CA6835
:102C900041F20C639A430243CA6020684169A26909
:102CA00021F44071114341611E492068884202D1DC
:102CB000FEF71CF901E0FEF709F900EBC00101EB9A
:102CC0000012606864218000B2FBF0F3B3FBF1F303
:102CD0006FF018067343B2FBF0F5B2FBF0F605EBAC
:102CE0008305322303EB0515B5FBF1F5B6FBF1F6D1
:102CF00005F0F00505EB0615B2FBF0F6B2FBF0F0BF
:102D0000B0FBF1F06FF01802504306EB800003EBCC
:102D10000010B0FBF1F0216800F00F00284488603B
:102D200070BD00000038014081628285C2850021AB
:102D30000164222280F83E2080F83C100168CA68B5
:102D400042F48072CA6001684A6942F001024A6135
:102D50000068C16841F02001C16000207047000098
:102D60000148FEF7B1BD0000FC0000200148FEF75D
:102D7000ABBD0000400100200148FEF7A5BD0000EA
:102D800084010020FEE70907090E002804DB00F19A
:102D9000E02080F80014704700F00F0000F1E02000
:102DA00080F8141D704730380A2801D2012070477E
:102DB000002070477047000004490A681206FCD5DD
:102DC000024AC1B2121D1160704700000038014074
:102DD000FDF75EFFFFF77AFDFFF716FCFFF768FCD3
:102DE000FFF786FCFFF718FDFFF732FDFFF74CFDFC
:102DF000FFF7BCFC1648FEF7E5FA00211448FEF781
:102E000011FD04211248FEF70DFD1248FEF7DAFA13
:102E100000211048FEF706FD04210E48FEF702FDD2
:102E200008210C48FEF7FEFC0C210A48FEF7FAFCCC
:102E3000012209490948FEF719FF00F02BF800F0BC
:102E400019F8054C06A02178FDF7C4F9FAE700004F
:102E50006C000020B400002001000020FC000020D5
:102E600075617274315F6275666665723A202564B9
:102E70000000000010B5064C012250212046FDF74D
:102E8000D5FC20460022BDE81040A021FDF7CEBCB5
:102E90000008014003492D200860C820091D086072
:102EA000704700003C0400400000000000000000EB
:102EB00001020304060708090000000001020304E0
:102EC00004000008000000000000000200010000F3
:102ED00010000000F42E0008000000201800000080
:102EE000280100080C2F000818000020100800001E
:102EF0004401000800000000000000000100000084
:0C2F000010000000000000000024F4009D
:04000005080000ED02
:00000001FF
